{
  "contractName": "ExpandedERC20",
  "abi": [
    {
      "inputs": [
        {
          "internalType": "string",
          "name": "_tokenName",
          "type": "string"
        },
        {
          "internalType": "string",
          "name": "_tokenSymbol",
          "type": "string"
        },
        {
          "internalType": "uint8",
          "name": "_tokenDecimals",
          "type": "uint8"
        }
      ],
      "stateMutability": "nonpayable",
      "type": "constructor"
    },
    {
      "anonymous": false,
      "inputs": [
        {
          "indexed": true,
          "internalType": "uint256",
          "name": "roleId",
          "type": "uint256"
        },
        {
          "indexed": true,
          "internalType": "address",
          "name": "newMember",
          "type": "address"
        },
        {
          "indexed": true,
          "internalType": "address",
          "name": "manager",
          "type": "address"
        }
      ],
      "name": "AddedSharedMember",
      "type": "event"
    },
    {
      "anonymous": false,
      "inputs": [
        {
          "indexed": true,
          "internalType": "address",
          "name": "owner",
          "type": "address"
        },
        {
          "indexed": true,
          "internalType": "address",
          "name": "spender",
          "type": "address"
        },
        {
          "indexed": false,
          "internalType": "uint256",
          "name": "value",
          "type": "uint256"
        }
      ],
      "name": "Approval",
      "type": "event"
    },
    {
      "anonymous": false,
      "inputs": [
        {
          "indexed": true,
          "internalType": "uint256",
          "name": "roleId",
          "type": "uint256"
        },
        {
          "indexed": true,
          "internalType": "address",
          "name": "oldMember",
          "type": "address"
        },
        {
          "indexed": true,
          "internalType": "address",
          "name": "manager",
          "type": "address"
        }
      ],
      "name": "RemovedSharedMember",
      "type": "event"
    },
    {
      "anonymous": false,
      "inputs": [
        {
          "indexed": true,
          "internalType": "uint256",
          "name": "roleId",
          "type": "uint256"
        },
        {
          "indexed": true,
          "internalType": "address",
          "name": "newMember",
          "type": "address"
        },
        {
          "indexed": true,
          "internalType": "address",
          "name": "manager",
          "type": "address"
        }
      ],
      "name": "ResetExclusiveMember",
      "type": "event"
    },
    {
      "anonymous": false,
      "inputs": [
        {
          "indexed": true,
          "internalType": "address",
          "name": "from",
          "type": "address"
        },
        {
          "indexed": true,
          "internalType": "address",
          "name": "to",
          "type": "address"
        },
        {
          "indexed": false,
          "internalType": "uint256",
          "name": "value",
          "type": "uint256"
        }
      ],
      "name": "Transfer",
      "type": "event"
    },
    {
      "inputs": [
        {
          "internalType": "uint256",
          "name": "roleId",
          "type": "uint256"
        },
        {
          "internalType": "address",
          "name": "newMember",
          "type": "address"
        }
      ],
      "name": "addMember",
      "outputs": [],
      "stateMutability": "nonpayable",
      "type": "function"
    },
    {
      "inputs": [
        {
          "internalType": "address",
          "name": "owner",
          "type": "address"
        },
        {
          "internalType": "address",
          "name": "spender",
          "type": "address"
        }
      ],
      "name": "allowance",
      "outputs": [
        {
          "internalType": "uint256",
          "name": "",
          "type": "uint256"
        }
      ],
      "stateMutability": "view",
      "type": "function"
    },
    {
      "inputs": [
        {
          "internalType": "address",
          "name": "spender",
          "type": "address"
        },
        {
          "internalType": "uint256",
          "name": "amount",
          "type": "uint256"
        }
      ],
      "name": "approve",
      "outputs": [
        {
          "internalType": "bool",
          "name": "",
          "type": "bool"
        }
      ],
      "stateMutability": "nonpayable",
      "type": "function"
    },
    {
      "inputs": [
        {
          "internalType": "address",
          "name": "account",
          "type": "address"
        }
      ],
      "name": "balanceOf",
      "outputs": [
        {
          "internalType": "uint256",
          "name": "",
          "type": "uint256"
        }
      ],
      "stateMutability": "view",
      "type": "function"
    },
    {
      "inputs": [],
      "name": "decimals",
      "outputs": [
        {
          "internalType": "uint8",
          "name": "",
          "type": "uint8"
        }
      ],
      "stateMutability": "view",
      "type": "function"
    },
    {
      "inputs": [
        {
          "internalType": "address",
          "name": "spender",
          "type": "address"
        },
        {
          "internalType": "uint256",
          "name": "subtractedValue",
          "type": "uint256"
        }
      ],
      "name": "decreaseAllowance",
      "outputs": [
        {
          "internalType": "bool",
          "name": "",
          "type": "bool"
        }
      ],
      "stateMutability": "nonpayable",
      "type": "function"
    },
    {
      "inputs": [
        {
          "internalType": "uint256",
          "name": "roleId",
          "type": "uint256"
        }
      ],
      "name": "getMember",
      "outputs": [
        {
          "internalType": "address",
          "name": "",
          "type": "address"
        }
      ],
      "stateMutability": "view",
      "type": "function"
    },
    {
      "inputs": [
        {
          "internalType": "uint256",
          "name": "roleId",
          "type": "uint256"
        },
        {
          "internalType": "address",
          "name": "memberToCheck",
          "type": "address"
        }
      ],
      "name": "holdsRole",
      "outputs": [
        {
          "internalType": "bool",
          "name": "",
          "type": "bool"
        }
      ],
      "stateMutability": "view",
      "type": "function"
    },
    {
      "inputs": [
        {
          "internalType": "address",
          "name": "spender",
          "type": "address"
        },
        {
          "internalType": "uint256",
          "name": "addedValue",
          "type": "uint256"
        }
      ],
      "name": "increaseAllowance",
      "outputs": [
        {
          "internalType": "bool",
          "name": "",
          "type": "bool"
        }
      ],
      "stateMutability": "nonpayable",
      "type": "function"
    },
    {
      "inputs": [],
      "name": "name",
      "outputs": [
        {
          "internalType": "string",
          "name": "",
          "type": "string"
        }
      ],
      "stateMutability": "view",
      "type": "function"
    },
    {
      "inputs": [
        {
          "internalType": "uint256",
          "name": "roleId",
          "type": "uint256"
        },
        {
          "internalType": "address",
          "name": "memberToRemove",
          "type": "address"
        }
      ],
      "name": "removeMember",
      "outputs": [],
      "stateMutability": "nonpayable",
      "type": "function"
    },
    {
      "inputs": [
        {
          "internalType": "uint256",
          "name": "roleId",
          "type": "uint256"
        }
      ],
      "name": "renounceMembership",
      "outputs": [],
      "stateMutability": "nonpayable",
      "type": "function"
    },
    {
      "inputs": [
        {
          "internalType": "uint256",
          "name": "roleId",
          "type": "uint256"
        },
        {
          "internalType": "address",
          "name": "newMember",
          "type": "address"
        }
      ],
      "name": "resetMember",
      "outputs": [],
      "stateMutability": "nonpayable",
      "type": "function"
    },
    {
      "inputs": [],
      "name": "symbol",
      "outputs": [
        {
          "internalType": "string",
          "name": "",
          "type": "string"
        }
      ],
      "stateMutability": "view",
      "type": "function"
    },
    {
      "inputs": [],
      "name": "totalSupply",
      "outputs": [
        {
          "internalType": "uint256",
          "name": "",
          "type": "uint256"
        }
      ],
      "stateMutability": "view",
      "type": "function"
    },
    {
      "inputs": [
        {
          "internalType": "address",
          "name": "recipient",
          "type": "address"
        },
        {
          "internalType": "uint256",
          "name": "amount",
          "type": "uint256"
        }
      ],
      "name": "transfer",
      "outputs": [
        {
          "internalType": "bool",
          "name": "",
          "type": "bool"
        }
      ],
      "stateMutability": "nonpayable",
      "type": "function"
    },
    {
      "inputs": [
        {
          "internalType": "address",
          "name": "sender",
          "type": "address"
        },
        {
          "internalType": "address",
          "name": "recipient",
          "type": "address"
        },
        {
          "internalType": "uint256",
          "name": "amount",
          "type": "uint256"
        }
      ],
      "name": "transferFrom",
      "outputs": [
        {
          "internalType": "bool",
          "name": "",
          "type": "bool"
        }
      ],
      "stateMutability": "nonpayable",
      "type": "function"
    },
    {
      "inputs": [
        {
          "internalType": "address",
          "name": "recipient",
          "type": "address"
        },
        {
          "internalType": "uint256",
          "name": "value",
          "type": "uint256"
        }
      ],
      "name": "mint",
      "outputs": [
        {
          "internalType": "bool",
          "name": "",
          "type": "bool"
        }
      ],
      "stateMutability": "nonpayable",
      "type": "function"
    },
    {
      "inputs": [
        {
          "internalType": "address",
          "name": "from",
          "type": "address"
        },
        {
          "internalType": "uint256",
          "name": "value",
          "type": "uint256"
        }
      ],
      "name": "burn",
      "outputs": [],
      "stateMutability": "nonpayable",
      "type": "function"
    }
  ],
  "bytecode": "0x60806040523480156200001157600080fd5b5060405162001dcd38038062001dcd833981810160405260608110156200003757600080fd5b81019080805160405193929190846401000000008211156200005857600080fd5b9083019060208201858111156200006e57600080fd5b82516401000000008111828201881017156200008957600080fd5b82525081516020918201929091019080838360005b83811015620000b85781810151838201526020016200009e565b50505050905090810190601f168015620000e65780820380516001836020036101000a031916815260200191505b50604052602001805160405193929190846401000000008211156200010a57600080fd5b9083019060208201858111156200012057600080fd5b82516401000000008111828201881017156200013b57600080fd5b82525081516020918201929091019080838360005b838110156200016a57818101518382015260200162000150565b50505050905090810190601f168015620001985780820380516001836020036101000a031916815260200191505b5060405260209081015185519093508592508491620001bd91600391850190620005c5565b508051620001d3906004906020840190620005c5565b50506005805460ff1916601217905550620001f7816001600160e01b036200024016565b6200020e600080336001600160e01b036200025616565b6200022b60015b6040805160008082526020820190925262000371565b62000237600262000215565b5050506200066a565b6005805460ff191660ff92909216919091179055565b826000808281526006602052604090206001015460ff1660028111156200027957fe5b14620002cc576040805162461bcd60e51b815260206004820152601e60248201527f43616e6e6f74207573652061207072652d6578697374696e6720726f6c650000604482015290519081900360640190fd5b60008481526006602052604090206001808201805460ff1916828002179055508381556200030a600282018462000486602090811b6200143f17901c565b60008481526006602052604081206001015460ff1660028111156200032b57fe5b14156200036a5760405162461bcd60e51b815260040180806020018281038252603c81526020018062001d36603c913960400191505060405180910390fd5b5050505050565b826000808281526006602052604090206001015460ff1660028111156200039457fe5b14620003e7576040805162461bcd60e51b815260206004820152601e60248201527f43616e6e6f74207573652061207072652d6578697374696e6720726f6c650000604482015290519081900360640190fd5b600084815260066020908152604090912060018101805460ff19166002179055848155906200042690600383019085906200144d6200049f821b17901c565b60008481526006602052604081206001015460ff1660028111156200044757fe5b14156200036a5760405162461bcd60e51b815260040180806020018281038252603881526020018062001d956038913960400191505060405180910390fd5b6200049b82826001600160e01b03620004e016565b5050565b60005b8151811015620004db57620004d283838381518110620004be57fe5b60200260200101516200054460201b60201c565b600101620004a2565b505050565b6001600160a01b038116620005275760405162461bcd60e51b815260040180806020018281038252602381526020018062001d726023913960400191505060405180910390fd5b81546001600160a01b0319166001600160a01b0391909116179055565b6001600160a01b038116620005a0576040805162461bcd60e51b815260206004820152601f60248201527f43616e6e6f74206164642030783020746f20612073686172656420726f6c6500604482015290519081900360640190fd5b6001600160a01b0316600090815260209190915260409020805460ff19166001179055565b828054600181600116156101000203166002900490600052602060002090601f016020900481019282601f106200060857805160ff191683800117855562000638565b8280016001018555821562000638579182015b82811115620006385782518255916020019190600101906200061b565b50620006469291506200064a565b5090565b6200066791905b8082111562000646576000815560010162000651565b90565b6116bc806200067a6000396000f3fe608060405234801561001057600080fd5b50600436106101215760003560e01c806374d0a676116100ad578063a9059cbb11610071578063a9059cbb146103b5578063aaa14ca3146103e1578063ab3545e5146103fe578063d97c05be14610437578063dd62ed3e1461046357610121565b806374d0a676146102fd5780637cdc1cb91461032957806395d89b41146103555780639dc29fac1461035d578063a457c2d71461038957610121565b8063313ce567116100f4578063313ce56714610233578063395093511461025157806340c10f191461027d5780636be7658b146102a957806370a08231146102d757610121565b806306fdde0314610126578063095ea7b3146101a357806318160ddd146101e357806323b872dd146101fd575b600080fd5b61012e610491565b6040805160208082528351818301528351919283929083019185019080838360005b83811015610168578181015183820152602001610150565b50505050905090810190601f1680156101955780820380516001836020036101000a031916815260200191505b509250505060405180910390f35b6101cf600480360360408110156101b957600080fd5b506001600160a01b038135169060200135610527565b604080519115158252519081900360200190f35b6101eb610545565b60408051918252519081900360200190f35b6101cf6004803603606081101561021357600080fd5b506001600160a01b0381358116916020810135909116906040013561054b565b61023b6105d8565b6040805160ff9092168252519081900360200190f35b6101cf6004803603604081101561026757600080fd5b506001600160a01b0381351690602001356105e1565b6101cf6004803603604081101561029357600080fd5b506001600160a01b038135169060200135610635565b6102d5600480360360408110156102bf57600080fd5b50803590602001356001600160a01b0316610688565b005b6101eb600480360360208110156102ed57600080fd5b50356001600160a01b031661079c565b6102d56004803603604081101561031357600080fd5b50803590602001356001600160a01b03166107b7565b6101cf6004803603604081101561033f57600080fd5b50803590602001356001600160a01b03166108cb565b61012e61097a565b6102d56004803603604081101561037357600080fd5b506001600160a01b0381351690602001356109db565b6101cf6004803603604081101561039f57600080fd5b506001600160a01b038135169060200135610a31565b6101cf600480360360408110156103cb57600080fd5b506001600160a01b038135169060200135610a9f565b6102d5600480360360208110156103f757600080fd5b5035610ab3565b61041b6004803603602081101561041457600080fd5b5035610bad565b604080516001600160a01b039092168252519081900360200190f35b6102d56004803603604081101561044d57600080fd5b50803590602001356001600160a01b0316610c2f565b6101eb6004803603604081101561047957600080fd5b506001600160a01b0381358116916020013516610d43565b60038054604080516020601f600260001961010060018816150201909516949094049384018190048102820181019092528281526060939092909183018282801561051d5780601f106104f25761010080835404028352916020019161051d565b820191906000526020600020905b81548152906001019060200180831161050057829003601f168201915b5050505050905090565b600061053b610534610d6e565b8484610d72565b5060015b92915050565b60025490565b6000610558848484610e5e565b6105ce84610564610d6e565b6105c985604051806060016040528060288152602001611589602891396001600160a01b038a166000908152600160205260408120906105a2610d6e565b6001600160a01b03168152602081019190915260400160002054919063ffffffff610fc516565b610d72565b5060019392505050565b60055460ff1690565b600061053b6105ee610d6e565b846105c985600160006105ff610d6e565b6001600160a01b03908116825260208083019390935260409182016000908120918c16815292529020549063ffffffff61105c16565b6000600161064381336108cb565b61067e5760405162461bcd60e51b81526004018080602001828103825260228152602001806115676022913960400191505060405180910390fd5b6105ce84846110b6565b81600260008281526006602052604090206001015460ff1660028111156106ab57fe5b146106e75760405162461bcd60e51b815260040180806020018281038252602c81526020018061153b602c913960400191505060405180910390fd5b600083815260066020526040902054839061070290336108cb565b61073d5760405162461bcd60e51b815260040180806020018281038252602481526020018061163e6024913960400191505060405180910390fd5b600084815260066020526040902061075e906003018463ffffffff6111b216565b60405133906001600160a01b0385169086907feb3e33034c392e69263b04ec0fa376dc12784a41b6676c7f31b936cbc0fbb5af90600090a450505050565b6001600160a01b031660009081526020819052604090205490565b81600260008281526006602052604090206001015460ff1660028111156107da57fe5b146108165760405162461bcd60e51b815260040180806020018281038252602c81526020018061153b602c913960400191505060405180910390fd5b600083815260066020526040902054839061083190336108cb565b61086c5760405162461bcd60e51b815260040180806020018281038252602481526020018061163e6024913960400191505060405180910390fd5b600084815260066020526040902061088d906003018463ffffffff6111d416565b60405133906001600160a01b0385169086907f63502af7324ff6db91ab38f8236a648727d9385ea6c782073dd4882d8a61a48f90600090a450505050565b600082815260066020526040812060018082015460ff1660028111156108ed57fe5b141561090e57610906600282018463ffffffff61125416565b91505061053f565b6002600182015460ff16600281111561092357fe5b141561093c57610906600382018463ffffffff61126716565b6040805162461bcd60e51b815260206004820152600e60248201526d125b9d985b1a59081c9bdb19525960921b604482015290519081900360640190fd5b60048054604080516020601f600260001961010060018816150201909516949094049384018190048102820181019092528281526060939092909183018282801561051d5780601f106104f25761010080835404028352916020019161051d565b60026109e781336108cb565b610a225760405162461bcd60e51b81526004018080602001828103825260228152602001806115676022913960400191505060405180910390fd5b610a2c8383611286565b505050565b600061053b610a3e610d6e565b846105c9856040518060600160405280602581526020016116626025913960016000610a68610d6e565b6001600160a01b03908116825260208083019390935260409182016000908120918d1681529252902054919063ffffffff610fc516565b600061053b610aac610d6e565b8484610e5e565b80600260008281526006602052604090206001015460ff166002811115610ad657fe5b14610b125760405162461bcd60e51b815260040180806020018281038252602c81526020018061153b602c913960400191505060405180910390fd5b81610b1d81336108cb565b610b585760405162461bcd60e51b81526004018080602001828103825260228152602001806115676022913960400191505060405180910390fd5b6000838152600660205260409020610b79906003013363ffffffff6111b216565b6040513390819085907feb3e33034c392e69263b04ec0fa376dc12784a41b6676c7f31b936cbc0fbb5af90600090a4505050565b600081600160008281526006602052604090206001015460ff166002811115610bd257fe5b14610c0e5760405162461bcd60e51b815260040180806020018281038252602f81526020018061150c602f913960400191505060405180910390fd5b6000838152600660205260409020610c289060020161138e565b9392505050565b81600160008281526006602052604090206001015460ff166002811115610c5257fe5b14610c8e5760405162461bcd60e51b815260040180806020018281038252602f81526020018061150c602f913960400191505060405180910390fd5b6000838152600660205260409020548390610ca990336108cb565b610ce45760405162461bcd60e51b815260040180806020018281038252602481526020018061163e6024913960400191505060405180910390fd5b6000848152600660205260409020610d05906002018463ffffffff61139b16565b60405133906001600160a01b0385169086907f3b855c56b409b671c7112789d022675eb639d0bcb8896f1b6197c132f799e74690600090a450505050565b6001600160a01b03918216600090815260016020908152604080832093909416825291909152205490565b3390565b6001600160a01b038316610db75760405162461bcd60e51b815260040180806020018281038252602481526020018061161a6024913960400191505060405180910390fd5b6001600160a01b038216610dfc5760405162461bcd60e51b81526004018080602001828103825260228152602001806114c46022913960400191505060405180910390fd5b6001600160a01b03808416600081815260016020908152604080832094871680845294825291829020859055815185815291517f8c5be1e5ebec7d5bd14f71427d1e84f3dd0314c0f7b2291e5b200ac8c7c3b9259281900390910190a3505050565b6001600160a01b038316610ea35760405162461bcd60e51b81526004018080602001828103825260258152602001806115f56025913960400191505060405180910390fd5b6001600160a01b038216610ee85760405162461bcd60e51b815260040180806020018281038252602381526020018061147f6023913960400191505060405180910390fd5b610ef3838383610a2c565b610f36816040518060600160405280602681526020016114e6602691396001600160a01b038616600090815260208190526040902054919063ffffffff610fc516565b6001600160a01b038085166000908152602081905260408082209390935590841681522054610f6b908263ffffffff61105c16565b6001600160a01b038084166000818152602081815260409182902094909455805185815290519193928716927fddf252ad1be2c89b69c2b068fc378daa952ba7f163c4a11628f55a4df523b3ef92918290030190a3505050565b600081848411156110545760405162461bcd60e51b81526004018080602001828103825283818151815260200191508051906020019080838360005b83811015611019578181015183820152602001611001565b50505050905090810190601f1680156110465780820380516001836020036101000a031916815260200191505b509250505060405180910390fd5b505050900390565b600082820183811015610c28576040805162461bcd60e51b815260206004820152601b60248201527f536166654d6174683a206164646974696f6e206f766572666c6f770000000000604482015290519081900360640190fd5b6001600160a01b038216611111576040805162461bcd60e51b815260206004820152601f60248201527f45524332303a206d696e7420746f20746865207a65726f206164647265737300604482015290519081900360640190fd5b61111d60008383610a2c565b600254611130908263ffffffff61105c16565b6002556001600160a01b03821660009081526020819052604090205461115c908263ffffffff61105c16565b6001600160a01b0383166000818152602081815260408083209490945583518581529351929391927fddf252ad1be2c89b69c2b068fc378daa952ba7f163c4a11628f55a4df523b3ef9281900390910190a35050565b6001600160a01b0316600090815260209190915260409020805460ff19169055565b6001600160a01b03811661122f576040805162461bcd60e51b815260206004820152601f60248201527f43616e6e6f74206164642030783020746f20612073686172656420726f6c6500604482015290519081900360640190fd5b6001600160a01b0316600090815260209190915260409020805460ff19166001179055565b90546001600160a01b0391821691161490565b6001600160a01b03166000908152602091909152604090205460ff1690565b6001600160a01b0382166112cb5760405162461bcd60e51b81526004018080602001828103825260218152602001806115b16021913960400191505060405180910390fd5b6112d782600083610a2c565b61131a816040518060600160405280602281526020016114a2602291396001600160a01b038516600090815260208190526040902054919063ffffffff610fc516565b6001600160a01b038316600090815260208190526040902055600254611346908263ffffffff6113fd16565b6002556040805182815290516000916001600160a01b038516917fddf252ad1be2c89b69c2b068fc378daa952ba7f163c4a11628f55a4df523b3ef9181900360200190a35050565b546001600160a01b031690565b6001600160a01b0381166113e05760405162461bcd60e51b81526004018080602001828103825260238152602001806115d26023913960400191505060405180910390fd5b81546001600160a01b0319166001600160a01b0391909116179055565b6000610c2883836040518060400160405280601e81526020017f536166654d6174683a207375627472616374696f6e206f766572666c6f770000815250610fc5565b611449828261139b565b5050565b60005b8151811015610a2c576114768383838151811061146957fe5b60200260200101516111d4565b60010161145056fe45524332303a207472616e7366657220746f20746865207a65726f206164647265737345524332303a206275726e20616d6f756e7420657863656564732062616c616e636545524332303a20617070726f766520746f20746865207a65726f206164647265737345524332303a207472616e7366657220616d6f756e7420657863656564732062616c616e63654d7573742062652063616c6c6564206f6e20616e20696e697469616c697a6564204578636c757369766520726f6c654d7573742062652063616c6c6564206f6e20616e20696e697469616c697a65642053686172656420726f6c6553656e64657220646f6573206e6f7420686f6c6420726571756972656420726f6c6545524332303a207472616e7366657220616d6f756e74206578636565647320616c6c6f77616e636545524332303a206275726e2066726f6d20746865207a65726f206164647265737343616e6e6f742073657420616e206578636c757369766520726f6c6520746f2030783045524332303a207472616e736665722066726f6d20746865207a65726f206164647265737345524332303a20617070726f76652066726f6d20746865207a65726f206164647265737343616e206f6e6c792062652063616c6c6564206279206120726f6c65206d616e6167657245524332303a2064656372656173656420616c6c6f77616e63652062656c6f77207a65726fa26469706673582212204b2d8e3301e1e84cfe516ebc99ddaeb67a055b21a035005481ee9d4bdaabdb5e64736f6c63430006030033417474656d7074656420746f2075736520616e20696e76616c696420726f6c6520746f206d616e61676520616e206578636c757369766520726f6c6543616e6e6f742073657420616e206578636c757369766520726f6c6520746f20307830417474656d7074656420746f2075736520616e20696e76616c696420726f6c6520746f206d616e61676520612073686172656420726f6c65",
  "source": "pragma solidity ^0.6.0;\n\nimport \"./ERC20.sol\";\nimport \"./MultiRole.sol\";\nimport \"../interfaces/IExpandedIERC20.sol\";\n\n\n/**\n * @title An ERC20 with permissioned burning and minting. The contract deployer will initially\n * be the owner who is capable of adding new roles.\n */\ncontract ExpandedERC20 is IExpandedIERC20, ERC20, MultiRole {\n    enum Roles {\n        // Can set the minter and burner.\n        Owner,\n        // Addresses that can mint new tokens.\n        Minter,\n        // Addresses that can burn tokens that address owns.\n        Burner\n    }\n\n    /**\n     * @notice Constructs the ExpandedERC20.\n     * @param _tokenName The name which describes the new token.\n     * @param _tokenSymbol The ticker abbreviation of the name. Ideally < 5 chars.\n     * @param _tokenDecimals The number of decimals to define token precision.\n     */\n    constructor(\n        string memory _tokenName,\n        string memory _tokenSymbol,\n        uint8 _tokenDecimals\n    ) public ERC20(_tokenName, _tokenSymbol) {\n        _setupDecimals(_tokenDecimals);\n        _createExclusiveRole(uint256(Roles.Owner), uint256(Roles.Owner), msg.sender);\n        _createSharedRole(uint256(Roles.Minter), uint256(Roles.Owner), new address[](0));\n        _createSharedRole(uint256(Roles.Burner), uint256(Roles.Owner), new address[](0));\n    }\n\n    /**\n     * @dev Mints `value` tokens to `recipient`, returning true on success.\n     * @param recipient address to mint to.\n     * @param value amount of tokens to mint.\n     * @return True if the mint succeeded, or False.\n     */\n    function mint(address recipient, uint256 value)\n        external\n        override\n        onlyRoleHolder(uint256(Roles.Minter))\n        returns (bool)\n    {\n        _mint(recipient, value);\n        return true;\n    }\n\n    /**\n     * @dev Burns `value` tokens owned by `msg.sender`.\n     * @param value amount of tokens to burn.\n     */\n    function burn(address from, uint256 value) external override onlyRoleHolder(uint256(Roles.Burner)) {\n        _burn(from, value);\n    }\n}\n",
  "sourcePath": "/mnt/d/HARMONY/GRANT-PROPOSAL/TEBS-APP/harmony-hack-main/contracts/contracts/utility/ExpandedERC20.sol",
  "compiler": {
    "name": "solc",
    "version": "0.6.3+commit.8dda9521.Emscripten.clang"
  },
  "schemaVersion": "3.4.1",
  "updatedAt": "2021-12-22T18:59:35.461Z",
  "devdoc": {
    "methods": {
      "addMember(uint256,address)": {
        "details": "Reverts if `roleId` does not represent an initialized, SharedRole or if the caller is not a member of the managing role for `roleId`.",
        "params": {
          "newMember": "the new SharedRole member.",
          "roleId": "the SharedRole membership to modify."
        }
      },
      "allowance(address,address)": {
        "details": "See {IERC20-allowance}."
      },
      "approve(address,uint256)": {
        "details": "See {IERC20-approve}.     * Requirements:     * - `spender` cannot be the zero address."
      },
      "balanceOf(address)": {
        "details": "See {IERC20-balanceOf}."
      },
      "burn(address,uint256)": {
        "details": "Burns `value` tokens owned by `msg.sender`.",
        "params": {
          "value": "amount of tokens to burn."
        }
      },
      "constructor": {
        "params": {
          "_tokenDecimals": "The number of decimals to define token precision.",
          "_tokenName": "The name which describes the new token.",
          "_tokenSymbol": "The ticker abbreviation of the name. Ideally < 5 chars."
        }
      },
      "decimals()": {
        "details": "Returns the number of decimals used to get its user representation. For example, if `decimals` equals `2`, a balance of `505` tokens should be displayed to a user as `5,05` (`505 / 10 ** 2`).     * Tokens usually opt for a value of 18, imitating the relationship between Ether and Wei. This is the value {ERC20} uses, unless {_setupDecimals} is called.     * NOTE: This information is only used for _display_ purposes: it in no way affects any of the arithmetic of the contract, including {IERC20-balanceOf} and {IERC20-transfer}."
      },
      "decreaseAllowance(address,uint256)": {
        "details": "Atomically decreases the allowance granted to `spender` by the caller.     * This is an alternative to {approve} that can be used as a mitigation for problems described in {IERC20-approve}.     * Emits an {Approval} event indicating the updated allowance.     * Requirements:     * - `spender` cannot be the zero address. - `spender` must have allowance for the caller of at least `subtractedValue`."
      },
      "getMember(uint256)": {
        "details": "Reverts if `roleId` does not represent an initialized, exclusive role.",
        "params": {
          "roleId": "the ExclusiveRole membership to check."
        },
        "returns": {
          "_0": "the address of the current ExclusiveRole member."
        }
      },
      "holdsRole(uint256,address)": {
        "details": "Reverts if roleId does not correspond to an initialized role.",
        "params": {
          "memberToCheck": "the address to check.",
          "roleId": "the Role to check."
        },
        "returns": {
          "_0": "True if `memberToCheck` is a member of `roleId`."
        }
      },
      "increaseAllowance(address,uint256)": {
        "details": "Atomically increases the allowance granted to `spender` by the caller.     * This is an alternative to {approve} that can be used as a mitigation for problems described in {IERC20-approve}.     * Emits an {Approval} event indicating the updated allowance.     * Requirements:     * - `spender` cannot be the zero address."
      },
      "mint(address,uint256)": {
        "details": "Mints `value` tokens to `recipient`, returning true on success.",
        "params": {
          "recipient": "address to mint to.",
          "value": "amount of tokens to mint."
        },
        "returns": {
          "_0": "True if the mint succeeded, or False."
        }
      },
      "name()": {
        "details": "Returns the name of the token."
      },
      "removeMember(uint256,address)": {
        "details": "Reverts if `roleId` does not represent an initialized, SharedRole or if the caller is not a member of the managing role for `roleId`.",
        "params": {
          "memberToRemove": "the current SharedRole member to remove.",
          "roleId": "the SharedRole membership to modify."
        }
      },
      "renounceMembership(uint256)": {
        "details": "Reverts if the caller is not a member of the role for `roleId` or if `roleId` is not an initialized, SharedRole.",
        "params": {
          "roleId": "the SharedRole membership to modify."
        }
      },
      "resetMember(uint256,address)": {
        "details": "Reverts if the caller is not a member of the managing role for `roleId` or if `roleId` is not an initialized, ExclusiveRole.",
        "params": {
          "newMember": "the new ExclusiveRole member.",
          "roleId": "the ExclusiveRole membership to modify."
        }
      },
      "symbol()": {
        "details": "Returns the symbol of the token, usually a shorter version of the name."
      },
      "totalSupply()": {
        "details": "See {IERC20-totalSupply}."
      },
      "transfer(address,uint256)": {
        "details": "See {IERC20-transfer}.     * Requirements:     * - `recipient` cannot be the zero address. - the caller must have a balance of at least `amount`."
      },
      "transferFrom(address,address,uint256)": {
        "details": "See {IERC20-transferFrom}.     * Emits an {Approval} event indicating the updated allowance. This is not required by the EIP. See the note at the beginning of {ERC20};     * Requirements: - `sender` and `recipient` cannot be the zero address. - `sender` must have a balance of at least `amount`. - the caller must have allowance for ``sender``'s tokens of at least `amount`."
      }
    },
    "title": "An ERC20 with permissioned burning and minting. The contract deployer will initially be the owner who is capable of adding new roles."
  },
  "userdoc": {
    "methods": {
      "addMember(uint256,address)": {
        "notice": "Adds `newMember` to the shared role, `roleId`."
      },
      "constructor": "Constructs the ExpandedERC20.",
      "getMember(uint256)": {
        "notice": "Gets the current holder of the exclusive role, `roleId`."
      },
      "holdsRole(uint256,address)": {
        "notice": "Whether `memberToCheck` is a member of roleId."
      },
      "removeMember(uint256,address)": {
        "notice": "Removes `memberToRemove` from the shared role, `roleId`."
      },
      "renounceMembership(uint256)": {
        "notice": "Removes caller from the role, `roleId`."
      },
      "resetMember(uint256,address)": {
        "notice": "Changes the exclusive role holder of `roleId` to `newMember`."
      }
    }
  }
}