{
  "contractName": "FundingCalculator",
  "abi": [
    {
      "inputs": [
        {
          "internalType": "address",
          "name": "_ammAddress",
          "type": "address"
        }
      ],
      "stateMutability": "nonpayable",
      "type": "constructor"
    },
    {
      "anonymous": false,
      "inputs": [
        {
          "indexed": true,
          "internalType": "address",
          "name": "previousOwner",
          "type": "address"
        },
        {
          "indexed": true,
          "internalType": "address",
          "name": "newOwner",
          "type": "address"
        }
      ],
      "name": "OwnershipTransferred",
      "type": "event"
    },
    {
      "inputs": [
        {
          "internalType": "address",
          "name": "_address",
          "type": "address"
        }
      ],
      "name": "addAddress",
      "outputs": [],
      "stateMutability": "nonpayable",
      "type": "function"
    },
    {
      "inputs": [],
      "name": "amm",
      "outputs": [
        {
          "internalType": "contract IAMM",
          "name": "",
          "type": "address"
        }
      ],
      "stateMutability": "view",
      "type": "function",
      "constant": true
    },
    {
      "inputs": [],
      "name": "emaAlpha",
      "outputs": [
        {
          "internalType": "int256",
          "name": "",
          "type": "int256"
        }
      ],
      "stateMutability": "view",
      "type": "function",
      "constant": true
    },
    {
      "inputs": [],
      "name": "emaAlpha2",
      "outputs": [
        {
          "internalType": "int256",
          "name": "",
          "type": "int256"
        }
      ],
      "stateMutability": "view",
      "type": "function",
      "constant": true
    },
    {
      "inputs": [],
      "name": "emaAlpha2Ln",
      "outputs": [
        {
          "internalType": "int256",
          "name": "",
          "type": "int256"
        }
      ],
      "stateMutability": "view",
      "type": "function",
      "constant": true
    },
    {
      "inputs": [],
      "name": "fundingDampener",
      "outputs": [
        {
          "internalType": "int256",
          "name": "",
          "type": "int256"
        }
      ],
      "stateMutability": "view",
      "type": "function",
      "constant": true
    },
    {
      "inputs": [],
      "name": "isOwner",
      "outputs": [
        {
          "internalType": "bool",
          "name": "",
          "type": "bool"
        }
      ],
      "stateMutability": "view",
      "type": "function",
      "constant": true
    },
    {
      "inputs": [
        {
          "internalType": "address",
          "name": "_address",
          "type": "address"
        }
      ],
      "name": "isWhitelisted",
      "outputs": [
        {
          "internalType": "bool",
          "name": "",
          "type": "bool"
        }
      ],
      "stateMutability": "view",
      "type": "function",
      "constant": true
    },
    {
      "inputs": [],
      "name": "markPremiumLimit",
      "outputs": [
        {
          "internalType": "int256",
          "name": "",
          "type": "int256"
        }
      ],
      "stateMutability": "view",
      "type": "function",
      "constant": true
    },
    {
      "inputs": [],
      "name": "owner",
      "outputs": [
        {
          "internalType": "address",
          "name": "",
          "type": "address"
        }
      ],
      "stateMutability": "view",
      "type": "function",
      "constant": true
    },
    {
      "inputs": [
        {
          "internalType": "address",
          "name": "_address",
          "type": "address"
        }
      ],
      "name": "removeAddress",
      "outputs": [],
      "stateMutability": "nonpayable",
      "type": "function"
    },
    {
      "inputs": [],
      "name": "renounceOwnership",
      "outputs": [],
      "stateMutability": "nonpayable",
      "type": "function"
    },
    {
      "inputs": [
        {
          "internalType": "address",
          "name": "newOwner",
          "type": "address"
        }
      ],
      "name": "transferOwnership",
      "outputs": [],
      "stateMutability": "nonpayable",
      "type": "function"
    },
    {
      "inputs": [],
      "name": "updateParams",
      "outputs": [],
      "stateMutability": "nonpayable",
      "type": "function"
    },
    {
      "inputs": [
        {
          "internalType": "address",
          "name": "_ammAddress",
          "type": "address"
        }
      ],
      "name": "updateAmm",
      "outputs": [],
      "stateMutability": "nonpayable",
      "type": "function"
    },
    {
      "inputs": [
        {
          "internalType": "int256",
          "name": "n",
          "type": "int256"
        },
        {
          "internalType": "int256",
          "name": "v0",
          "type": "int256"
        },
        {
          "internalType": "int256",
          "name": "_lastPremium",
          "type": "int256"
        },
        {
          "internalType": "int256",
          "name": "_lastIndexPrice",
          "type": "int256"
        }
      ],
      "name": "getAccumulatedFunding",
      "outputs": [
        {
          "internalType": "int256",
          "name": "vt",
          "type": "int256"
        },
        {
          "internalType": "int256",
          "name": "acc",
          "type": "int256"
        }
      ],
      "stateMutability": "view",
      "type": "function",
      "constant": true
    }
  ],
  "bytecode": "0x60806040523480156200001157600080fd5b506040516200246038038062002460833981810160405260208110156200003757600080fd5b50516000805460ff19166001178155620000596001600160e01b036200036b16565b60008054610100600160a81b0319166101006001600160a01b038416908102919091178255604051929350917f8be0079c531659141344cd1fd0a4f28419497f9722a3daafe3b4186f6b6457e0908290a350620000be6001600160e01b036200036f16565b620000d16001600160e01b03620003c916565b600780546001600160a01b0319166001600160a01b038316179055620000f733620003d5565b600760009054906101000a90046001600160a01b03166001600160a01b031663cf682c6a6040518163ffffffff1660e01b815260040160206040518083038186803b1580156200014657600080fd5b505afa1580156200015b573d6000803e3d6000fd5b505050506040513d60208110156200017257600080fd5b505160025560075460408051632c4ac11160e01b815290516001600160a01b0390921691632c4ac11191600480820192602092909190829003018186803b158015620001bd57600080fd5b505afa158015620001d2573d6000803e3d6000fd5b505050506040513d6020811015620001e957600080fd5b505160035560075460408051633b495ebf60e01b815290516001600160a01b0390921691633b495ebf91600480820192602092909190829003018186803b1580156200023457600080fd5b505afa15801562000249573d6000803e3d6000fd5b505050506040513d60208110156200026057600080fd5b50516004908155600754604080516373da22bf60e01b815290516001600160a01b03909216926373da22bf928282019260209290829003018186803b158015620002a957600080fd5b505afa158015620002be573d6000803e3d6000fd5b505050506040513d6020811015620002d557600080fd5b50516005556007546040805163b3fe37c360e01b815290516001600160a01b039092169163b3fe37c391600480820192602092909190829003018186803b1580156200032057600080fd5b505afa15801562000335573d6000803e3d6000fd5b505050506040513d60208110156200034c57600080fd5b5051600655620003646001600160e01b03620004d516565b506200050f565b3390565b60005460ff16620003c7576040805162461bcd60e51b815260206004820152601f60248201527f5265656e7472616e637947756172643a207265656e7472616e742063616c6c00604482015290519081900360640190fd5b565b6000805460ff19169055565b620003e86001600160e01b03620004e416565b6200043a576040805162461bcd60e51b815260206004820181905260248201527f4f776e61626c653a2063616c6c6572206973206e6f7420746865206f776e6572604482015290519081900360640190fd5b806001600160a01b038116620004825760405162461bcd60e51b8152600401808060200182810382526027815260200180620024396027913960400191505060405180910390fd5b6001600160a01b03821660009081526001602052604090205460ff1615620004aa57620004d1565b6001600160a01b0382166000908152600160208190526040909120805460ff191690911790555b5050565b6000805460ff19166001179055565b6000805461010090046001600160a01b0316620005006200036b565b6001600160a01b031614905090565b611f1a806200051f6000396000f3fe608060405234801561001057600080fd5b50600436106101005760003560e01c8063734b247211610097578063b3fe37c311610066578063b3fe37c314610261578063cef3262814610269578063cf682c6a14610271578063f2fde38b1461027957610100565b8063734b24721461022357806373da22bf146102495780638da5cb5b146102515780638f32d59b1461025957610100565b80633b495ebf116100d35780633b495ebf146101a55780634ba79dfe146101ad5780635e035d9c146101d3578063715018a61461021b57610100565b80632a943945146101055780632c4ac1111461012957806338eada1c146101435780633af32abf1461016b575b600080fd5b61010d61029f565b604080516001600160a01b039092168252519081900360200190f35b6101316102ae565b60408051918252519081900360200190f35b6101696004803603602081101561015957600080fd5b50356001600160a01b03166102b4565b005b6101916004803603602081101561018157600080fd5b50356001600160a01b0316610392565b604080519115158252519081900360200190f35b6101316103b4565b610169600480360360208110156101c357600080fd5b50356001600160a01b03166103ba565b610202600480360360808110156101e957600080fd5b508035906020810135906040810135906060013561044a565b6040805192835260208301919091528051918290030190f35b610169610fc5565b6101696004803603602081101561023957600080fd5b50356001600160a01b031661105b565b6101316110d2565b61010d6110d8565b6101916110ec565b610131611115565b61016961111b565b6101316113bd565b6101696004803603602081101561028f57600080fd5b50356001600160a01b03166113c3565b6007546001600160a01b031681565b60035481565b6102bc6110ec565b6102fb576040805162461bcd60e51b81526020600482018190526024820152600080516020611ec5833981519152604482015290519081900360640190fd5b806001600160a01b0381166103415760405162461bcd60e51b8152600401808060200182810382526027815260200180611e566027913960400191505060405180910390fd5b6001600160a01b03821660009081526001602052604090205460ff16156103675761038e565b6001600160a01b0382166000908152600160208190526040909120805460ff191690911790555b5050565b6001600160a01b03811660009081526001602052604090205460ff165b919050565b60045481565b6103c26110ec565b610401576040805162461bcd60e51b81526020600482018190526024820152600080516020611ec5833981519152604482015290519081900360640190fd5b6001600160a01b03811660009081526001602052604090205460ff1661042657610447565b6001600160a01b0381166000908152600160205260409020805460ff191690555b50565b600080600086136104a2576040805162461bcd60e51b815260206004820152601860248201527f77652063616e277420676f206261636b20696e2074696d650000000000000000604482015290519081900360640190fd5b6104aa611e1f565b6104ba868663ffffffff61141316565b92506104e16104d48860045461148e90919063ffffffff16565b849063ffffffff61153916565b92506104f3838663ffffffff61156e16565b600254909350610509908563ffffffff61153916565b815260065461051e908563ffffffff61153916565b60208201528051600003861361084f578051600003831361056e576105678761055b8360200151846000015160000361156e90919063ffffffff16565b9063ffffffff6115dd16565b915061084a565b806020015160000383136105e957805161058c9060000387876116a8565b6040820181905281516105ab916000919091039063ffffffff6115dd16565b91506105cd6105c08260400151898989611835565b839063ffffffff61156e16565b91506105676105c08883602001516115dd90919063ffffffff16565b806020015183136106775780516106049060000387876116a8565b6040820152602081015161061c9060000387876116a8565b60608201526040810151815161063e916000919091039063ffffffff6115dd16565b91506106576105c0826040015183606001518989611835565b91506105676105c0826060015183602001516115dd90919063ffffffff16565b8051831361075057805161068f9060000387876116a8565b604082015260208101516106a79060000387876116a8565b606082015260208101516106bc9087876116a8565b6080820152604081015181516106de916000919091039063ffffffff6115dd16565b91506106f76105c0826040015183606001518989611835565b915061070c6105c08260800151898989611835565b91506105676105c061073f83608001516107338b866060015161141390919063ffffffff16565b9063ffffffff61156e16565b60208401519063ffffffff6115dd16565b80516107609060000387876116a8565b604082015260208101516107789060000387876116a8565b6060820152602081015161078d9087876116a8565b6080820152805161079f9087876116a8565b60a0820152604081015181516107c1916000919091039063ffffffff6115dd16565b91506107da6105c0826040015183606001518989611835565b91506107f36105c082608001518360a001518989611835565b91506108206105c06108128360a001518a61141390919063ffffffff16565b83519063ffffffff6115dd16565b91506108476105c061073f83608001516107338b866060015161141390919063ffffffff16565b91505b610fbb565b806020015160000386136109a257805160000383136108bd5780516108789060000387876116a8565b60a0820181905261088d906000908888611835565b91506105cd6105c06108ac8360a001518a61141390919063ffffffff16565b83516000039063ffffffff6115dd16565b806020015160000383136108d8576105cd6000888888611835565b8060200151831361090a576108f5816020015160000387876116a8565b60608201819052610657906000908888611835565b8051831361095157610924816020015160000387876116a8565b606082015260208101516109399087876116a8565b608082015260608101516106f7906000908888611835565b610963816020015160000387876116a8565b606082015260208101516109789087876116a8565b6080820152805161098a9087876116a8565b60a082015260608101516107da906000908888611835565b80602001518613610b475780516000038313610a34576109ca816020015160000387876116a8565b608082015280516109df9060000387876116a8565b60a0820181905260808201516109f6918888611835565b9150610a156105c06108ac8360a001518a61141390919063ffffffff16565b91506105676105c061073f83608001518a61141390919063ffffffff16565b80602001516000038313610a6757610a54816020015160000387876116a8565b60808201819052610a1590888888611835565b80602001518313610a7b576000915061084a565b80518313610ad157610a92816020015187876116a8565b60808201819052610aa590888888611835565b9150610567610ac461073f83608001518a61141390919063ffffffff16565b839063ffffffff61141316565b610ae0816020015187876116a8565b60808201528051610af29087876116a8565b60a082018190526080820151610b09918888611835565b9150610b286105c06108128360a001518a61141390919063ffffffff16565b9150610847610ac461073f83608001518a61141390919063ffffffff16565b80518613610d585780516000038313610c1957610b69816020015187876116a8565b60608201526020810151610b819060000387876116a8565b60808201528051610b969060000387876116a8565b60a08201526060810151610bae906000908888611835565b9150610bc76105c082608001518360a001518989611835565b9150610be66105c06108ac8360a001518a61141390919063ffffffff16565b91506105676105c061073f8360600151610c0d85608001518c61141390919063ffffffff16565b9063ffffffff61141316565b80602001516000038313610c7b57610c36816020015187876116a8565b60608201526020810151610c4e9060000387876116a8565b60808201526060810151610c66906000908888611835565b9150610be66105c08260800151898989611835565b80602001518313610cca57610c95816020015187876116a8565b60608201819052610caa906000908888611835565b9150610567610ac4826060015183602001516115dd90919063ffffffff16565b80518313610cfb57610cdf6000888888611835565b9150610567610ac48883602001516115dd90919063ffffffff16565b8051610d089087876116a8565b60a08201819052610d1d906000908888611835565b9150610d3c6105c06108128360a001518a61141390919063ffffffff16565b9150610847610ac48883602001516115dd90919063ffffffff16565b80516000038313610e45578051610d709087876116a8565b60408201526020810151610d859087876116a8565b60608201526020810151610d9d9060000387876116a8565b60808201528051610db29060000387876116a8565b60a082015260408101518151610dcd9163ffffffff6115dd16565b9150610de66105c0826040015183606001518989611835565b9150610dff6105c082608001518360a001518989611835565b9150610e1e6105c06108ac8360a001518a61141390919063ffffffff16565b91506108476105c061073f8360600151610c0d85608001518c61141390919063ffffffff16565b80602001516000038313610ed6578051610e609087876116a8565b60408201526020810151610e759087876116a8565b60608201526020810151610e8d9060000387876116a8565b608082015260408101518151610ea89163ffffffff6115dd16565b9150610ec16105c0826040015183606001518989611835565b9150610e1e6105c08260800151898989611835565b80602001518313610f5a578051610eee9087876116a8565b60408201526020810151610f039087876116a8565b606082015260408101518151610f1e9163ffffffff6115dd16565b9150610f376105c0826040015183606001518989611835565b91506108476105c0826060015160000383602001516115dd90919063ffffffff16565b80518313610f9c578051610f6f9087876116a8565b604082018190528151610f879163ffffffff6115dd16565b9150610d3c6105c08260400151898989611835565b60208101518151610fb891899161055b9163ffffffff61141316565b91505b5094509492505050565b610fcd6110ec565b61100c576040805162461bcd60e51b81526020600482018190526024820152600080516020611ec5833981519152604482015290519081900360640190fd5b600080546040516101009091046001600160a01b0316907f8be0079c531659141344cd1fd0a4f28419497f9722a3daafe3b4186f6b6457e0908390a360008054610100600160a81b0319169055565b6000611065611920565b905061107081610392565b6110af576040805162461bcd60e51b81526020600482018190526024820152600080516020611ec5833981519152604482015290519081900360640190fd5b50600780546001600160a01b0319166001600160a01b0392909216919091179055565b60055481565b60005461010090046001600160a01b031690565b6000805461010090046001600160a01b0316611106611920565b6001600160a01b031614905090565b60065481565b6000611125611920565b905061113081610392565b61116f576040805162461bcd60e51b81526020600482018190526024820152600080516020611ec5833981519152604482015290519081900360640190fd5b600760009054906101000a90046001600160a01b03166001600160a01b031663cf682c6a6040518163ffffffff1660e01b815260040160206040518083038186803b1580156111bd57600080fd5b505afa1580156111d1573d6000803e3d6000fd5b505050506040513d60208110156111e757600080fd5b505160025560075460408051632c4ac11160e01b815290516001600160a01b0390921691632c4ac11191600480820192602092909190829003018186803b15801561123157600080fd5b505afa158015611245573d6000803e3d6000fd5b505050506040513d602081101561125b57600080fd5b505160035560075460408051633b495ebf60e01b815290516001600160a01b0390921691633b495ebf91600480820192602092909190829003018186803b1580156112a557600080fd5b505afa1580156112b9573d6000803e3d6000fd5b505050506040513d60208110156112cf57600080fd5b50516004908155600754604080516373da22bf60e01b815290516001600160a01b03909216926373da22bf928282019260209290829003018186803b15801561131757600080fd5b505afa15801561132b573d6000803e3d6000fd5b505050506040513d602081101561134157600080fd5b50516005556007546040805163b3fe37c360e01b815290516001600160a01b039092169163b3fe37c391600480820192602092909190829003018186803b15801561138b57600080fd5b505afa15801561139f573d6000803e3d6000fd5b505050506040513d60208110156113b557600080fd5b505160065550565b60025481565b6113cb6110ec565b61140a576040805162461bcd60e51b81526020600482018190526024820152600080516020611ec5833981519152604482015290519081900360640190fd5b61044781611924565b60008183038183128015906114285750838113155b8061143d575060008312801561143d57508381135b611485576040805162461bcd60e51b81526020600482015260146024820152737375627472616374696f6e206f766572666c6f7760601b604482015290519081900360640190fd5b90505b92915050565b6000808212156114e5576040805162461bcd60e51b815260206004820152601a60248201527f77706f7769206f6e6c7920737570706f727473206e203e3d2030000000000000604482015290519081900360640190fd5b600282076114fb57670de0b6b3a76400006114fd565b825b90506002820591505b8115611488576115168384611539565b9250600282071561152e5761152b8184611539565b90505b600282059150611506565b6000670de0b6b3a764000061155f61155185856115dd565b670de0b6b3a76400006119cf565b8161156657fe5b059392505050565b60008282018183128015906115835750838112155b80611598575060008312801561159857508381125b611485576040805162461bcd60e51b81526020600482015260116024820152706164646974696f6e206f766572666c6f7760781b604482015290519081900360640190fd5b6000826115ec57506000611488565b826000191480156116005750600160ff1b82145b1561164d576040805162461bcd60e51b8152602060048201526018602482015277776d756c7469706c69636174696f6e206f766572666c6f7760401b604482015290519081900360640190fd5b8282028284828161165a57fe5b0514611485576040805162461bcd60e51b8152602060048201526018602482015277776d756c7469706c69636174696f6e206f766572666c6f7760401b604482015290519081900360640190fd5b6000818414156116ff576040805162461bcd60e51b815260206004820152601e60248201527f6e6f20736f6c7574696f6e2031206f6e2066756e64696e672063757276650000604482015290519081900360640190fd5b61170f848363ffffffff61141316565b9050611731611724848463ffffffff61141316565b829063ffffffff611a4e16565b905060008113611788576040805162461bcd60e51b815260206004820152601e60248201527f6e6f20736f6c7574696f6e2032206f6e2066756e64696e672063757276650000604482015290519081900360640190fd5b611790611a81565b81126117e3576040805162461bcd60e51b815260206004820152601e60248201527f6e6f20736f6c7574696f6e2033206f6e2066756e64696e672063757276650000604482015290519081900360640190fd5b6117ec81611a8d565b905061180360055482611a4e90919063ffffffff16565b905061180d611a81565b611825611818611a81565b839063ffffffff611d6816565b8161182c57fe5b05949350505050565b600083851315611881576040805162461bcd60e51b81526020600482015260126024820152711a5b9d1959dc985d19481c995d995c9cd95960721b604482015290519081900360640190fd5b611891838363ffffffff61141316565b90506118ce6118c16118ae8660045461148e90919063ffffffff16565b600454610c0d908963ffffffff61148e16565b829063ffffffff61153916565b90506118e560035482611a4e90919063ffffffff16565b905061191761190a6118fd868863ffffffff61141316565b849063ffffffff6115dd16565b829063ffffffff61156e16565b95945050505050565b3390565b6001600160a01b0381166119695760405162461bcd60e51b8152600401808060200182810382526026815260200180611e7d6026913960400191505060405180910390fd5b600080546040516001600160a01b038085169361010090930416917f8be0079c531659141344cd1fd0a4f28419497f9722a3daafe3b4186f6b6457e091a3600080546001600160a01b0390921661010002610100600160a81b0319909216919091179055565b6000808213611a25576040805162461bcd60e51b815260206004820152601f60248201527f726f756e6448616c665570206f6e6c7920737570706f7274732079203e203000604482015290519081900360640190fd5b60008312611a4157611a3a836002840561156e565b9050611488565b6114858360028405611413565b600080821215611a65578160000391508260000392505b8161155f611a7b85670de0b6b3a76400006115dd565b846119cf565b670de0b6b3a764000090565b6000808213611ae3576040805162461bcd60e51b815260206004820152601760248201527f6c6f6745206f66206e65676174697665206e756d626572000000000000000000604482015290519081900360640190fd5b701d6329f1c35ca4bfabb9f5610000000000821315611b335760405162461bcd60e51b8152600401808060200182810382526022815260200180611ea36022913960400191505060405180910390fd5b60006012670de0b6b3a76400005b67016345785d8a00008513611b705784600a0294506f01bb7635c5de48ef4ce5b7b41cc43db083039250611b41565b678ac7230489e800008512611b9f57600a850594506f01bb7635c5de48ef4ce5b7b41cc43db083019250611b70565b670de0b6b3a7640000851215611bdc57611bc1856725b946ebc0b36173611539565b94506ec097ce7bc90715b34b9f100000000083039250611b9f565b6725b946ebc0b36173851315611c1957611bfe856725b946ebc0b36173611a4e565b94506ec097ce7bc90715b34b9f100000000083019250611bdc565b670de0b6b3a7640000851415611c465780611c3484836119cf565b81611c3b57fe5b0593505050506103af565b6725b946ebc0b36173851415611c7d5780611c6184836119cf565b81611c6857fe5b05670de0b6b3a76400000193505050506103af565b938402936e4e16f927cdca7f15b39123f740f5d192909201916f0120e3b5b9ad8aa08cf16e980000000060008187016ec097ce7bc90715b34b9f10000000006f0120e3b5b9ad8aa08cf16e97ffffffff1989010281611cd857fe5b059050806002028501945060006ec097ce7bc90715b34b9f100000000082830281611cff57fe5b05905060035b6ec097ce7bc90715b34b9f10000000008383020592508060ff168360020281611d2a57fe5b059690960195600201602760ff821610611d4357611d48565b611d05565b84611d5388876119cf565b81611d5a57fe5b059998505050505050505050565b600080831215611db2576040805162461bcd60e51b815260206004820152601060248201526f06365696c206e6565642078203e3d20360841b604482015290519081900360640190fd5b60008213611df9576040805162461bcd60e51b815260206004820152600f60248201526e06365696c206e656564206d203e203608c1b604482015290519081900360640190fd5b8182611e0f611e08868661156e565b6001611413565b81611e1657fe5b05029392505050565b6040518060c00160405280600081526020016000815260200160008152602001600081526020016000815260200160008152509056fe76616c69646174657320616e206164647265737320746861742069742069736e2774206e756c6c4f776e61626c653a206e6577206f776e657220697320746865207a65726f20616464726573736c6f6745206f6e6c7920616363657074732076203c3d2031653232202a20316531384f776e61626c653a2063616c6c6572206973206e6f7420746865206f776e6572a264697066735822122020a4dc1ab1b41457f2def0a1a1dc5e7a5edf514d31dafdf0a2973cd0c346c6d064736f6c6343000603003376616c69646174657320616e206164647265737320746861742069742069736e2774206e756c6c",
  "source": "pragma solidity ^0.6.0;\n\nimport \"./utility/Lockable.sol\";\nimport \"./utility/SafeMath.sol\";\nimport \"./utility/LibMathSigned.sol\";\nimport \"./utility/Address.sol\";\nimport \"./utility/Types.sol\";\nimport \"./utility/Whitelist.sol\";\n\ninterface IAMM {\n    function markPremiumLimit() external view returns (int256);\n\n    function emaAlpha() external  view returns (int256);\n\n    function emaAlpha2() external view returns (int256);\n\n    function emaAlpha2Ln() external view returns (int256);\n\n    function fundingDampener() external view returns (int256);\n}\n\n\ncontract FundingCalculator is Lockable, Whitelist {\n    using SafeMath for uint256;\n    using LibMathSigned for int256;\n    using Address for address;\n\n    int256 public markPremiumLimit;\n\n    int256 public emaAlpha;\n    int256 public emaAlpha2;\n    int256 public emaAlpha2Ln;\n    int256 public fundingDampener;\n\n    /**\n     * @notice The intermediate variables required by getAccumulatedFunding. This is only used to move stack\n     *         variables to storage variables.\n     */\n    struct AccumulatedFundingCalculator {\n        int256 vLimit;\n        int256 vDampener;\n        int256 t1; // normal int, not WAD\n        int256 t2; // normal int, not WAD\n        int256 t3; // normal int, not WAD\n        int256 t4; // normal int, not WAD\n    }\n\n    IAMM public amm;\n\n    constructor(\n        address _ammAddress\n    ) public nonReentrant() {\n        amm = IAMM(_ammAddress);\n\n        addAddress(msg.sender);\n        markPremiumLimit = amm.markPremiumLimit();\n        emaAlpha = amm.emaAlpha();\n        emaAlpha2 = amm.emaAlpha2();\n        emaAlpha2Ln = amm.emaAlpha2Ln();\n        fundingDampener = amm.fundingDampener();\n\n    }\n\n    function updateParams() external onlyWhitelisted() {\n        markPremiumLimit = amm.markPremiumLimit();\n        emaAlpha = amm.emaAlpha();\n        emaAlpha2 = amm.emaAlpha2();\n        emaAlpha2Ln = amm.emaAlpha2Ln();\n        fundingDampener = amm.fundingDampener();\n    }\n\n    function updateAmm(address _ammAddress) external onlyWhitelisted() {\n        amm = IAMM(_ammAddress);\n    }\n\n    function timeOnFundingCurve(\n        int256 y,\n        int256 v0,\n        int256 _lastPremium\n    )\n        internal\n        view\n        returns (\n            int256 t // normal int, not WAD\n        )\n    {\n        require(y != _lastPremium, \"no solution 1 on funding curve\");\n        t = y.sub(_lastPremium);\n        t = t.wdiv(v0.sub(_lastPremium));\n        require(t > 0, \"no solution 2 on funding curve\");\n        require(t < LibMathSigned.WAD(), \"no solution 3 on funding curve\");\n        t = t.wln();\n        t = t.wdiv(emaAlpha2Ln);\n        t = t.ceil(LibMathSigned.WAD()) / LibMathSigned.WAD();\n    }\n\n    /**\n     * @notice Sum emaPremium curve between [x, y)\n     *\n     * @param x Begin time. normal int, not WAD.\n     * @param y End time. normal int, not WAD.\n     * @param v0 LastEMAPremium.\n     * @param _lastPremium LastPremium.\n     */\n    function integrateOnFundingCurve(\n        int256 x,\n        int256 y,\n        int256 v0,\n        int256 _lastPremium\n    ) internal view returns (int256 r) {\n        require(x <= y, \"integrate reversed\");\n        r = v0.sub(_lastPremium);\n        r = r.wmul(emaAlpha2.wpowi(x).sub(emaAlpha2.wpowi(y)));\n        r = r.wdiv(emaAlpha);\n        r = r.add(_lastPremium.mul(y.sub(x)));\n    }\n\n    function getAccumulatedFunding(\n        int256 n,\n        int256 v0,\n        int256 _lastPremium,\n        int256 _lastIndexPrice\n    )\n        external\n        view\n        returns (\n            int256 vt, // new LastEMAPremium\n            int256 acc\n        )\n    {\n        require(n > 0, \"we can't go back in time\");\n\n        AccumulatedFundingCalculator memory ctx;\n        vt = v0.sub(_lastPremium);\n        vt = vt.wmul(emaAlpha2.wpowi(n));\n        vt = vt.add(_lastPremium);\n        ctx.vLimit = markPremiumLimit.wmul(_lastIndexPrice);\n        ctx.vDampener = fundingDampener.wmul(_lastIndexPrice);\n        if (v0 <= -ctx.vLimit) {\n            // part A\n            if (vt <= -ctx.vLimit) {\n                acc = (-ctx.vLimit).add(ctx.vDampener).mul(n);\n            } else if (vt <= -ctx.vDampener) {\n                ctx.t1 = timeOnFundingCurve(-ctx.vLimit, v0, _lastPremium);\n                acc = (-ctx.vLimit).mul(ctx.t1);\n                acc = acc.add(integrateOnFundingCurve(ctx.t1, n, v0, _lastPremium));\n                acc = acc.add(ctx.vDampener.mul(n));\n            } else if (vt <= ctx.vDampener) {\n                ctx.t1 = timeOnFundingCurve(-ctx.vLimit, v0, _lastPremium);\n                ctx.t2 = timeOnFundingCurve(-ctx.vDampener, v0, _lastPremium);\n                acc = (-ctx.vLimit).mul(ctx.t1);\n                acc = acc.add(integrateOnFundingCurve(ctx.t1, ctx.t2, v0, _lastPremium));\n                acc = acc.add(ctx.vDampener.mul(ctx.t2));\n            } else if (vt <= ctx.vLimit) {\n                ctx.t1 = timeOnFundingCurve(-ctx.vLimit, v0, _lastPremium);\n                ctx.t2 = timeOnFundingCurve(-ctx.vDampener, v0, _lastPremium);\n                ctx.t3 = timeOnFundingCurve(ctx.vDampener, v0, _lastPremium);\n                acc = (-ctx.vLimit).mul(ctx.t1);\n                acc = acc.add(integrateOnFundingCurve(ctx.t1, ctx.t2, v0, _lastPremium));\n                acc = acc.add(integrateOnFundingCurve(ctx.t3, n, v0, _lastPremium));\n                acc = acc.add(ctx.vDampener.mul(ctx.t2.sub(n).add(ctx.t3)));\n            } else {\n                ctx.t1 = timeOnFundingCurve(-ctx.vLimit, v0, _lastPremium);\n                ctx.t2 = timeOnFundingCurve(-ctx.vDampener, v0, _lastPremium);\n                ctx.t3 = timeOnFundingCurve(ctx.vDampener, v0, _lastPremium);\n                ctx.t4 = timeOnFundingCurve(ctx.vLimit, v0, _lastPremium);\n                acc = (-ctx.vLimit).mul(ctx.t1);\n                acc = acc.add(integrateOnFundingCurve(ctx.t1, ctx.t2, v0, _lastPremium));\n                acc = acc.add(integrateOnFundingCurve(ctx.t3, ctx.t4, v0, _lastPremium));\n                acc = acc.add(ctx.vLimit.mul(n.sub(ctx.t4)));\n                acc = acc.add(ctx.vDampener.mul(ctx.t2.sub(n).add(ctx.t3)));\n            }\n        } else if (v0 <= -ctx.vDampener) {\n            // part B\n            if (vt <= -ctx.vLimit) {\n                ctx.t4 = timeOnFundingCurve(-ctx.vLimit, v0, _lastPremium);\n                acc = integrateOnFundingCurve(0, ctx.t4, v0, _lastPremium);\n                acc = acc.add((-ctx.vLimit).mul(n.sub(ctx.t4)));\n                acc = acc.add(ctx.vDampener.mul(n));\n            } else if (vt <= -ctx.vDampener) {\n                acc = integrateOnFundingCurve(0, n, v0, _lastPremium);\n                acc = acc.add(ctx.vDampener.mul(n));\n            } else if (vt <= ctx.vDampener) {\n                ctx.t2 = timeOnFundingCurve(-ctx.vDampener, v0, _lastPremium);\n                acc = integrateOnFundingCurve(0, ctx.t2, v0, _lastPremium);\n                acc = acc.add(ctx.vDampener.mul(ctx.t2));\n            } else if (vt <= ctx.vLimit) {\n                ctx.t2 = timeOnFundingCurve(-ctx.vDampener, v0, _lastPremium);\n                ctx.t3 = timeOnFundingCurve(ctx.vDampener, v0, _lastPremium);\n                acc = integrateOnFundingCurve(0, ctx.t2, v0, _lastPremium);\n                acc = acc.add(integrateOnFundingCurve(ctx.t3, n, v0, _lastPremium));\n                acc = acc.add(ctx.vDampener.mul(ctx.t2.sub(n).add(ctx.t3)));\n            } else {\n                ctx.t2 = timeOnFundingCurve(-ctx.vDampener, v0, _lastPremium);\n                ctx.t3 = timeOnFundingCurve(ctx.vDampener, v0, _lastPremium);\n                ctx.t4 = timeOnFundingCurve(ctx.vLimit, v0, _lastPremium);\n                acc = integrateOnFundingCurve(0, ctx.t2, v0, _lastPremium);\n                acc = acc.add(integrateOnFundingCurve(ctx.t3, ctx.t4, v0, _lastPremium));\n                acc = acc.add(ctx.vLimit.mul(n.sub(ctx.t4)));\n                acc = acc.add(ctx.vDampener.mul(ctx.t2.sub(n).add(ctx.t3)));\n            }\n        } else if (v0 <= ctx.vDampener) {\n            // part C\n            if (vt <= -ctx.vLimit) {\n                ctx.t3 = timeOnFundingCurve(-ctx.vDampener, v0, _lastPremium);\n                ctx.t4 = timeOnFundingCurve(-ctx.vLimit, v0, _lastPremium);\n                acc = integrateOnFundingCurve(ctx.t3, ctx.t4, v0, _lastPremium);\n                acc = acc.add((-ctx.vLimit).mul(n.sub(ctx.t4)));\n                acc = acc.add(ctx.vDampener.mul(n.sub(ctx.t3)));\n            } else if (vt <= -ctx.vDampener) {\n                ctx.t3 = timeOnFundingCurve(-ctx.vDampener, v0, _lastPremium);\n                acc = integrateOnFundingCurve(ctx.t3, n, v0, _lastPremium);\n                acc = acc.add(ctx.vDampener.mul(n.sub(ctx.t3)));\n            } else if (vt <= ctx.vDampener) {\n                acc = 0;\n            } else if (vt <= ctx.vLimit) {\n                ctx.t3 = timeOnFundingCurve(ctx.vDampener, v0, _lastPremium);\n                acc = integrateOnFundingCurve(ctx.t3, n, v0, _lastPremium);\n                acc = acc.sub(ctx.vDampener.mul(n.sub(ctx.t3)));\n            } else {\n                ctx.t3 = timeOnFundingCurve(ctx.vDampener, v0, _lastPremium);\n                ctx.t4 = timeOnFundingCurve(ctx.vLimit, v0, _lastPremium);\n                acc = integrateOnFundingCurve(ctx.t3, ctx.t4, v0, _lastPremium);\n                acc = acc.add(ctx.vLimit.mul(n.sub(ctx.t4)));\n                acc = acc.sub(ctx.vDampener.mul(n.sub(ctx.t3)));\n            }\n        } else if (v0 <= ctx.vLimit) {\n            // part D\n            if (vt <= -ctx.vLimit) {\n                ctx.t2 = timeOnFundingCurve(ctx.vDampener, v0, _lastPremium);\n                ctx.t3 = timeOnFundingCurve(-ctx.vDampener, v0, _lastPremium);\n                ctx.t4 = timeOnFundingCurve(-ctx.vLimit, v0, _lastPremium);\n                acc = integrateOnFundingCurve(0, ctx.t2, v0, _lastPremium);\n                acc = acc.add(integrateOnFundingCurve(ctx.t3, ctx.t4, v0, _lastPremium));\n                acc = acc.add((-ctx.vLimit).mul(n.sub(ctx.t4)));\n                acc = acc.add(ctx.vDampener.mul(n.sub(ctx.t3).sub(ctx.t2)));\n            } else if (vt <= -ctx.vDampener) {\n                ctx.t2 = timeOnFundingCurve(ctx.vDampener, v0, _lastPremium);\n                ctx.t3 = timeOnFundingCurve(-ctx.vDampener, v0, _lastPremium);\n                acc = integrateOnFundingCurve(0, ctx.t2, v0, _lastPremium);\n                acc = acc.add(integrateOnFundingCurve(ctx.t3, n, v0, _lastPremium));\n                acc = acc.add(ctx.vDampener.mul(n.sub(ctx.t3).sub(ctx.t2)));\n            } else if (vt <= ctx.vDampener) {\n                ctx.t2 = timeOnFundingCurve(ctx.vDampener, v0, _lastPremium);\n                acc = integrateOnFundingCurve(0, ctx.t2, v0, _lastPremium);\n                acc = acc.sub(ctx.vDampener.mul(ctx.t2));\n            } else if (vt <= ctx.vLimit) {\n                acc = integrateOnFundingCurve(0, n, v0, _lastPremium);\n                acc = acc.sub(ctx.vDampener.mul(n));\n            } else {\n                ctx.t4 = timeOnFundingCurve(ctx.vLimit, v0, _lastPremium);\n                acc = integrateOnFundingCurve(0, ctx.t4, v0, _lastPremium);\n                acc = acc.add(ctx.vLimit.mul(n.sub(ctx.t4)));\n                acc = acc.sub(ctx.vDampener.mul(n));\n            }\n        } else {\n            // part E\n            if (vt <= -ctx.vLimit) {\n                ctx.t1 = timeOnFundingCurve(ctx.vLimit, v0, _lastPremium);\n                ctx.t2 = timeOnFundingCurve(ctx.vDampener, v0, _lastPremium);\n                ctx.t3 = timeOnFundingCurve(-ctx.vDampener, v0, _lastPremium);\n                ctx.t4 = timeOnFundingCurve(-ctx.vLimit, v0, _lastPremium);\n                acc = ctx.vLimit.mul(ctx.t1);\n                acc = acc.add(integrateOnFundingCurve(ctx.t1, ctx.t2, v0, _lastPremium));\n                acc = acc.add(integrateOnFundingCurve(ctx.t3, ctx.t4, v0, _lastPremium));\n                acc = acc.add((-ctx.vLimit).mul(n.sub(ctx.t4)));\n                acc = acc.add(ctx.vDampener.mul(n.sub(ctx.t3).sub(ctx.t2)));\n            } else if (vt <= -ctx.vDampener) {\n                ctx.t1 = timeOnFundingCurve(ctx.vLimit, v0, _lastPremium);\n                ctx.t2 = timeOnFundingCurve(ctx.vDampener, v0, _lastPremium);\n                ctx.t3 = timeOnFundingCurve(-ctx.vDampener, v0, _lastPremium);\n                acc = ctx.vLimit.mul(ctx.t1);\n                acc = acc.add(integrateOnFundingCurve(ctx.t1, ctx.t2, v0, _lastPremium));\n                acc = acc.add(integrateOnFundingCurve(ctx.t3, n, v0, _lastPremium));\n                acc = acc.add(ctx.vDampener.mul(n.sub(ctx.t3).sub(ctx.t2)));\n            } else if (vt <= ctx.vDampener) {\n                ctx.t1 = timeOnFundingCurve(ctx.vLimit, v0, _lastPremium);\n                ctx.t2 = timeOnFundingCurve(ctx.vDampener, v0, _lastPremium);\n                acc = ctx.vLimit.mul(ctx.t1);\n                acc = acc.add(integrateOnFundingCurve(ctx.t1, ctx.t2, v0, _lastPremium));\n                acc = acc.add(ctx.vDampener.mul(-ctx.t2));\n            } else if (vt <= ctx.vLimit) {\n                ctx.t1 = timeOnFundingCurve(ctx.vLimit, v0, _lastPremium);\n                acc = ctx.vLimit.mul(ctx.t1);\n                acc = acc.add(integrateOnFundingCurve(ctx.t1, n, v0, _lastPremium));\n                acc = acc.sub(ctx.vDampener.mul(n));\n            } else {\n                acc = ctx.vLimit.sub(ctx.vDampener).mul(n);\n            }\n        }\n    } // getAccumulatedFunding\n\n}",
  "sourcePath": "/mnt/d/HARMONY/GRANT-PROPOSAL/TEBS-APP/harmony-hack-main/contracts/contracts/FundingCalculator.sol",
  "compiler": {
    "name": "solc",
    "version": "0.6.3+commit.8dda9521.Emscripten.clang"
  },
  "schemaVersion": "3.4.1",
  "updatedAt": "2021-12-22T19:05:45.573Z",
  "networkType": "ethereum",
  "devdoc": {
    "methods": {
      "addAddress(address)": {
        "details": "adds a given address to the whitelist ",
        "params": {
          "_address": "address to add"
        }
      },
      "isOwner()": {
        "details": "Returns true if the caller is the current owner."
      },
      "isWhitelisted(address)": {
        "details": "returns true if a given address is whitelisted, false if not ",
        "params": {
          "_address": "address to check "
        },
        "returns": {
          "_0": "true if the address is whitelisted, false if not"
        }
      },
      "owner()": {
        "details": "Returns the address of the current owner."
      },
      "removeAddress(address)": {
        "details": "removes a given address from the whitelist ",
        "params": {
          "_address": "address to remove"
        }
      },
      "renounceOwnership()": {
        "details": "Leaves the contract without owner. It will not be possible to call `onlyOwner` functions anymore. Can only be called by the current owner.     * NOTE: Renouncing ownership will leave the contract without an owner, thereby removing any functionality that is only available to the owner."
      },
      "transferOwnership(address)": {
        "details": "Transfers ownership of the contract to a new account (`newOwner`). Can only be called by the current owner."
      }
    }
  },
  "userdoc": {
    "methods": {}
  }
}