{
  "contractName": "MockAMM",
  "abi": [
    {
      "inputs": [
        {
          "internalType": "string",
          "name": "_poolName",
          "type": "string"
        },
        {
          "internalType": "string",
          "name": "_poolSymbol",
          "type": "string"
        },
        {
          "internalType": "address",
          "name": "_tokenFactoryAddress",
          "type": "address"
        },
        {
          "internalType": "address",
          "name": "_priceFeederAddress",
          "type": "address"
        },
        {
          "internalType": "address",
          "name": "_perpetualAddress",
          "type": "address"
        }
      ],
      "stateMutability": "nonpayable",
      "type": "constructor"
    },
    {
      "anonymous": false,
      "inputs": [],
      "name": "CreatedAMM",
      "type": "event"
    },
    {
      "anonymous": false,
      "inputs": [
        {
          "indexed": true,
          "internalType": "address",
          "name": "previousOwner",
          "type": "address"
        },
        {
          "indexed": true,
          "internalType": "address",
          "name": "newOwner",
          "type": "address"
        }
      ],
      "name": "OwnershipTransferred",
      "type": "event"
    },
    {
      "anonymous": false,
      "inputs": [
        {
          "components": [
            {
              "internalType": "uint256",
              "name": "lastFundingTime",
              "type": "uint256"
            },
            {
              "internalType": "int256",
              "name": "lastPremium",
              "type": "int256"
            },
            {
              "internalType": "int256",
              "name": "lastEMAPremium",
              "type": "int256"
            },
            {
              "internalType": "uint256",
              "name": "lastIndexPrice",
              "type": "uint256"
            },
            {
              "internalType": "int256",
              "name": "accumulatedFundingPerContract",
              "type": "int256"
            }
          ],
          "indexed": false,
          "internalType": "struct Types.FundingState",
          "name": "fundingState",
          "type": "tuple"
        }
      ],
      "name": "UpdateFundingRate",
      "type": "event"
    },
    {
      "anonymous": false,
      "inputs": [
        {
          "indexed": true,
          "internalType": "address",
          "name": "priceFeeder",
          "type": "address"
        }
      ],
      "name": "UpdatePriceFeeder",
      "type": "event"
    },
    {
      "inputs": [
        {
          "internalType": "address",
          "name": "_address",
          "type": "address"
        }
      ],
      "name": "addAddress",
      "outputs": [],
      "stateMutability": "nonpayable",
      "type": "function"
    },
    {
      "inputs": [
        {
          "internalType": "uint256",
          "name": "amount",
          "type": "uint256"
        }
      ],
      "name": "addLiquidity",
      "outputs": [],
      "stateMutability": "nonpayable",
      "type": "function"
    },
    {
      "inputs": [
        {
          "internalType": "uint256",
          "name": "amount",
          "type": "uint256"
        },
        {
          "internalType": "uint256",
          "name": "limitPrice",
          "type": "uint256"
        },
        {
          "internalType": "uint256",
          "name": "deadline",
          "type": "uint256"
        }
      ],
      "name": "buy",
      "outputs": [
        {
          "internalType": "uint256",
          "name": "",
          "type": "uint256"
        }
      ],
      "stateMutability": "nonpayable",
      "type": "function"
    },
    {
      "inputs": [
        {
          "internalType": "uint256",
          "name": "amount",
          "type": "uint256"
        }
      ],
      "name": "createPool",
      "outputs": [],
      "stateMutability": "nonpayable",
      "type": "function"
    },
    {
      "inputs": [],
      "name": "currentAccumulatedFundingPerContract",
      "outputs": [
        {
          "internalType": "int256",
          "name": "",
          "type": "int256"
        }
      ],
      "stateMutability": "nonpayable",
      "type": "function"
    },
    {
      "inputs": [],
      "name": "currentAvailableMargin",
      "outputs": [
        {
          "internalType": "uint256",
          "name": "",
          "type": "uint256"
        }
      ],
      "stateMutability": "nonpayable",
      "type": "function"
    },
    {
      "inputs": [],
      "name": "currentFairPrice",
      "outputs": [
        {
          "internalType": "uint256",
          "name": "",
          "type": "uint256"
        }
      ],
      "stateMutability": "nonpayable",
      "type": "function"
    },
    {
      "inputs": [],
      "name": "currentFundingRate",
      "outputs": [
        {
          "internalType": "int256",
          "name": "",
          "type": "int256"
        }
      ],
      "stateMutability": "nonpayable",
      "type": "function"
    },
    {
      "inputs": [],
      "name": "currentMarkPrice",
      "outputs": [
        {
          "internalType": "uint256",
          "name": "",
          "type": "uint256"
        }
      ],
      "stateMutability": "nonpayable",
      "type": "function"
    },
    {
      "inputs": [
        {
          "internalType": "uint256",
          "name": "depositAmount",
          "type": "uint256"
        },
        {
          "internalType": "uint256",
          "name": "tradeAmount",
          "type": "uint256"
        },
        {
          "internalType": "uint256",
          "name": "limitPrice",
          "type": "uint256"
        },
        {
          "internalType": "uint256",
          "name": "deadline",
          "type": "uint256"
        }
      ],
      "name": "depositAndBuy",
      "outputs": [],
      "stateMutability": "nonpayable",
      "type": "function"
    },
    {
      "inputs": [
        {
          "internalType": "uint256",
          "name": "depositAmount",
          "type": "uint256"
        },
        {
          "internalType": "uint256",
          "name": "tradeAmount",
          "type": "uint256"
        },
        {
          "internalType": "uint256",
          "name": "limitPrice",
          "type": "uint256"
        },
        {
          "internalType": "uint256",
          "name": "deadline",
          "type": "uint256"
        }
      ],
      "name": "depositAndSell",
      "outputs": [],
      "stateMutability": "nonpayable",
      "type": "function"
    },
    {
      "inputs": [],
      "name": "emaAlpha",
      "outputs": [
        {
          "internalType": "int256",
          "name": "",
          "type": "int256"
        }
      ],
      "stateMutability": "view",
      "type": "function"
    },
    {
      "inputs": [],
      "name": "emaAlpha2",
      "outputs": [
        {
          "internalType": "int256",
          "name": "",
          "type": "int256"
        }
      ],
      "stateMutability": "view",
      "type": "function"
    },
    {
      "inputs": [],
      "name": "emaAlpha2Ln",
      "outputs": [
        {
          "internalType": "int256",
          "name": "",
          "type": "int256"
        }
      ],
      "stateMutability": "view",
      "type": "function"
    },
    {
      "inputs": [],
      "name": "fundingCalculator",
      "outputs": [
        {
          "internalType": "contract IFundingCalculator",
          "name": "",
          "type": "address"
        }
      ],
      "stateMutability": "view",
      "type": "function"
    },
    {
      "inputs": [],
      "name": "fundingDampener",
      "outputs": [
        {
          "internalType": "int256",
          "name": "",
          "type": "int256"
        }
      ],
      "stateMutability": "view",
      "type": "function"
    },
    {
      "inputs": [],
      "name": "getAccumulatedFundingPerContract",
      "outputs": [
        {
          "internalType": "int256",
          "name": "",
          "type": "int256"
        }
      ],
      "stateMutability": "view",
      "type": "function"
    },
    {
      "inputs": [],
      "name": "getAvailableMargin",
      "outputs": [
        {
          "internalType": "uint256",
          "name": "",
          "type": "uint256"
        }
      ],
      "stateMutability": "view",
      "type": "function"
    },
    {
      "inputs": [
        {
          "internalType": "uint256",
          "name": "amount",
          "type": "uint256"
        }
      ],
      "name": "getBuyPricePublic",
      "outputs": [
        {
          "internalType": "uint256",
          "name": "",
          "type": "uint256"
        }
      ],
      "stateMutability": "view",
      "type": "function"
    },
    {
      "inputs": [],
      "name": "getCurrentPricePublic",
      "outputs": [
        {
          "internalType": "uint256",
          "name": "",
          "type": "uint256"
        }
      ],
      "stateMutability": "view",
      "type": "function"
    },
    {
      "inputs": [],
      "name": "getFairPrice",
      "outputs": [
        {
          "internalType": "uint256",
          "name": "",
          "type": "uint256"
        }
      ],
      "stateMutability": "view",
      "type": "function"
    },
    {
      "inputs": [],
      "name": "getMarkPrice",
      "outputs": [
        {
          "internalType": "uint256",
          "name": "",
          "type": "uint256"
        }
      ],
      "stateMutability": "view",
      "type": "function"
    },
    {
      "inputs": [
        {
          "internalType": "uint256",
          "name": "amount",
          "type": "uint256"
        }
      ],
      "name": "getSellPricePublic",
      "outputs": [
        {
          "internalType": "uint256",
          "name": "",
          "type": "uint256"
        }
      ],
      "stateMutability": "view",
      "type": "function"
    },
    {
      "inputs": [],
      "name": "indexPrice",
      "outputs": [
        {
          "internalType": "uint256",
          "name": "price",
          "type": "uint256"
        },
        {
          "internalType": "uint256",
          "name": "timestamp",
          "type": "uint256"
        }
      ],
      "stateMutability": "view",
      "type": "function"
    },
    {
      "inputs": [],
      "name": "isOwner",
      "outputs": [
        {
          "internalType": "bool",
          "name": "",
          "type": "bool"
        }
      ],
      "stateMutability": "view",
      "type": "function"
    },
    {
      "inputs": [
        {
          "internalType": "address",
          "name": "_address",
          "type": "address"
        }
      ],
      "name": "isWhitelisted",
      "outputs": [
        {
          "internalType": "bool",
          "name": "",
          "type": "bool"
        }
      ],
      "stateMutability": "view",
      "type": "function"
    },
    {
      "inputs": [],
      "name": "lastFundingRate",
      "outputs": [
        {
          "internalType": "int256",
          "name": "",
          "type": "int256"
        }
      ],
      "stateMutability": "view",
      "type": "function"
    },
    {
      "inputs": [],
      "name": "lastFundingState",
      "outputs": [
        {
          "components": [
            {
              "internalType": "uint256",
              "name": "lastFundingTime",
              "type": "uint256"
            },
            {
              "internalType": "int256",
              "name": "lastPremium",
              "type": "int256"
            },
            {
              "internalType": "int256",
              "name": "lastEMAPremium",
              "type": "int256"
            },
            {
              "internalType": "uint256",
              "name": "lastIndexPrice",
              "type": "uint256"
            },
            {
              "internalType": "int256",
              "name": "accumulatedFundingPerContract",
              "type": "int256"
            }
          ],
          "internalType": "struct Types.FundingState",
          "name": "",
          "type": "tuple"
        }
      ],
      "stateMutability": "view",
      "type": "function"
    },
    {
      "inputs": [],
      "name": "markPremiumLimit",
      "outputs": [
        {
          "internalType": "int256",
          "name": "",
          "type": "int256"
        }
      ],
      "stateMutability": "view",
      "type": "function"
    },
    {
      "inputs": [],
      "name": "mockBlockTimestamp",
      "outputs": [
        {
          "internalType": "uint256",
          "name": "",
          "type": "uint256"
        }
      ],
      "stateMutability": "view",
      "type": "function"
    },
    {
      "inputs": [],
      "name": "owner",
      "outputs": [
        {
          "internalType": "address",
          "name": "",
          "type": "address"
        }
      ],
      "stateMutability": "view",
      "type": "function"
    },
    {
      "inputs": [],
      "name": "perpetual",
      "outputs": [
        {
          "internalType": "contract IPerpetual",
          "name": "",
          "type": "address"
        }
      ],
      "stateMutability": "view",
      "type": "function"
    },
    {
      "inputs": [],
      "name": "positionSize",
      "outputs": [
        {
          "internalType": "uint256",
          "name": "",
          "type": "uint256"
        }
      ],
      "stateMutability": "view",
      "type": "function"
    },
    {
      "inputs": [],
      "name": "priceFeeder",
      "outputs": [
        {
          "internalType": "contract IPriceFeeder",
          "name": "",
          "type": "address"
        }
      ],
      "stateMutability": "view",
      "type": "function"
    },
    {
      "inputs": [
        {
          "internalType": "address",
          "name": "_address",
          "type": "address"
        }
      ],
      "name": "removeAddress",
      "outputs": [],
      "stateMutability": "nonpayable",
      "type": "function"
    },
    {
      "inputs": [
        {
          "internalType": "uint256",
          "name": "shareAmount",
          "type": "uint256"
        }
      ],
      "name": "removeLiquidity",
      "outputs": [],
      "stateMutability": "nonpayable",
      "type": "function"
    },
    {
      "inputs": [],
      "name": "renounceOwnership",
      "outputs": [],
      "stateMutability": "nonpayable",
      "type": "function"
    },
    {
      "inputs": [
        {
          "internalType": "uint256",
          "name": "amount",
          "type": "uint256"
        },
        {
          "internalType": "uint256",
          "name": "limitPrice",
          "type": "uint256"
        },
        {
          "internalType": "uint256",
          "name": "deadline",
          "type": "uint256"
        }
      ],
      "name": "sell",
      "outputs": [
        {
          "internalType": "uint256",
          "name": "",
          "type": "uint256"
        }
      ],
      "stateMutability": "nonpayable",
      "type": "function"
    },
    {
      "inputs": [
        {
          "internalType": "int256",
          "name": "value",
          "type": "int256"
        }
      ],
      "name": "setAccumulatedFundingPerContract",
      "outputs": [],
      "stateMutability": "nonpayable",
      "type": "function"
    },
    {
      "inputs": [
        {
          "internalType": "int256",
          "name": "value",
          "type": "int256"
        }
      ],
      "name": "setEmaAlpha",
      "outputs": [],
      "stateMutability": "nonpayable",
      "type": "function"
    },
    {
      "inputs": [
        {
          "internalType": "address",
          "name": "_fundingCalculatorAddress",
          "type": "address"
        }
      ],
      "name": "setFundingCalculator",
      "outputs": [],
      "stateMutability": "nonpayable",
      "type": "function"
    },
    {
      "inputs": [
        {
          "internalType": "int256",
          "name": "value",
          "type": "int256"
        }
      ],
      "name": "setFundingDampener",
      "outputs": [],
      "stateMutability": "nonpayable",
      "type": "function"
    },
    {
      "inputs": [
        {
          "internalType": "int256",
          "name": "value",
          "type": "int256"
        }
      ],
      "name": "setMarkPremiumLimit",
      "outputs": [],
      "stateMutability": "nonpayable",
      "type": "function"
    },
    {
      "inputs": [
        {
          "internalType": "address",
          "name": "_priceFeederAddress",
          "type": "address"
        }
      ],
      "name": "setPriceFeeder",
      "outputs": [],
      "stateMutability": "nonpayable",
      "type": "function"
    },
    {
      "inputs": [
        {
          "internalType": "uint256",
          "name": "value",
          "type": "uint256"
        }
      ],
      "name": "setUpdatePremiumPrize",
      "outputs": [],
      "stateMutability": "nonpayable",
      "type": "function"
    },
    {
      "inputs": [],
      "name": "shareToken",
      "outputs": [
        {
          "internalType": "contract IExpandedIERC20",
          "name": "",
          "type": "address"
        }
      ],
      "stateMutability": "view",
      "type": "function"
    },
    {
      "inputs": [],
      "name": "shareTokenAddress",
      "outputs": [
        {
          "internalType": "address",
          "name": "",
          "type": "address"
        }
      ],
      "stateMutability": "view",
      "type": "function"
    },
    {
      "inputs": [
        {
          "internalType": "address",
          "name": "newOwner",
          "type": "address"
        }
      ],
      "name": "transferOwnership",
      "outputs": [],
      "stateMutability": "nonpayable",
      "type": "function"
    },
    {
      "inputs": [],
      "name": "updateIndex",
      "outputs": [],
      "stateMutability": "nonpayable",
      "type": "function"
    },
    {
      "inputs": [],
      "name": "updatePremiumPrize",
      "outputs": [
        {
          "internalType": "uint256",
          "name": "",
          "type": "uint256"
        }
      ],
      "stateMutability": "view",
      "type": "function"
    },
    {
      "inputs": [],
      "name": "version",
      "outputs": [
        {
          "internalType": "uint16",
          "name": "",
          "type": "uint16"
        }
      ],
      "stateMutability": "view",
      "type": "function"
    },
    {
      "inputs": [
        {
          "internalType": "uint256",
          "name": "newValue",
          "type": "uint256"
        }
      ],
      "name": "setBlockTimestamp",
      "outputs": [],
      "stateMutability": "nonpayable",
      "type": "function"
    }
  ],
  "bytecode": "0x6080604052670de0b6b3a7640000600b556611c37937e08000600c55660bd29acb4ffc98600d55670dd4e418dc140368600e55660bd7a6dd37709619600f556601c6bf526340006010553480156200005657600080fd5b50604051620042283803806200422883398101604081905262000079916200040e565b6000805460ff1916600117815585908590859085908590620000a36001600160e01b036200023e16565b60008054610100600160a81b0319166101006001600160a01b038416908102919091178255604051929350917f8be0079c531659141344cd1fd0a4f28419497f9722a3daafe3b4186f6b6457e0908290a350620001086001600160e01b036200024216565b6200011b6001600160e01b036200027216565b60405163e8a0aed360e01b815283906001600160a01b0382169063e8a0aed390620001509089908990601290600401620004e5565b602060405180830381600087803b1580156200016b57600080fd5b505af115801562000180573d6000803e3d6000fd5b505050506040513d601f19601f82011682018060405250620001a69190810190620003e8565b600780546001600160a01b03199081166001600160a01b039384161790915560088054821686841617905560098054909116918416919091179055620001ec336200027e565b6040517fc1b5b4df8fcd236ec161f8b917c0dbcf00b751cbc548708df183c0eead8c3ddc90600090a150620002296001600160e01b036200032d16565b50504260115550620006219650505050505050565b3390565b60005460ff16620002705760405162461bcd60e51b815260040162000267906200059e565b60405180910390fd5b565b6000805460ff19169055565b620002916001600160e01b036200033c16565b620002b05760405162461bcd60e51b8152600401620002679062000569565b806001600160a01b038116620002da5760405162461bcd60e51b8152600401620002679062000522565b6001600160a01b03821660009081526001602052604090205460ff1615620003025762000329565b6001600160a01b0382166000908152600160208190526040909120805460ff191690911790555b5050565b6000805460ff19166001179055565b6000805461010090046001600160a01b0316620003586200023e565b6001600160a01b031614905090565b600082601f83011262000378578081fd5b81516001600160401b03808211156200038f578283fd5b604051601f8301601f191681016020018281118282101715620003b0578485fd5b604052828152925082848301602001861015620003cc57600080fd5b620003df836020830160208801620005d5565b50505092915050565b600060208284031215620003fa578081fd5b8151620004078162000608565b9392505050565b600080600080600060a0868803121562000426578081fd5b85516001600160401b03808211156200043d578283fd5b6200044b89838a0162000367565b9650602088015191508082111562000461578283fd5b50620004708882890162000367565b9450506040860151620004838162000608565b6060870151909350620004968162000608565b6080870151909250620004a98162000608565b809150509295509295909350565b60008151808452620004d1816020860160208601620005d5565b601f01601f19169290920160200192915050565b600060608252620004fa6060830186620004b7565b82810360208401526200050e8186620004b7565b91505060ff83166040830152949350505050565b60208082526027908201527f76616c69646174657320616e206164647265737320746861742069742069736e60408201526609dd081b9d5b1b60ca1b606082015260800190565b6020808252818101527f4f776e61626c653a2063616c6c6572206973206e6f7420746865206f776e6572604082015260600190565b6020808252601f908201527f5265656e7472616e637947756172643a207265656e7472616e742063616c6c00604082015260600190565b60005b83811015620005f2578181015183820152602001620005d8565b8381111562000602576000848401525b50505050565b6001600160a01b03811681146200061e57600080fd5b50565b613bf780620006316000396000f3fe608060405234801561001057600080fd5b506004361061030c5760003560e01c8063715018a61161019d578063b1d7f7db116100e9578063d3c9727c116100a2578063dedcd0741161007c578063dedcd074146105b1578063e0abdf66146105b9578063e21ebac9146105cc578063f2fde38b146105df5761030c565b8063d3c9727c14610583578063d42dc19714610596578063de12bcac146105a95761030c565b8063b1d7f7db1461053d578063b3fe37c314610545578063b8f110bc1461054d578063b9f412b014610560578063cb0d432f14610568578063cf682c6a1461057b5761030c565b80638da5cb5b11610156578063960fb9b211610130578063960fb9b2146105075780639c8f9f231461050f5780639d0d2b8814610522578063a8681826146105355761030c565b80638da5cb5b146104ef5780638f32d59b146104f757806395af65dd146104ff5761030c565b8063715018a61461049e57806373da22bf146104a65780638185f58c146104ae5780638259e6a0146104c15780638407e532146104d457806384f523ad146104e75761030c565b80633aef4d0b1161025c5780634ba79dfe1161021557806360409632116101ef578063604096321461047e5780636c9fa59e146104865780636cd2c43d1461048e5780636d160069146104965761030c565b80634ba79dfe1461044357806351c6590a1461045657806354fd4d50146104695761030c565b80633aef4d0b146103f05780633af32abf146103f85780633b495ebf146104185780633f9230881461042057806340993b26146104285780634928229a1461043b5761030c565b80631d844c2d116102c95780632c4ac111116102a35780632c4ac111146103ba5780632fe454b2146103c257806330e04ca1146103d557806338eada1c146103dd5761030c565b80631d844c2d1461038c5780631e8a91b61461039f5780631fada485146103b25761030c565b8063025c7d031461031157806306a7570c1461032657806310bace8c14610344578063152f8cbe1461035a5780631927f7921461036f57806319e67d7514610384575b600080fd5b61032461031f3660046132a0565b6105f2565b005b61032e610654565b60405161033b9190613b1f565b60405180910390f35b61034c610691565b60405161033b929190613b9b565b6103626107c5565b60405161033b9190613489565b610377610818565b60405161033b91906133df565b610377610827565b61032461039a36600461323d565b610836565b6103246103ad3660046132a0565b6108b2565b61037761090b565b61036261091a565b6103626103d03660046132a0565b610920565b610362610986565b6103246103eb36600461323d565b61099d565b610362610a39565b61040b61040636600461323d565b610a4b565b60405161033b9190613469565b610362610a69565b610362610a6f565b610362610436366004613383565b610a75565b610362610a8b565b61032461045136600461323d565b610ad9565b6103246104643660046132a0565b610b46565b610471610e33565b60405161033b9190613b8c565b610362610e38565b610377610e42565b610362610e51565b610362610e57565b610324610e61565b610362610ed4565b6103626104bc3660046132a0565b610eda565b6103246104cf3660046132a0565b610f29565b6103246104e236600461323d565b61117b565b6103626111cf565b610377611260565b61040b611274565b61036261129d565b6103626112ae565b61032461051d3660046132a0565b6112b4565b6103246105303660046132a0565b6116cd565b610362611704565b610362611716565b610362611720565b61032461055b3660046133ae565b611726565b6103246117aa565b6103246105763660046132a0565b611859565b6103626118d0565b610362610591366004613383565b6118d6565b6103246105a43660046132a0565b6118e4565b61036261193d565b61037761194f565b6103246105c73660046132a0565b61195e565b6103246105da3660046133ae565b611963565b6103246105ed36600461323d565b6119df565b60006105fc611a0c565b905061060781610a4b565b61062c5760405162461bcd60e51b815260040161062390613831565b60405180910390fd5b600c5482141561064e5760405162461bcd60e51b8152600401610623906139e6565b50600c55565b61065c6131d7565b506040805160a08101825260025481526003546020820152600454918101919091526005546060820152600654608082015290565b600080600860009054906101000a90046001600160a01b03166001600160a01b031663209652556040518163ffffffff1660e01b815260040160206040518083038186803b1580156106e257600080fd5b505afa1580156106f6573d6000803e3d6000fd5b505050506040513d601f19601f8201168201806040525061071a91908101906132b8565b9150600860009054906101000a90046001600160a01b03166001600160a01b031663188ec3566040518163ffffffff1660e01b815260040160206040518083038186803b15801561076a57600080fd5b505afa15801561077e573d6000803e3d6000fd5b505050506040513d601f19601f820116820180604052506107a291908101906132b8565b9050816107c15760405162461bcd60e51b815260040161062390613997565b9091565b60008060006107d2611a10565b909250905080158015906107e557508115155b6108015760405162461bcd60e51b8152600401610623906139c2565b610811828263ffffffff611ab916565b9250505090565b600a546001600160a01b031681565b6009546001600160a01b031681565b6000610840611a0c565b905061084b81610a4b565b6108675760405162461bcd60e51b815260040161062390613831565b600880546001600160a01b0319166001600160a01b0384169081179091556040517f0ee3c7edebc1b6525e2ecde5dee0d25becd16e7b855763eb620245092c3419ac90600090a25050565b60006108bc611a0c565b90506108c781610a4b565b6108e35760405162461bcd60e51b815260040161062390613831565b6010548214156109055760405162461bcd60e51b8152600401610623906139e6565b50601055565b6008546001600160a01b031681565b600d5481565b600080600061092d611a10565b9092509050801580159061094057508115155b61095c5760405162461bcd60e51b8152600401610623906139c2565b61097c61096f828663ffffffff611aea16565b839063ffffffff611ab916565b925050505b919050565b6000610990611b18565b610998611bfa565b905090565b6109a5611274565b6109c15760405162461bcd60e51b815260040161062390613831565b806001600160a01b0381166109e85760405162461bcd60e51b815260040161062390613527565b6001600160a01b03821660009081526001602052604090205460ff1615610a0e57610a35565b6001600160a01b0382166000908152600160208190526040909120805460ff191690911790555b5050565b6000610a43611b18565b610998610a8b565b6001600160a01b031660009081526001602052604090205460ff1690565b600e5481565b600b5481565b6000610a8333858585611c94565b949350505050565b600080610a96611ee6565b9050610ad3610ab360105460000383611f2890919063ffffffff16565b601054610ac790849063ffffffff611f3f16565b9063ffffffff611f4f16565b91505090565b610ae1611274565b610afd5760405162461bcd60e51b815260040161062390613831565b6001600160a01b03811660009081526001602052604090205460ff16610b2257610b43565b6001600160a01b0381166000908152600160205260409020805460ff191690555b50565b60095460408051631006976960e11b815290516000926001600160a01b03169163200d2ed2916004808301926020929190829003018186803b158015610b8b57600080fd5b505afa158015610b9f573d6000803e3d6000fd5b505050506040513d601f19601f82011682018060405250610bc39190810190613284565b6002811115610bce57fe5b14610beb5760405162461bcd60e51b815260040161062390613654565b600080610bf6611f95565b90925090508015801590610c0957508115155b610c255760405162461bcd60e51b8152600401610623906139c2565b336000610c38848463ffffffff611ab916565b90506000610c5d6002610c51888563ffffffff611fa816565b9063ffffffff611fd016565b6009549091506001600160a01b031663f4d6045884610c7a61200a565b610c8385612019565b6040518463ffffffff1660e01b8152600401610ca193929190613445565b600060405180830381600087803b158015610cbb57600080fd5b505af1158015610ccf573d6000803e3d6000fd5b5050600954600092506001600160a01b031690506319d3b88b85610cf161200a565b6001878c6040518663ffffffff1660e01b8152600401610d1595949392919061340c565b6040805180830381600087803b158015610d2e57600080fd5b505af1158015610d42573d6000803e3d6000fd5b505050506040513d601f19601f82011682018060405250610d669190810190613371565b509050610e1884610e1387610e078b600760009054906101000a90046001600160a01b03166001600160a01b03166318160ddd6040518163ffffffff1660e01b815260040160206040518083038186803b158015610dc357600080fd5b505afa158015610dd7573d6000803e3d6000fd5b505050506040513d601f19601f82011682018060405250610dfb91908101906132b8565b9063ffffffff611fa816565b9063ffffffff611ab916565b612046565b610e206120e6565b610e2a84826121b2565b50505050505050565b600181565b6000610998612416565b6007546001600160a01b031681565b60115481565b60006109986124c3565b610e69611274565b610e855760405162461bcd60e51b815260040161062390613831565b600080546040516101009091046001600160a01b0316907f8be0079c531659141344cd1fd0a4f28419497f9722a3daafe3b4186f6b6457e0908390a360008054610100600160a81b0319169055565b600f5481565b6000806000610ee7611a10565b90925090508015801590610efa57508115155b610f165760405162461bcd60e51b8152600401610623906139c2565b61097c61096f828663ffffffff61255d16565b60008111610f495760405162461bcd60e51b8152600401610623906138ff565b60095460408051631006976960e11b815290516000926001600160a01b03169163200d2ed2916004808301926020929190829003018186803b158015610f8e57600080fd5b505afa158015610fa2573d6000803e3d6000fd5b505050506040513d601f19601f82011682018060405250610fc69190810190613284565b6002811115610fd157fe5b14610fee5760405162461bcd60e51b815260040161062390613654565b610ff66111cf565b156110135760405162461bcd60e51b8152600401610623906136d7565b33600061101e61259f565b905060008061102b610691565b909250905061103a82846125a5565b6009546001600160a01b031663f4d604588561105461200a565b61107161106c6002610c51898d63ffffffff611fa816565b612019565b6040518463ffffffff1660e01b815260040161108f93929190613445565b600060405180830381600087803b1580156110a957600080fd5b505af11580156110bd573d6000803e3d6000fd5b5050600954600092506001600160a01b031690506319d3b88b866110df61200a565b6001878b6040518663ffffffff1660e01b815260040161110395949392919061340c565b6040805180830381600087803b15801561111c57600080fd5b505af1158015611130573d6000803e3d6000fd5b505050506040513d601f19601f820116820180604052506111549190810190613371565b5090506111618587612046565b6111696120e6565b61117385826121b2565b505050505050565b6000611185611a0c565b905061119081610a4b565b6111ac5760405162461bcd60e51b815260040161062390613831565b50600a80546001600160a01b0319166001600160a01b0392909216919091179055565b6009546000906001600160a01b03166355f575106111eb61200a565b6040518263ffffffff1660e01b815260040161120791906133df565b60c06040518083038186803b15801561121f57600080fd5b505afa158015611233573d6000803e3d6000fd5b505050506040513d601f19601f8201168201806040525061125791908101906132f3565b60400151905090565b60005461010090046001600160a01b031690565b6000805461010090046001600160a01b031661128e611a0c565b6001600160a01b031614905090565b60006112a7611b18565b5060065490565b60065490565b60095460408051631006976960e11b815290516000926001600160a01b03169163200d2ed2916004808301926020929190829003018186803b1580156112f957600080fd5b505afa15801561130d573d6000803e3d6000fd5b505050506040513d601f19601f820116820180604052506113319190810190613284565b600281111561133c57fe5b146113595760405162461bcd60e51b815260040161062390613654565b33600080611365611f95565b9092509050801580159061137857508115155b6113945760405162461bcd60e51b8152600401610623906139c2565b6007546040516370a0823160e01b815285916001600160a01b0316906370a08231906113c49033906004016133df565b60206040518083038186803b1580156113dc57600080fd5b505afa1580156113f0573d6000803e3d6000fd5b505050506040513d601f19601f8201168201806040525061141491908101906132b8565b10156114325760405162461bcd60e51b815260040161062390613684565b6000611444838363ffffffff611ab916565b905060006114e1600760009054906101000a90046001600160a01b03166001600160a01b03166318160ddd6040518163ffffffff1660e01b815260040160206040518083038186803b15801561149957600080fd5b505afa1580156114ad573d6000803e3d6000fd5b505050506040513d601f19601f820116820180604052506114d191908101906132b8565b610e07888663ffffffff611fa816565b90506000600960009054906101000a90046001600160a01b03166001600160a01b0316634942f65f6040518163ffffffff1660e01b815260040160206040518083038186803b15801561153357600080fd5b505afa158015611547573d6000803e3d6000fd5b505050506040513d601f19601f8201168201806040525061156b91908101906132b8565b905061158d611580838363ffffffff6125d716565b839063ffffffff61255d16565b6009549092506001600160a01b031663f4d604586115a961200a565b886115c261106c6002610c518a8a63ffffffff611fa816565b6040518463ffffffff1660e01b81526004016115e093929190613445565b600060405180830381600087803b1580156115fa57600080fd5b505af115801561160e573d6000803e3d6000fd5b5050505061161c8688612619565b6009546000906001600160a01b03166319d3b88b8861163961200a565b600288886040518663ffffffff1660e01b815260040161165d95949392919061340c565b6040805180830381600087803b15801561167657600080fd5b505af115801561168a573d6000803e3d6000fd5b505050506040513d601f19601f820116820180604052506116ae9190810190613371565b5090506116b96120e6565b6116c387826121b2565b5050505050505050565b60006116d7611a0c565b90506116e281610a4b565b6116fe5760405162461bcd60e51b815260040161062390613831565b50600655565b600061170e611b18565b6109986124c3565b6000610998611bfa565b60105481565b8315611791576009546040516317a790f160e11b81526001600160a01b0390911690632f4f21e29061175e90339088906004016133f3565b600060405180830381600087803b15801561177857600080fd5b505af115801561178c573d6000803e3d6000fd5b505050505b82156117a4576117a2838383610a75565b505b50505050565b60095460408051631006976960e11b815290516000926001600160a01b03169163200d2ed2916004808301926020929190829003018186803b1580156117ef57600080fd5b505afa158015611803573d6000803e3d6000fd5b505050506040513d601f19601f820116820180604052506118279190810190613284565b600281111561183257fe5b1461184f5760405162461bcd60e51b815260040161062390613654565b6118576120e6565b565b6000611863611a0c565b905061186e81610a4b565b61188a5760405162461bcd60e51b815260040161062390613831565b600d548214156118ac5760405162461bcd60e51b8152600401610623906139e6565b600d829055670de0b6b3a7640000829003600e556118c982612679565b600f555050565b600c5481565b6000610a8333858585612900565b60006118ee611a0c565b90506118f981610a4b565b6119155760405162461bcd60e51b815260040161062390613831565b600b548214156119375760405162461bcd60e51b8152600401610623906139e6565b50600b55565b6000611947611b18565b610998612416565b6007546001600160a01b031690565b601155565b83156119ce576009546040516317a790f160e11b81526001600160a01b0390911690632f4f21e29061199b90339088906004016133f3565b600060405180830381600087803b1580156119b557600080fd5b505af11580156119c9573d6000803e3d6000fd5b505050505b82156117a4576117a28383836118d6565b6119e7611274565b611a035760405162461bcd60e51b815260040161062390613831565b610b4381612ae2565b3390565b600080611a1b613206565b6009546001600160a01b03166355f57510611a3461200a565b6040518263ffffffff1660e01b8152600401611a5091906133df565b60c06040518083038186803b158015611a6857600080fd5b505afa158015611a7c573d6000803e3d6000fd5b505050506040513d601f19601f82011682018060405250611aa091908101906132f3565b9050611aab81612b6e565b925080604001519150509091565b600081611adb611ad185670de0b6b3a7640000611fd0565b6002855b04611aea565b81611ae257fe5b049392505050565b600082820183811015611b0f5760405162461bcd60e51b8152600401610623906135b4565b90505b92915050565b60095460408051631006976960e11b815290516000926001600160a01b03169163200d2ed2916004808301926020929190829003018186803b158015611b5d57600080fd5b505afa158015611b71573d6000803e3d6000fd5b505050506040513d601f19601f82011682018060405250611b959190810190613284565b6002811115611ba057fe5b14611baa57611857565b6000611bb461259f565b9050600080611bc1610691565b600254919350915083141580611bd957506005548214155b80611be5575060025481115b15611bf557611bf5838383612c90565b505050565b6000611c04613206565b6009546001600160a01b03166355f57510611c1d61200a565b6040518263ffffffff1660e01b8152600401611c3991906133df565b60c06040518083038186803b158015611c5157600080fd5b505afa158015611c65573d6000803e3d6000fd5b505050506040513d601f19601f82011682018060405250611c8991908101906132f3565b9050610ad381612b6e565b600080600960009054906101000a90046001600160a01b03166001600160a01b031663200d2ed26040518163ffffffff1660e01b815260040160206040518083038186803b158015611ce557600080fd5b505afa158015611cf9573d6000803e3d6000fd5b505050506040513d601f19601f82011682018060405250611d1d9190810190613284565b6002811115611d2857fe5b14611d455760405162461bcd60e51b815260040161062390613654565b6009546040516336a250cf60e21b81526001600160a01b039091169063da89433c90611d75908790600401613489565b60206040518083038186803b158015611d8d57600080fd5b505afa158015611da1573d6000803e3d6000fd5b505050506040513d601f19601f82011682018060405250611dc59190810190613264565b611de15760405162461bcd60e51b815260040161062390613891565b6000611dec85612d9c565b905080841015611e0e5760405162461bcd60e51b815260040161062390613500565b82611e1761259f565b1115611e355760405162461bcd60e51b815260040161062390613866565b6009546000906001600160a01b03166319d3b88b88611e5261200a565b6002868b6040518663ffffffff1660e01b8152600401611e7695949392919061340c565b6040805180830381600087803b158015611e8f57600080fd5b505af1158015611ea3573d6000803e3d6000fd5b505050506040513d601f19601f82011682018060405250611ec79190810190613371565b509050611ed26120e6565b611edc87826121b2565b9695505050505050565b600080611ef7600260030154612019565b90506000611f0661106c612416565b905061081182611f1c838263ffffffff612da916565b9063ffffffff612def16565b600081831315611f385781611b0f565b5090919050565b600081831215611f385781611b0f565b6000828201818312801590611f645750838112155b80611f795750600083128015611f7957508381125b611b0f5760405162461bcd60e51b81526004016106239061379a565b600080611fa0611b18565b611a1b613206565b6000670de0b6b3a7640000611adb611fc08585611fd0565b6002670de0b6b3a7640000611ad5565b600082611fdf57506000611b12565b82820282848281611fec57fe5b0414611b0f5760405162461bcd60e51b8152600401610623906137c5565b6009546001600160a01b031690565b60006001600160ff1b038211156120425760405162461bcd60e51b815260040161062390613aa1565b5090565b6007546040516340c10f1960e01b81526001600160a01b03909116906340c10f199061207890859085906004016133f3565b602060405180830381600087803b15801561209257600080fd5b505af11580156120a6573d6000803e3d6000fd5b505050506040513d601f19601f820116820180604052506120ca9190810190613264565b610a355760405162461bcd60e51b8152600401610623906136b2565b60095460408051631006976960e11b815290516000926001600160a01b03169163200d2ed2916004808301926020929190829003018186803b15801561212b57600080fd5b505afa15801561213f573d6000803e3d6000fd5b505050506040513d601f19601f820116820180604052506121639190810190613284565b600281111561216e57fe5b1461218b5760405162461bcd60e51b815260040161062390613654565b600061219561259f565b90506000806121a2610691565b9092509050611bf5838383612c90565b600954604080516345a15a0160e01b815290516000926001600160a01b0316916345a15a01916004808301926020929190829003018186803b1580156121f757600080fd5b505afa15801561220b573d6000803e3d6000fd5b505050506040513d601f19601f8201168201806040525061222f91908101906132b8565b905081156122d55760095460405163f50c138b60e01b81526001600160a01b039091169063f50c138b9061226990869085906004016133f3565b60206040518083038186803b15801561228157600080fd5b505afa158015612295573d6000803e3d6000fd5b505050506040513d601f19601f820116820180604052506122b99190810190613264565b6122d55760405162461bcd60e51b815260040161062390613a10565b600954604051631eacda4160e31b81526001600160a01b039091169063f566d2089061230790869085906004016133f3565b60206040518083038186803b15801561231f57600080fd5b505afa158015612333573d6000803e3d6000fd5b505050506040513d601f19601f820116820180604052506123579190810190613264565b6123735760405162461bcd60e51b8152600401610623906135eb565b6009546001600160a01b031663f566d20861238c61200a565b836040518363ffffffff1660e01b81526004016123aa9291906133f3565b60206040518083038186803b1580156123c257600080fd5b505afa1580156123d6573d6000803e3d6000fd5b505050506040513d601f19601f820116820180604052506123fa9190810190613264565b611bf55760405162461bcd60e51b8152600401610623906138db565b600080612427600260030154612019565b90506000612440600c5483612e3190919063ffffffff16565b9050600061245c61244f612e57565b849063ffffffff611f4f16565b905061247e612471848463ffffffff611f4f16565b829063ffffffff611f2816565b90506124a0612493848463ffffffff612da916565b829063ffffffff611f3f16565b90506124bb6124b682600063ffffffff611f3f16565b612e5d565b935050505090565b60006124cd613206565b6009546001600160a01b03166355f575106124e661200a565b6040518263ffffffff1660e01b815260040161250291906133df565b60c06040518083038186803b15801561251a57600080fd5b505afa15801561252e573d6000803e3d6000fd5b505050506040513d601f19601f8201168201806040525061255291908101906132f3565b9050610ad381612e7f565b6000611b0f83836040518060400160405280601e81526020017f536166654d6174683a207375627472616374696f6e206f766572666c6f770000815250612ec1565b60115490565b600254156125c55760405162461bcd60e51b815260040161062390613736565b60025560055560006003819055600455565b6000611b0f83836040518060400160405280601881526020017f536166654d6174683a206d6f64756c6f206279207a65726f0000000000000000815250612eed565b600754604051632770a7eb60e21b81526001600160a01b0390911690639dc29fac9061264b90859085906004016133f3565b600060405180830381600087803b15801561266557600080fd5b505af1158015611173573d6000803e3d6000fd5b600080821361269a5760405162461bcd60e51b8152600401610623906136ff565b701d6329f1c35ca4bfabb9f56100000000008213156126cb5760405162461bcd60e51b815260040161062390613612565b60006012670de0b6b3a76400005b67016345785d8a000085136127085784600a0294506f01bb7635c5de48ef4ce5b7b41cc43db0830392506126d9565b678ac7230489e80000851261273757600a850594506f01bb7635c5de48ef4ce5b7b41cc43db083019250612708565b670de0b6b3a764000085121561277457612759856725b946ebc0b36173612e31565b94506ec097ce7bc90715b34b9f100000000083039250612737565b6725b946ebc0b361738513156127b157612796856725b946ebc0b36173612def565b94506ec097ce7bc90715b34b9f100000000083019250612774565b670de0b6b3a76400008514156127de57806127cc8483612f21565b816127d357fe5b059350505050610981565b6725b946ebc0b3617385141561281557806127f98483612f21565b8161280057fe5b05670de0b6b3a7640000019350505050610981565b938402936e4e16f927cdca7f15b39123f740f5d192909201916f0120e3b5b9ad8aa08cf16e980000000060008187016ec097ce7bc90715b34b9f10000000006f0120e3b5b9ad8aa08cf16e97ffffffff198901028161287057fe5b059050806002028501945060006ec097ce7bc90715b34b9f10000000008283028161289757fe5b05905060035b6ec097ce7bc90715b34b9f10000000008383020592508060ff1683600202816128c257fe5b059690960195600201602760ff8216106128db576128e0565b61289d565b846128eb8887612f21565b816128f257fe5b059998505050505050505050565b600080600960009054906101000a90046001600160a01b03166001600160a01b031663200d2ed26040518163ffffffff1660e01b815260040160206040518083038186803b15801561295157600080fd5b505afa158015612965573d6000803e3d6000fd5b505050506040513d601f19601f820116820180604052506129899190810190613284565b600281111561299457fe5b146129b15760405162461bcd60e51b815260040161062390613654565b6009546040516336a250cf60e21b81526001600160a01b039091169063da89433c906129e1908790600401613489565b60206040518083038186803b1580156129f957600080fd5b505afa158015612a0d573d6000803e3d6000fd5b505050506040513d601f19601f82011682018060405250612a319190810190613264565b612a4d5760405162461bcd60e51b815260040161062390613891565b6000612a5885612f6b565b905080841115612a7a5760405162461bcd60e51b815260040161062390613500565b82612a8361259f565b1115612aa15760405162461bcd60e51b815260040161062390613866565b6009546000906001600160a01b03166319d3b88b88612abe61200a565b6001868b6040518663ffffffff1660e01b8152600401611e7695949392919061340c565b6001600160a01b038116612b085760405162461bcd60e51b81526004016106239061356e565b600080546040516001600160a01b038085169361010090930416917f8be0079c531659141344cd1fd0a4f28419497f9722a3daafe3b4186f6b6457e091a3600080546001600160a01b0390921661010002610100600160a81b0319909216919091179055565b805160095460208301516040516324c374e760e21b81526000939284926001600160a01b039091169163930dd39c91612ba991600401613474565b60206040518083038186803b158015612bc157600080fd5b505afa158015612bd5573d6000803e3d6000fd5b505050506040513d601f19601f82011682018060405250612bf991908101906132b8565b9050612c18612c0b8560600151612019565b839063ffffffff612da916565b9150612c4e612c0b8560800151612c42612c358860400151612019565b859063ffffffff612e3116565b9063ffffffff612da916565b9150612c7a612c0b8560a00151612c42612c6b8860400151612019565b6006549063ffffffff612e3116565b915061097c6124b683600063ffffffff611f3f16565b600254612c9c57611bf5565b612ca4613206565b6009546001600160a01b03166355f57510612cbd61200a565b6040518263ffffffff1660e01b8152600401612cd991906133df565b60c06040518083038186803b158015612cf157600080fd5b505afa158015612d05573d6000803e3d6000fd5b505050506040513d601f19601f82011682018060405250612d2991908101906132f3565b9050806040015160001415612d3e5750611bf5565b600254821115612d5357612d53818484612f78565b612d5e818486612f78565b7fc0f950314c1203122896795efe729e8208b4c58eb5d6f41c476f32c773250a5d6002604051612d8e9190613b59565b60405180910390a150505050565b6000806000610ee7611f95565b6000818303818312801590612dbe5750838113155b80612dd35750600083128015612dd357508381135b611b0f5760405162461bcd60e51b815260040161062390613af1565b600080821215612e06578160000391508260000392505b81612e22612e1c85670de0b6b3a76400006130d2565b84612f21565b81612e2957fe5b059392505050565b6000670de0b6b3a7640000612e22612e4985856130d2565b670de0b6b3a7640000612f21565b60045490565b6000808212156120425760405162461bcd60e51b815260040161062390613acb565b604081015160009080612ea45760405162461bcd60e51b815260040161062390613a33565b6000612eaf84612b6e565b905061097c818363ffffffff611ab916565b60008184841115612ee55760405162461bcd60e51b815260040161062391906134ad565b505050900390565b60008183612f0e5760405162461bcd60e51b815260040161062391906134ad565b50828481612f1857fe5b06949350505050565b6000808213612f425760405162461bcd60e51b815260040161062390613763565b60008312612f5e57612f578360028405611f4f565b9050611b12565b611b0f8360028405612da9565b600080600061092d611f95565b600254612f975760405162461bcd60e51b815260040161062390613a33565b600254811015612fb95760405162461bcd60e51b815260040161062390613960565b60025481146130bc57600254600090612fdd9061106c90849063ffffffff61255d16565b600a546004546003546005549394506000936001600160a01b0390931692635e035d9c928692909161300e90612019565b6040518563ffffffff1660e01b815260040161302d9493929190613492565b604080518083038186803b15801561304457600080fd5b505afa158015613058573d6000803e3d6000fd5b505050506040513d601f19601f8201168201806040525061307c91908101906132d0565b60049190915590506130b16130a2613095617080612019565b839063ffffffff61313d16565b6006549063ffffffff611f4f16565b600655505060028190555b60058290556130ca836131a1565b600355505050565b6000826130e157506000611b12565b826000191480156130f55750600160ff1b82145b156131125760405162461bcd60e51b815260040161062390613a6a565b8282028284828161311f57fe5b0514611b0f5760405162461bcd60e51b815260040161062390613a6a565b60008161315c5760405162461bcd60e51b815260040161062390613806565b816000191480156131705750600160ff1b83145b1561318d5760405162461bcd60e51b815260040161062390613934565b600082848161319857fe5b05949350505050565b6000806131b061106c84612e7f565b90506131d06131c3600260030154612019565b829063ffffffff612da916565b9392505050565b6040518060a0016040528060008152602001600081526020016000815260200160008152602001600081525090565b6040805160c08101909152600080825260208201908152602001600081526020016000815260200160008152602001600081525090565b60006020828403121561324e578081fd5b81356001600160a01b0381168114611b0f578182fd5b600060208284031215613275578081fd5b81518015158114611b0f578182fd5b600060208284031215613295578081fd5b8151611b0f81613bb4565b6000602082840312156132b1578081fd5b5035919050565b6000602082840312156132c9578081fd5b5051919050565b600080604083850312156132e2578081fd5b505080516020909101519092909150565b600060c08284031215613304578081fd5b60405160c0810181811067ffffffffffffffff82111715613323578283fd5b60405282518152602083015161333881613bb4565b8060208301525060408301516040820152606083015160608201526080830151608082015260a083015160a08201528091505092915050565b600080604083850312156132e2578182fd5b600080600060608486031215613397578081fd5b505081359360208301359350604090920135919050565b600080600080608085870312156133c3578081fd5b5050823594602084013594506040840135936060013592509050565b6001600160a01b0391909116815260200190565b6001600160a01b03929092168252602082015260400190565b6001600160a01b0386811682528516602082015260a0810161342d85613ba9565b60408301526060820193909352608001529392505050565b6001600160a01b039384168152919092166020820152604081019190915260600190565b901515815260200190565b6020810161348183613ba9565b825292915050565b90815260200190565b93845260208401929092526040830152606082015260800190565b6000602080835283518082850152825b818110156134d9578581018301518582016040015282016134bd565b818111156134ea5783604083870101525b50601f01601f1916929092016040019392505050565b6020808252600d908201526c1c1c9a58d9481b1a5b5a5d1959609a1b604082015260600190565b60208082526027908201527f76616c69646174657320616e206164647265737320746861742069742069736e60408201526609dd081b9d5b1b60ca1b606082015260800190565b60208082526026908201527f4f776e61626c653a206e6577206f776e657220697320746865207a65726f206160408201526564647265737360d01b606082015260800190565b6020808252601b908201527f536166654d6174683a206164646974696f6e206f766572666c6f770000000000604082015260600190565b6020808252600d908201526c73656e64657220756e7361666560981b604082015260600190565b60208082526022908201527f6c6f6745206f6e6c7920616363657074732076203c3d2031653232202a203165604082015261062760f31b606082015260800190565b60208082526016908201527577726f6e672070657270657475616c2073746174757360501b604082015260600190565b602080825260149082015273736861726542616c616e636520746f6f206c6f7760601b604082015260600190565b6020808252600b908201526a1b5a5b9d0819985a5b195960aa1b604082015260600190565b6020808252600e908201526d706f6f6c206e6f7420656d70747960901b604082015260600190565b60208082526017908201527f6c6f6745206f66206e65676174697665206e756d626572000000000000000000604082015260600190565b602080825260139082015272185b1c9958591e481a5b9a5d1a585b1a5e9959606a1b604082015260600190565b6020808252601f908201527f726f756e6448616c665570206f6e6c7920737570706f7274732079203e203000604082015260600190565b6020808252601190820152706164646974696f6e206f766572666c6f7760781b604082015260600190565b60208082526021908201527f536166654d6174683a206d756c7469706c69636174696f6e206f766572666c6f6040820152607760f81b606082015260800190565b602080825260119082015270776469766973696f6e206279207a65726f60781b604082015260600190565b6020808252818101527f4f776e61626c653a2063616c6c6572206973206e6f7420746865206f776e6572604082015260600190565b602080825260119082015270191958591b1a5b9948195e18d959591959607a1b604082015260600190565b6020808252602a908201527f616d6f756e74206d75737420626520646976697369626c652062792074726164604082015269696e674c6f7453697a6560b01b606082015260800190565b6020808252600a9082015269616d6d20756e7361666560b01b604082015260600190565b6020808252818101527f616d6f756e74206d7573742062652067726561746572207468616e207a65726f604082015260600190565b602080825260129082015271776469766973696f6e206f766572666c6f7760701b604082015260600190565b6020808252601f908201527f74696d6520737465707320286e29206d75737420626520706f73697469766500604082015260600190565b60208082526011908201527034b73232bc10383934b1b29032b93937b960791b604082015260600190565b6020808252600a9082015269195b5c1d1e481c1bdbdb60b21b604082015260600190565b60208082526010908201526f6475706c6963617465642076616c756560801b604082015260600190565b602080825260099082015268696d20756e7361666560b81b604082015260600190565b6020808252601f908201527f66756e64696e6720696e697469616c697a6174696f6e20726571756972656400604082015260600190565b60208082526018908201527f776d756c7469706c69636174696f6e206f766572666c6f770000000000000000604082015260600190565b60208082526010908201526f75696e74323536206f766572666c6f7760801b604082015260600190565b6020808252600c908201526b696e74206f766572666c6f7760a01b604082015260600190565b6020808252601490820152737375627472616374696f6e206f766572666c6f7760601b604082015260600190565b600060a082019050825182526020830151602083015260408301516040830152606083015160608301526080830151608083015292915050565b81548152600182015460208201526002820154604082015260038201546060820152600490910154608082015260a00190565b61ffff91909116815260200190565b918252602082015260400190565b806003811061098157fe5b60038110610b4357600080fdfea2646970667358221220be04131f28708aa766b6d3c04e658d4680e4ae549cd7398abddd2ab5e799b56e64736f6c63430006030033",
  "source": "pragma solidity ^0.6.0;\npragma experimental ABIEncoderV2;\n\nimport \"../AMM.sol\";\n\ncontract MockAMM  is AMM {\n    \n    uint256 public mockBlockTimestamp;\n\n    constructor(string memory _poolName,\n        string memory _poolSymbol,\n        address _tokenFactoryAddress,\n        address _priceFeederAddress,\n        address _perpetualAddress)\n        public\n        AMM(_poolName, _poolSymbol, _tokenFactoryAddress, _priceFeederAddress, _perpetualAddress)\n    {\n        // solium-disable-next-line security/no-block-members\n        mockBlockTimestamp = block.timestamp;\n    }\n\n    function _getBlockTimestamp() internal view override returns (uint256) {\n        return mockBlockTimestamp;\n    }\n\n    function setBlockTimestamp(uint256 newValue) public {\n        mockBlockTimestamp = newValue;\n    }\n\n}",
  "sourcePath": "/mnt/d/HARMONY/GRANT-PROPOSAL/TEBS-APP/harmony-hack-main/contracts/contracts/mocks/MockAMM.sol",
  "compiler": {
    "name": "solc",
    "version": "0.6.3+commit.8dda9521.Emscripten.clang"
  },
  "schemaVersion": "3.4.1",
  "updatedAt": "2021-12-22T18:59:35.214Z",
  "devdoc": {
    "methods": {
      "addAddress(address)": {
        "details": "adds a given address to the whitelist ",
        "params": {
          "_address": "address to add"
        }
      },
      "buy(uint256,uint256,uint256)": {
        "details": "Buy/long with AMM."
      },
      "indexPrice()": {
        "details": "Read the price from Oracle"
      },
      "isOwner()": {
        "details": "Returns true if the caller is the current owner."
      },
      "isWhitelisted(address)": {
        "details": "returns true if a given address is whitelisted, false if not ",
        "params": {
          "_address": "address to check "
        },
        "returns": {
          "_0": "true if the address is whitelisted, false if not"
        }
      },
      "owner()": {
        "details": "Returns the address of the current owner."
      },
      "removeAddress(address)": {
        "details": "removes a given address from the whitelist ",
        "params": {
          "_address": "address to remove"
        }
      },
      "renounceOwnership()": {
        "details": "Leaves the contract without owner. It will not be possible to call `onlyOwner` functions anymore. Can only be called by the current owner.     * NOTE: Renouncing ownership will leave the contract without an owner, thereby removing any functionality that is only available to the owner."
      },
      "sell(uint256,uint256,uint256)": {
        "details": "Sell/short with AMM."
      },
      "shareTokenAddress()": {
        "details": "Share token's ERC20 address."
      },
      "transferOwnership(address)": {
        "details": "Transfers ownership of the contract to a new account (`newOwner`). Can only be called by the current owner."
      }
    }
  },
  "userdoc": {
    "methods": {
      "positionSize()": {
        "notice": "Pool's position size (y)."
      }
    }
  }
}