{
  "contractName": "MockSafeMath",
  "abi": [
    {
      "inputs": [
        {
          "internalType": "uint256",
          "name": "a",
          "type": "uint256"
        },
        {
          "internalType": "uint256",
          "name": "b",
          "type": "uint256"
        }
      ],
      "name": "wmul",
      "outputs": [
        {
          "internalType": "uint256",
          "name": "",
          "type": "uint256"
        }
      ],
      "stateMutability": "pure",
      "type": "function"
    },
    {
      "inputs": [
        {
          "internalType": "uint256",
          "name": "a",
          "type": "uint256"
        },
        {
          "internalType": "uint256",
          "name": "b",
          "type": "uint256"
        }
      ],
      "name": "wdiv",
      "outputs": [
        {
          "internalType": "uint256",
          "name": "",
          "type": "uint256"
        }
      ],
      "stateMutability": "pure",
      "type": "function"
    }
  ],
  "bytecode": "0x608060405234801561001057600080fd5b50610223806100206000396000f3fe608060405234801561001057600080fd5b50600436106100365760003560e01c80635fde731c1461003b5780638b9af5c114610070575b600080fd5b61005e6004803603604081101561005157600080fd5b5080359060200135610093565b60408051918252519081900360200190f35b61005e6004803603604081101561008657600080fd5b50803590602001356100ae565b60006100a5838363ffffffff6100c016565b90505b92915050565b60006100a5838363ffffffff6100f116565b6000816100e26100d885670de0b6b3a7640000610119565b6002855b04610172565b816100e957fe5b049392505050565b6000670de0b6b3a76400006100e26101098585610119565b6002670de0b6b3a76400006100dc565b600082610128575060006100a8565b8282028284828161013557fe5b04146100a55760405162461bcd60e51b81526004018080602001828103825260218152602001806101cd6021913960400191505060405180910390fd5b6000828201838110156100a5576040805162461bcd60e51b815260206004820152601b60248201527f536166654d6174683a206164646974696f6e206f766572666c6f770000000000604482015290519081900360640190fdfe536166654d6174683a206d756c7469706c69636174696f6e206f766572666c6f77a264697066735822122066756035135a03da9debd9bcfd72b042c4f0300a64427a05ab54413353c1041864736f6c63430006030033",
  "source": "pragma solidity ^0.6.0;\n\nimport \"../utility/SafeMath.sol\";\n\ncontract MockSafeMath {\n\n    using SafeMath for uint256;\n\n    // function testFail_wmul_overflow() public pure {\n    //     wmul(2 ** 128, 2 ** 128);\n    // }\n    function wmul(uint256 a, uint256 b) public pure returns (uint256) {\n        return a.wmul(b);\n    }\n\n    function wdiv(uint256 a, uint256 b) public pure returns (uint256) {\n        return a.wdiv(b);\n    }\n\n}",
  "sourcePath": "/mnt/d/HARMONY/GRANT-PROPOSAL/TEBS-APP/harmony-hack-main/contracts/contracts/mocks/MockSafeMath.sol",
  "compiler": {
    "name": "solc",
    "version": "0.6.3+commit.8dda9521.Emscripten.clang"
  },
  "schemaVersion": "3.4.1",
  "updatedAt": "2021-12-22T18:59:35.244Z",
  "devdoc": {
    "methods": {}
  },
  "userdoc": {
    "methods": {}
  }
}