{
  "contractName": "Perpetual",
  "abi": [
    {
      "inputs": [
        {
          "internalType": "address",
          "name": "collateralAddress",
          "type": "address"
        },
        {
          "internalType": "address",
          "name": "priceFeederAddress",
          "type": "address"
        }
      ],
      "stateMutability": "nonpayable",
      "type": "constructor"
    },
    {
      "anonymous": false,
      "inputs": [],
      "name": "CreatedPerpetual",
      "type": "event"
    },
    {
      "anonymous": false,
      "inputs": [
        {
          "indexed": true,
          "internalType": "address",
          "name": "trader",
          "type": "address"
        },
        {
          "indexed": false,
          "internalType": "uint256",
          "name": "collateralAmount",
          "type": "uint256"
        }
      ],
      "name": "Deposit",
      "type": "event"
    },
    {
      "anonymous": false,
      "inputs": [
        {
          "indexed": true,
          "internalType": "address",
          "name": "caller",
          "type": "address"
        }
      ],
      "name": "DisableWithdraw",
      "type": "event"
    },
    {
      "anonymous": false,
      "inputs": [
        {
          "indexed": true,
          "internalType": "address",
          "name": "caller",
          "type": "address"
        }
      ],
      "name": "EnableWithdraw",
      "type": "event"
    },
    {
      "anonymous": false,
      "inputs": [
        {
          "indexed": false,
          "internalType": "uint256",
          "name": "price",
          "type": "uint256"
        }
      ],
      "name": "EnterEmergencyStatus",
      "type": "event"
    },
    {
      "anonymous": false,
      "inputs": [
        {
          "indexed": true,
          "internalType": "address",
          "name": "previousOwner",
          "type": "address"
        },
        {
          "indexed": true,
          "internalType": "address",
          "name": "newOwner",
          "type": "address"
        }
      ],
      "name": "OwnershipTransferred",
      "type": "event"
    },
    {
      "anonymous": false,
      "inputs": [
        {
          "indexed": true,
          "internalType": "address",
          "name": "caller",
          "type": "address"
        }
      ],
      "name": "Paused",
      "type": "event"
    },
    {
      "anonymous": false,
      "inputs": [
        {
          "indexed": true,
          "internalType": "address",
          "name": "trader",
          "type": "address"
        },
        {
          "indexed": false,
          "internalType": "enum Types.Side",
          "name": "side",
          "type": "uint8"
        },
        {
          "indexed": false,
          "internalType": "uint256",
          "name": "price",
          "type": "uint256"
        },
        {
          "indexed": false,
          "internalType": "uint256",
          "name": "amount",
          "type": "uint256"
        }
      ],
      "name": "Trade",
      "type": "event"
    },
    {
      "anonymous": false,
      "inputs": [
        {
          "indexed": true,
          "internalType": "address",
          "name": "from",
          "type": "address"
        },
        {
          "indexed": true,
          "internalType": "address",
          "name": "to",
          "type": "address"
        },
        {
          "indexed": false,
          "internalType": "int256",
          "name": "amount",
          "type": "int256"
        },
        {
          "indexed": false,
          "internalType": "int256",
          "name": "balanceFrom",
          "type": "int256"
        },
        {
          "indexed": false,
          "internalType": "int256",
          "name": "balanceTo",
          "type": "int256"
        }
      ],
      "name": "Transfer",
      "type": "event"
    },
    {
      "anonymous": false,
      "inputs": [
        {
          "indexed": true,
          "internalType": "address",
          "name": "caller",
          "type": "address"
        }
      ],
      "name": "Unpaused",
      "type": "event"
    },
    {
      "anonymous": false,
      "inputs": [
        {
          "indexed": true,
          "internalType": "address",
          "name": "trader",
          "type": "address"
        },
        {
          "indexed": false,
          "internalType": "uint256",
          "name": "perpetualTotalSize",
          "type": "uint256"
        },
        {
          "indexed": false,
          "internalType": "uint256",
          "name": "price",
          "type": "uint256"
        }
      ],
      "name": "UpdatePositionAccount",
      "type": "event"
    },
    {
      "inputs": [
        {
          "internalType": "address",
          "name": "_address",
          "type": "address"
        }
      ],
      "name": "addAddress",
      "outputs": [],
      "stateMutability": "nonpayable",
      "type": "function"
    },
    {
      "inputs": [],
      "name": "amm",
      "outputs": [
        {
          "internalType": "contract IAMM",
          "name": "",
          "type": "address"
        }
      ],
      "stateMutability": "view",
      "type": "function",
      "constant": true
    },
    {
      "inputs": [
        {
          "internalType": "address",
          "name": "trader",
          "type": "address"
        }
      ],
      "name": "availableMargin",
      "outputs": [
        {
          "internalType": "int256",
          "name": "",
          "type": "int256"
        }
      ],
      "stateMutability": "nonpayable",
      "type": "function"
    },
    {
      "inputs": [
        {
          "internalType": "uint256",
          "name": "price",
          "type": "uint256"
        }
      ],
      "name": "beginGlobalSettlement",
      "outputs": [],
      "stateMutability": "nonpayable",
      "type": "function"
    },
    {
      "inputs": [],
      "name": "collateralCurrency",
      "outputs": [
        {
          "internalType": "contract IERC20",
          "name": "",
          "type": "address"
        }
      ],
      "stateMutability": "view",
      "type": "function",
      "constant": true
    },
    {
      "inputs": [
        {
          "internalType": "uint256",
          "name": "collateralAmount",
          "type": "uint256"
        }
      ],
      "name": "deposit",
      "outputs": [],
      "stateMutability": "nonpayable",
      "type": "function"
    },
    {
      "inputs": [
        {
          "internalType": "address",
          "name": "trader",
          "type": "address"
        },
        {
          "internalType": "uint256",
          "name": "collateralAmount",
          "type": "uint256"
        }
      ],
      "name": "depositFor",
      "outputs": [],
      "stateMutability": "nonpayable",
      "type": "function"
    },
    {
      "inputs": [],
      "name": "disableWithdraw",
      "outputs": [],
      "stateMutability": "nonpayable",
      "type": "function"
    },
    {
      "inputs": [],
      "name": "enableWithdraw",
      "outputs": [],
      "stateMutability": "nonpayable",
      "type": "function"
    },
    {
      "inputs": [
        {
          "internalType": "address",
          "name": "trader",
          "type": "address"
        }
      ],
      "name": "getPositionEntryFundingLoss",
      "outputs": [
        {
          "internalType": "int256",
          "name": "",
          "type": "int256"
        }
      ],
      "stateMutability": "view",
      "type": "function",
      "constant": true
    },
    {
      "inputs": [
        {
          "internalType": "address",
          "name": "trader",
          "type": "address"
        }
      ],
      "name": "getPositionEntryValue",
      "outputs": [
        {
          "internalType": "uint256",
          "name": "",
          "type": "uint256"
        }
      ],
      "stateMutability": "view",
      "type": "function",
      "constant": true
    },
    {
      "inputs": [
        {
          "internalType": "address",
          "name": "trader",
          "type": "address"
        }
      ],
      "name": "getPositionSide",
      "outputs": [
        {
          "internalType": "enum Types.Side",
          "name": "",
          "type": "uint8"
        }
      ],
      "stateMutability": "view",
      "type": "function",
      "constant": true
    },
    {
      "inputs": [
        {
          "internalType": "address",
          "name": "trader",
          "type": "address"
        }
      ],
      "name": "getPositionSize",
      "outputs": [
        {
          "internalType": "uint256",
          "name": "",
          "type": "uint256"
        }
      ],
      "stateMutability": "view",
      "type": "function",
      "constant": true
    },
    {
      "inputs": [],
      "name": "initialMarginRate",
      "outputs": [
        {
          "internalType": "uint256",
          "name": "",
          "type": "uint256"
        }
      ],
      "stateMutability": "view",
      "type": "function",
      "constant": true
    },
    {
      "inputs": [
        {
          "internalType": "address",
          "name": "trader",
          "type": "address"
        }
      ],
      "name": "isBankrupt",
      "outputs": [
        {
          "internalType": "bool",
          "name": "",
          "type": "bool"
        }
      ],
      "stateMutability": "nonpayable",
      "type": "function"
    },
    {
      "inputs": [
        {
          "internalType": "address",
          "name": "trader",
          "type": "address"
        },
        {
          "internalType": "uint256",
          "name": "currentMarkPrice",
          "type": "uint256"
        }
      ],
      "name": "isIMSafeWithPrice",
      "outputs": [
        {
          "internalType": "bool",
          "name": "",
          "type": "bool"
        }
      ],
      "stateMutability": "nonpayable",
      "type": "function"
    },
    {
      "inputs": [],
      "name": "isOwner",
      "outputs": [
        {
          "internalType": "bool",
          "name": "",
          "type": "bool"
        }
      ],
      "stateMutability": "view",
      "type": "function",
      "constant": true
    },
    {
      "inputs": [
        {
          "internalType": "address",
          "name": "trader",
          "type": "address"
        }
      ],
      "name": "isSafe",
      "outputs": [
        {
          "internalType": "bool",
          "name": "",
          "type": "bool"
        }
      ],
      "stateMutability": "nonpayable",
      "type": "function"
    },
    {
      "inputs": [
        {
          "internalType": "address",
          "name": "trader",
          "type": "address"
        },
        {
          "internalType": "uint256",
          "name": "currentMarkPrice",
          "type": "uint256"
        }
      ],
      "name": "isSafeWithPrice",
      "outputs": [
        {
          "internalType": "bool",
          "name": "",
          "type": "bool"
        }
      ],
      "stateMutability": "nonpayable",
      "type": "function"
    },
    {
      "inputs": [
        {
          "internalType": "uint256",
          "name": "amount",
          "type": "uint256"
        }
      ],
      "name": "isValidLotSize",
      "outputs": [
        {
          "internalType": "bool",
          "name": "",
          "type": "bool"
        }
      ],
      "stateMutability": "view",
      "type": "function",
      "constant": true
    },
    {
      "inputs": [
        {
          "internalType": "uint256",
          "name": "amount",
          "type": "uint256"
        }
      ],
      "name": "isValidTradingLotSize",
      "outputs": [
        {
          "internalType": "bool",
          "name": "",
          "type": "bool"
        }
      ],
      "stateMutability": "view",
      "type": "function",
      "constant": true
    },
    {
      "inputs": [
        {
          "internalType": "address",
          "name": "_address",
          "type": "address"
        }
      ],
      "name": "isWhitelisted",
      "outputs": [
        {
          "internalType": "bool",
          "name": "",
          "type": "bool"
        }
      ],
      "stateMutability": "view",
      "type": "function",
      "constant": true
    },
    {
      "inputs": [],
      "name": "liquidationPenaltyRate",
      "outputs": [
        {
          "internalType": "uint256",
          "name": "",
          "type": "uint256"
        }
      ],
      "stateMutability": "view",
      "type": "function",
      "constant": true
    },
    {
      "inputs": [],
      "name": "lotSize",
      "outputs": [
        {
          "internalType": "uint256",
          "name": "",
          "type": "uint256"
        }
      ],
      "stateMutability": "view",
      "type": "function",
      "constant": true
    },
    {
      "inputs": [
        {
          "internalType": "address",
          "name": "trader",
          "type": "address"
        }
      ],
      "name": "maintenanceMargin",
      "outputs": [
        {
          "internalType": "uint256",
          "name": "",
          "type": "uint256"
        }
      ],
      "stateMutability": "nonpayable",
      "type": "function"
    },
    {
      "inputs": [],
      "name": "maintenanceMarginRate",
      "outputs": [
        {
          "internalType": "uint256",
          "name": "",
          "type": "uint256"
        }
      ],
      "stateMutability": "view",
      "type": "function",
      "constant": true
    },
    {
      "inputs": [],
      "name": "makerDevFeeRate",
      "outputs": [
        {
          "internalType": "int256",
          "name": "",
          "type": "int256"
        }
      ],
      "stateMutability": "view",
      "type": "function",
      "constant": true
    },
    {
      "inputs": [],
      "name": "markPrice",
      "outputs": [
        {
          "internalType": "uint256",
          "name": "",
          "type": "uint256"
        }
      ],
      "stateMutability": "nonpayable",
      "type": "function"
    },
    {
      "inputs": [],
      "name": "owner",
      "outputs": [
        {
          "internalType": "address",
          "name": "",
          "type": "address"
        }
      ],
      "stateMutability": "view",
      "type": "function",
      "constant": true
    },
    {
      "inputs": [],
      "name": "pause",
      "outputs": [],
      "stateMutability": "nonpayable",
      "type": "function"
    },
    {
      "inputs": [],
      "name": "paused",
      "outputs": [
        {
          "internalType": "bool",
          "name": "",
          "type": "bool"
        }
      ],
      "stateMutability": "view",
      "type": "function",
      "constant": true
    },
    {
      "inputs": [],
      "name": "penaltyFundRate",
      "outputs": [
        {
          "internalType": "uint256",
          "name": "",
          "type": "uint256"
        }
      ],
      "stateMutability": "view",
      "type": "function",
      "constant": true
    },
    {
      "inputs": [
        {
          "internalType": "address",
          "name": "trader",
          "type": "address"
        }
      ],
      "name": "pnl",
      "outputs": [
        {
          "internalType": "int256",
          "name": "",
          "type": "int256"
        }
      ],
      "stateMutability": "nonpayable",
      "type": "function"
    },
    {
      "inputs": [
        {
          "internalType": "address",
          "name": "trader",
          "type": "address"
        }
      ],
      "name": "positionMargin",
      "outputs": [
        {
          "internalType": "uint256",
          "name": "",
          "type": "uint256"
        }
      ],
      "stateMutability": "nonpayable",
      "type": "function"
    },
    {
      "inputs": [
        {
          "internalType": "address",
          "name": "",
          "type": "address"
        }
      ],
      "name": "positions",
      "outputs": [
        {
          "internalType": "int256",
          "name": "rawCollateral",
          "type": "int256"
        },
        {
          "internalType": "enum Types.Side",
          "name": "side",
          "type": "uint8"
        },
        {
          "internalType": "uint256",
          "name": "size",
          "type": "uint256"
        },
        {
          "internalType": "uint256",
          "name": "entryValue",
          "type": "uint256"
        },
        {
          "internalType": "int256",
          "name": "entrySocialLoss",
          "type": "int256"
        },
        {
          "internalType": "int256",
          "name": "entryFundingLoss",
          "type": "int256"
        }
      ],
      "stateMutability": "view",
      "type": "function",
      "constant": true
    },
    {
      "inputs": [],
      "name": "priceFeeder",
      "outputs": [
        {
          "internalType": "contract IPriceFeeder",
          "name": "",
          "type": "address"
        }
      ],
      "stateMutability": "view",
      "type": "function",
      "constant": true
    },
    {
      "inputs": [],
      "name": "rawTotalPositionCollateral",
      "outputs": [
        {
          "internalType": "int256",
          "name": "",
          "type": "int256"
        }
      ],
      "stateMutability": "view",
      "type": "function",
      "constant": true
    },
    {
      "inputs": [
        {
          "internalType": "address",
          "name": "_address",
          "type": "address"
        }
      ],
      "name": "removeAddress",
      "outputs": [],
      "stateMutability": "nonpayable",
      "type": "function"
    },
    {
      "inputs": [],
      "name": "renounceOwnership",
      "outputs": [],
      "stateMutability": "nonpayable",
      "type": "function"
    },
    {
      "inputs": [
        {
          "internalType": "uint256",
          "name": "value",
          "type": "uint256"
        }
      ],
      "name": "setInitialMarginRate",
      "outputs": [],
      "stateMutability": "nonpayable",
      "type": "function"
    },
    {
      "inputs": [
        {
          "internalType": "uint256",
          "name": "value",
          "type": "uint256"
        }
      ],
      "name": "setLiquidationPenaltyRate",
      "outputs": [],
      "stateMutability": "nonpayable",
      "type": "function"
    },
    {
      "inputs": [
        {
          "internalType": "uint256",
          "name": "value",
          "type": "uint256"
        }
      ],
      "name": "setLotSize",
      "outputs": [],
      "stateMutability": "nonpayable",
      "type": "function"
    },
    {
      "inputs": [
        {
          "internalType": "uint256",
          "name": "value",
          "type": "uint256"
        }
      ],
      "name": "setMaintenanceMarginRate",
      "outputs": [],
      "stateMutability": "nonpayable",
      "type": "function"
    },
    {
      "inputs": [
        {
          "internalType": "int256",
          "name": "value",
          "type": "int256"
        }
      ],
      "name": "setMakerDevFeeRate",
      "outputs": [],
      "stateMutability": "nonpayable",
      "type": "function"
    },
    {
      "inputs": [
        {
          "internalType": "uint256",
          "name": "value",
          "type": "uint256"
        }
      ],
      "name": "setPenaltyFundRate",
      "outputs": [],
      "stateMutability": "nonpayable",
      "type": "function"
    },
    {
      "inputs": [
        {
          "internalType": "int256",
          "name": "value",
          "type": "int256"
        }
      ],
      "name": "setTakerDevFeeRate",
      "outputs": [],
      "stateMutability": "nonpayable",
      "type": "function"
    },
    {
      "inputs": [
        {
          "internalType": "uint256",
          "name": "value",
          "type": "uint256"
        }
      ],
      "name": "setTradingLotSize",
      "outputs": [],
      "stateMutability": "nonpayable",
      "type": "function"
    },
    {
      "inputs": [],
      "name": "settlementPrice",
      "outputs": [
        {
          "internalType": "uint256",
          "name": "",
          "type": "uint256"
        }
      ],
      "stateMutability": "view",
      "type": "function",
      "constant": true
    },
    {
      "inputs": [
        {
          "internalType": "address",
          "name": "ammAddress",
          "type": "address"
        }
      ],
      "name": "setupAmm",
      "outputs": [],
      "stateMutability": "nonpayable",
      "type": "function"
    },
    {
      "inputs": [
        {
          "internalType": "enum Types.Side",
          "name": "side",
          "type": "uint8"
        }
      ],
      "name": "socialLossPerContract",
      "outputs": [
        {
          "internalType": "int256",
          "name": "",
          "type": "int256"
        }
      ],
      "stateMutability": "view",
      "type": "function",
      "constant": true
    },
    {
      "inputs": [],
      "name": "status",
      "outputs": [
        {
          "internalType": "enum Types.Status",
          "name": "",
          "type": "uint8"
        }
      ],
      "stateMutability": "view",
      "type": "function",
      "constant": true
    },
    {
      "inputs": [],
      "name": "takerDevFeeRate",
      "outputs": [
        {
          "internalType": "int256",
          "name": "",
          "type": "int256"
        }
      ],
      "stateMutability": "view",
      "type": "function",
      "constant": true
    },
    {
      "inputs": [
        {
          "internalType": "address",
          "name": "trader",
          "type": "address"
        }
      ],
      "name": "totalRawCollateral",
      "outputs": [
        {
          "internalType": "int256",
          "name": "collateralAmount",
          "type": "int256"
        }
      ],
      "stateMutability": "view",
      "type": "function",
      "constant": true
    },
    {
      "inputs": [
        {
          "internalType": "enum Types.Side",
          "name": "side",
          "type": "uint8"
        }
      ],
      "name": "totalSize",
      "outputs": [
        {
          "internalType": "uint256",
          "name": "",
          "type": "uint256"
        }
      ],
      "stateMutability": "view",
      "type": "function",
      "constant": true
    },
    {
      "inputs": [],
      "name": "totalTokensOutstanding",
      "outputs": [
        {
          "internalType": "uint256",
          "name": "",
          "type": "uint256"
        }
      ],
      "stateMutability": "view",
      "type": "function",
      "constant": true
    },
    {
      "inputs": [
        {
          "internalType": "address",
          "name": "taker",
          "type": "address"
        },
        {
          "internalType": "address",
          "name": "maker",
          "type": "address"
        },
        {
          "internalType": "enum Types.Side",
          "name": "side",
          "type": "uint8"
        },
        {
          "internalType": "uint256",
          "name": "price",
          "type": "uint256"
        },
        {
          "internalType": "uint256",
          "name": "amount",
          "type": "uint256"
        }
      ],
      "name": "tradePosition",
      "outputs": [
        {
          "internalType": "uint256",
          "name": "takerOpened",
          "type": "uint256"
        },
        {
          "internalType": "uint256",
          "name": "makerOpened",
          "type": "uint256"
        }
      ],
      "stateMutability": "nonpayable",
      "type": "function"
    },
    {
      "inputs": [],
      "name": "tradingLotSize",
      "outputs": [
        {
          "internalType": "uint256",
          "name": "",
          "type": "uint256"
        }
      ],
      "stateMutability": "view",
      "type": "function",
      "constant": true
    },
    {
      "inputs": [
        {
          "internalType": "address",
          "name": "from",
          "type": "address"
        },
        {
          "internalType": "address",
          "name": "to",
          "type": "address"
        },
        {
          "internalType": "int256",
          "name": "amount",
          "type": "int256"
        }
      ],
      "name": "transferCollateral",
      "outputs": [],
      "stateMutability": "nonpayable",
      "type": "function"
    },
    {
      "inputs": [
        {
          "internalType": "address",
          "name": "newOwner",
          "type": "address"
        }
      ],
      "name": "transferOwnership",
      "outputs": [],
      "stateMutability": "nonpayable",
      "type": "function"
    },
    {
      "inputs": [],
      "name": "unpause",
      "outputs": [],
      "stateMutability": "nonpayable",
      "type": "function"
    },
    {
      "inputs": [
        {
          "internalType": "uint256",
          "name": "collateralAmount",
          "type": "uint256"
        }
      ],
      "name": "withdraw",
      "outputs": [],
      "stateMutability": "nonpayable",
      "type": "function"
    },
    {
      "inputs": [],
      "name": "withdrawDisabled",
      "outputs": [
        {
          "internalType": "bool",
          "name": "",
          "type": "bool"
        }
      ],
      "stateMutability": "view",
      "type": "function",
      "constant": true
    },
    {
      "inputs": [
        {
          "internalType": "address",
          "name": "trader",
          "type": "address"
        },
        {
          "internalType": "uint256",
          "name": "collateralAmount",
          "type": "uint256"
        }
      ],
      "name": "withdrawFor",
      "outputs": [],
      "stateMutability": "nonpayable",
      "type": "function"
    }
  ],
  "bytecode": "0x60806040526007805461ffff60a01b1916905567016345785d8a000060105566b1a2bc2ec500006011556611c37937e080006012819055601355662386f26fc100006014819055601555600160168190556017553480156200006057600080fd5b5060405162003e4538038062003e45833981810160405260408110156200008657600080fd5b5080516020909101516000805460ff1916600117815582908290620000b36001600160e01b03620001b516565b60008054610100600160a81b0319166101006001600160a01b038416908102919091178255604051929350917f8be0079c531659141344cd1fd0a4f28419497f9722a3daafe3b4186f6b6457e0908290a350620001186001600160e01b03620001b916565b6200012b6001600160e01b036200021316565b600580546001600160a01b038084166001600160a01b03199283161790925560068054928516929091169190911790556200016f336001600160e01b036200021f16565b6040517fd8b52e29a912ec27de0834ca0a1b4283cc003f1707d8d485e55333c6c4a217de90600090a1620001ab6001600160e01b036200031f16565b5050505062000359565b3390565b60005460ff1662000211576040805162461bcd60e51b815260206004820152601f60248201527f5265656e7472616e637947756172643a207265656e7472616e742063616c6c00604482015290519081900360640190fd5b565b6000805460ff19169055565b620002326001600160e01b036200032e16565b62000284576040805162461bcd60e51b815260206004820181905260248201527f4f776e61626c653a2063616c6c6572206973206e6f7420746865206f776e6572604482015290519081900360640190fd5b806001600160a01b038116620002cc5760405162461bcd60e51b815260040180806020018281038252602781526020018062003e1e6027913960400191505060405180910390fd5b6001600160a01b03821660009081526001602052604090205460ff1615620002f4576200031b565b6001600160a01b0382166000908152600160208190526040909120805460ff191690911790555b5050565b6000805460ff19166001179055565b6000805461010090046001600160a01b03166200034a620001b5565b6001600160a01b031614905090565b613ab580620003696000396000f3fe608060405234801561001057600080fd5b50600436106103c55760003560e01c8063769a28ac116101ff578063b6ffd04e1161011a578063db518db2116100ad578063f348e8b21161007c578063f348e8b214610a2e578063f4d6045814610a36578063f50c138b14610a6c578063f566d20814610a98576103c5565b8063db518db21461099f578063ee982382146109cb578063f1a4d322146109eb578063f2fde38b14610a08576103c5565b8063ce8d388d116100e9578063ce8d388d1461094c578063d47cd97514610954578063d84ff81d1461097a578063da89433c14610982576103c5565b8063b6ffd04e1461090e578063b884110b14610916578063ba3599811461091e578063c9e97c1514610926576103c5565b80638f32d59b116101925780639ddc3c3d116101615780639ddc3c3d1461089a578063af71590e146108b7578063afc3e06b146108d4578063b6b55f25146108f1576103c5565b80638f32d59b1461082657806391cc5d581461082e57806391ce5eee14610854578063930dd39c1461087a576103c5565b806389f00b6d116101ce57806389f00b6d146107f15780638c382eb2146107f95780638c91d421146108015780638da5cb5b1461081e576103c5565b8063769a28ac1461079557806377b17524146107bb5780637c4aadd9146107c35780638456cb59146107e9576103c5565b806338eada1c116102ef57806355f575101161028257806367e93c081161025157806367e93c0814610724578063711d4d5514610741578063715018a6146107675780637574ac0b1461076f576103c5565b806355f57510146106815780635b984ff6146106ee5780635c975abb146106f65780636027f7a8146106fe576103c5565b806345a15a01116102be57806345a15a01146106435780634942f65f1461064b5780634ba79dfe146106535780635323fa7514610679576103c5565b806338eada1c146105be5780633af32abf146105e45780633f4ba83a1461061e578063445ee7c614610626576103c5565b806322202001116103675780632b316a0b116103365780632b316a0b146105325780632e1a7d4d146105585780632f4f21e21461057557806334591a3e146105a1576103c5565b806322202001146104e6578063242dd5e6146104ee5780632a61a1531461050d5780632a9439451461052a576103c5565b806319d3b88b116103a357806319d3b88b1461042e5780631fada4851461048c578063200d2ed21461049457806321c5a6fa146104c0576103c5565b80630c9229ca146103ca5780630c9d7eb6146103e45780630de15fd91461040a575b600080fd5b6103d2610ac4565b60408051918252519081900360200190f35b6103d2600480360360208110156103fa57600080fd5b50356001600160a01b0316610aca565b610412610aed565b604080516001600160a01b039092168252519081900360200190f35b610473600480360360a081101561044457600080fd5b506001600160a01b03813581169160208101359091169060ff6040820135169060608101359060800135610afc565b6040805192835260208301919091528051918290030190f35b610412610e17565b61049c610e26565b604051808260028111156104ac57fe5b60ff16815260200191505060405180910390f35b6103d2600480360360208110156104d657600080fd5b50356001600160a01b0316610e36565b6103d2610e4f565b61050b6004803603602081101561050457600080fd5b5035610e55565b005b61050b6004803603602081101561052357600080fd5b5035610ef9565b610412610f9d565b6103d26004803603602081101561054857600080fd5b50356001600160a01b0316610fac565b61050b6004803603602081101561056e57600080fd5b5035610fbf565b61050b6004803603604081101561058b57600080fd5b506001600160a01b038135169060200135610fcc565b61050b600480360360208110156105b757600080fd5b503561102f565b61050b600480360360208110156105d457600080fd5b50356001600160a01b03166110d3565b61060a600480360360208110156105fa57600080fd5b50356001600160a01b03166111b1565b604080519115158252519081900360200190f35b61050b6111cf565b61050b6004803603602081101561063c57600080fd5b50356112a9565b6103d261134d565b6103d2611456565b61050b6004803603602081101561066957600080fd5b50356001600160a01b031661145c565b6103d26114e9565b6106a76004803603602081101561069757600080fd5b50356001600160a01b03166114ef565b604051808781526020018660028111156106bd57fe5b60ff168152602001858152602001848152602001838152602001828152602001965050505050505060405180910390f35b61050b611529565b61060a611605565b6103d26004803603602081101561071457600080fd5b50356001600160a01b0316611615565b61050b6004803603602081101561073a57600080fd5b5035611628565b6103d26004803603602081101561075757600080fd5b50356001600160a01b03166116cc565b61050b6116df565b61050b6004803603602081101561078557600080fd5b50356001600160a01b0316611775565b61060a600480360360208110156107ab57600080fd5b50356001600160a01b03166117ed565b6103d261180b565b61060a600480360360208110156107d957600080fd5b50356001600160a01b0316611811565b61050b61182c565b6103d2611911565b6103d2611917565b61050b6004803603602081101561081757600080fd5b503561191d565b6104126119c1565b61060a6119d5565b61049c6004803603602081101561084457600080fd5b50356001600160a01b03166119fe565b6103d26004803603602081101561086a57600080fd5b50356001600160a01b0316611a1f565b6103d26004803603602081101561089057600080fd5b503560ff16611a3a565b61050b600480360360208110156108b057600080fd5b5035611a5c565b61050b600480360360208110156108cd57600080fd5b5035611b00565b61060a600480360360208110156108ea57600080fd5b5035611ba4565b61050b6004803603602081101561090757600080fd5b5035611bcb565b6103d2611bd5565b61060a611bdb565b6103d2611beb565b6103d26004803603602081101561093c57600080fd5b50356001600160a01b0316611bf1565b61050b611c0f565b6103d26004803603602081101561096a57600080fd5b50356001600160a01b0316611cf6565b6103d2611d14565b61060a6004803603602081101561099857600080fd5b5035611d1a565b61050b600480360360408110156109b557600080fd5b506001600160a01b038135169060200135611d3a565b6103d2600480360360208110156109e157600080fd5b503560ff16611d98565b61050b60048036036020811015610a0157600080fd5b5035611da8565b61050b60048036036020811015610a1e57600080fd5b50356001600160a01b0316611eb1565b6103d2611f01565b61050b60048036036060811015610a4c57600080fd5b506001600160a01b03813581169160208101359091169060400135611f07565b61060a60048036036040811015610a8257600080fd5b506001600160a01b038135169060200135612143565b61060a60048036036040811015610aae57600080fd5b506001600160a01b038135169060200135612159565b60035481565b6001600160a01b038116600090815260026020819052604090912001545b919050565b6006546001600160a01b031681565b6007546000908190600160a01b900460ff1615610b50576040805162461bcd60e51b815260206004820152600d60248201526c1cde5cdd195b481c185d5cd959609a1b604482015290519081900360640190fd5b6000610b5a612177565b9050610b65816111b1565b610ba4576040805162461bcd60e51b81526020600482018190526024820152600080516020613a60833981519152604482015290519081900360640190fd5b6001600754600160b01b900460ff166002811115610bbe57fe5b1415610c0a576040805162461bcd60e51b815260206004820152601660248201527577726f6e672070657270657475616c2073746174757360501b604482015290519081900360640190fd5b6002866002811115610c1857fe5b1480610c2f57506001866002811115610c2d57fe5b145b610c80576040805162461bcd60e51b815260206004820152601a60248201527f73696465206d757374206265206c6f6e67206f722073686f7274000000000000604482015290519081900360640190fd5b610c8984611ba4565b610cc45760405162461bcd60e51b8152600401808060200182810382526023815260200180613a1c6023913960400191505060405180910390fd5b610cd08887878761217b565b9250610ce687610cdf886122f0565b878761217b565b9150610cf26001611d98565b610cfc6002611d98565b14610d46576040805162461bcd60e51b8152602060048201526015602482015274696d62616c616e63656420746f74616c2073697a6560581b604482015290519081900360640190fd5b876001600160a01b03167f135cf68d1e6a12ec6a39f6b6aada223fb652ff83463299e701e94d96f515ec9287878760405180846002811115610d8457fe5b60ff168152602001838152602001828152602001935050505060405180910390a2866001600160a01b03167f135cf68d1e6a12ec6a39f6b6aada223fb652ff83463299e701e94d96f515ec92610dd9886122f0565b878760405180846002811115610deb57fe5b60ff168152602001838152602001828152602001935050505060405180910390a2509550959350505050565b6005546001600160a01b031681565b600754600160b01b900460ff1681565b6000610e4982610e4461134d565b61232e565b92915050565b60155481565b6000610e5f612177565b9050610e6a816111b1565b610ea9576040805162461bcd60e51b81526020600482018190526024820152600080516020613a60833981519152604482015290519081900360640190fd5b816014541415610ef3576040805162461bcd60e51b815260206004820152601060248201526f6475706c6963617465642076616c756560801b604482015290519081900360640190fd5b50601455565b6000610f03612177565b9050610f0e816111b1565b610f4d576040805162461bcd60e51b81526020600482018190526024820152600080516020613a60833981519152604482015290519081900360640190fd5b816015541415610f97576040805162461bcd60e51b815260206004820152601060248201526f6475706c6963617465642076616c756560801b604482015290519081900360640190fd5b50601555565b6007546001600160a01b031681565b6000610e4982610fba61134d565b61236f565b610fc933826123a2565b50565b6000610fd6612177565b9050610fe1816111b1565b611020576040805162461bcd60e51b81526020600482018190526024820152600080516020613a60833981519152604482015290519081900360640190fd5b61102a83836127d8565b505050565b6000611039612177565b9050611044816111b1565b611083576040805162461bcd60e51b81526020600482018190526024820152600080516020613a60833981519152604482015290519081900360640190fd5b8160165414156110cd576040805162461bcd60e51b815260206004820152601060248201526f6475706c6963617465642076616c756560801b604482015290519081900360640190fd5b50601655565b6110db6119d5565b61111a576040805162461bcd60e51b81526020600482018190526024820152600080516020613a60833981519152604482015290519081900360640190fd5b806001600160a01b0381166111605760405162461bcd60e51b81526004018080602001828103825260278152602001806139cf6027913960400191505060405180910390fd5b6001600160a01b03821660009081526001602052604090205460ff1615611186576111ad565b6001600160a01b0382166000908152600160208190526040909120805460ff191690911790555b5050565b6001600160a01b031660009081526001602052604090205460ff1690565b60006111d9612177565b90506111e4816111b1565b611223576040805162461bcd60e51b81526020600482018190526024820152600080516020613a60833981519152604482015290519081900360640190fd5b600754600160a01b900460ff1661126e576040805162461bcd60e51b815260206004820152600a6024820152691b9bdd081c185d5cd95960b21b604482015290519081900360640190fd5b6007805460ff60a01b1916905560405133907f5db9ee0a495bf2e6ff9c91a7834c1ba4fdd244a5e8aa4e537bd38aeae4b073aa90600090a250565b60006112b3612177565b90506112be816111b1565b6112fd576040805162461bcd60e51b81526020600482018190526024820152600080516020613a60833981519152604482015290519081900360640190fd5b816013541415611347576040805162461bcd60e51b815260206004820152601060248201526f6475706c6963617465642076616c756560801b604482015290519081900360640190fd5b50601355565b6007546000906001600160a01b03166113ad576040805162461bcd60e51b815260206004820181905260248201527f6e6f206175746f6d61746564206d61726b6574206d616b657220697320736574604482015290519081900360640190fd5b6000600754600160b01b900460ff1660028111156113c757fe5b146113d457600f54611451565b600760009054906101000a90046001600160a01b03166001600160a01b031663de12bcac6040518163ffffffff1660e01b8152600401602060405180830381600087803b15801561142457600080fd5b505af1158015611438573d6000803e3d6000fd5b505050506040513d602081101561144e57600080fd5b50515b905090565b60165481565b6114646119d5565b6114a3576040805162461bcd60e51b81526020600482018190526024820152600080516020613a60833981519152604482015290519081900360640190fd5b6001600160a01b03811660009081526001602052604090205460ff166114c857610fc9565b6001600160a01b03166000908152600160205260409020805460ff19169055565b60105481565b6002602081905260009182526040909120805460018201549282015460038301546004840154600590940154929460ff1693919290919086565b6000611533612177565b905061153e816111b1565b61157d576040805162461bcd60e51b81526020600482018190526024820152600080516020613a60833981519152604482015290519081900360640190fd5b600754600160a81b900460ff166115ca576040805162461bcd60e51b815260206004820152600c60248201526b1b9bdd08191a5cd8589b195960a21b604482015290519081900360640190fd5b6007805460ff60a81b1916905560405133907f8a94b2423eefb7db610e590b6d43fc5d17674a1f258f529b2e061194a99bc0e590600090a250565b600754600160a01b900460ff1681565b6000610e498261162361134d565b6129e4565b6000611632612177565b905061163d816111b1565b61167c576040805162461bcd60e51b81526020600482018190526024820152600080516020613a60833981519152604482015290519081900360640190fd5b8160115414156116c6576040805162461bcd60e51b815260206004820152601060248201526f6475706c6963617465642076616c756560801b604482015290519081900360640190fd5b50601155565b6000610e49826116da61134d565b612a19565b6116e76119d5565b611726576040805162461bcd60e51b81526020600482018190526024820152600080516020613a60833981519152604482015290519081900360640190fd5b600080546040516101009091046001600160a01b0316907f8be0079c531659141344cd1fd0a4f28419497f9722a3daafe3b4186f6b6457e0908390a360008054610100600160a81b0319169055565b600061177f612177565b905061178a816111b1565b6117c9576040805162461bcd60e51b81526020600482018190526024820152600080516020613a60833981519152604482015290519081900360640190fd5b600780546001600160a01b0319166001600160a01b0384161790556111ad826110d3565b6000806117f861134d565b90506118048382612159565b9392505050565b60175481565b6000806118258361182061134d565b612a52565b1292915050565b6000611836612177565b9050611841816111b1565b611880576040805162461bcd60e51b81526020600482018190526024820152600080516020613a60833981519152604482015290519081900360640190fd5b600754600160a01b900460ff16156118d0576040805162461bcd60e51b815260206004820152600e60248201526d185b1c9958591e481c185d5cd95960921b604482015290519081900360640190fd5b6007805460ff60a01b1916600160a01b17905560405133907f62e78cea01bee320cd4e420270b5ea74000d11b0c9f74754ebdbfc544b05a25890600090a250565b60115481565b60045481565b6000611927612177565b9050611932816111b1565b611971576040805162461bcd60e51b81526020600482018190526024820152600080516020613a60833981519152604482015290519081900360640190fd5b8160125414156119bb576040805162461bcd60e51b815260206004820152601060248201526f6475706c6963617465642076616c756560801b604482015290519081900360640190fd5b50601255565b60005461010090046001600160a01b031690565b6000805461010090046001600160a01b03166119ef612177565b6001600160a01b031614905090565b6001600160a01b031660009081526002602052604090206001015460ff1690565b6001600160a01b031660009081526002602052604090205490565b6000600b826002811115611a4a57fe5b60038110611a5457fe5b015492915050565b6000611a66612177565b9050611a71816111b1565b611ab0576040805162461bcd60e51b81526020600482018190526024820152600080516020613a60833981519152604482015290519081900360640190fd5b816010541415611afa576040805162461bcd60e51b815260206004820152601060248201526f6475706c6963617465642076616c756560801b604482015290519081900360640190fd5b50601055565b6000611b0a612177565b9050611b15816111b1565b611b54576040805162461bcd60e51b81526020600482018190526024820152600080516020613a60833981519152604482015290519081900360640190fd5b816017541415611b9e576040805162461bcd60e51b815260206004820152601060248201526f6475706c6963617465642076616c756560801b604482015290519081900360640190fd5b50601755565b60008082118015610e495750601654611bc490839063ffffffff612a8616565b1592915050565b610fc933826127d8565b60125481565b600754600160a81b900460ff1681565b60145481565b6001600160a01b031660009081526002602052604090206005015490565b6000611c19612177565b9050611c24816111b1565b611c63576040805162461bcd60e51b81526020600482018190526024820152600080516020613a60833981519152604482015290519081900360640190fd5b600754600160a81b900460ff1615611cb5576040805162461bcd60e51b815260206004820152601060248201526f185b1c9958591e48191a5cd8589b195960821b604482015290519081900360640190fd5b6007805460ff60a81b1916600160a81b17905560405133907f5ef8a0361ae9c045897f902c7385aff40b9b8b99c3d05dce51d7151b5c8adaf890600090a250565b6001600160a01b031660009081526002602052604090206003015490565b60135481565b60008082118015610e495750601754611bc490839063ffffffff612a8616565b6000611d44612177565b9050611d4f816111b1565b611d8e576040805162461bcd60e51b81526020600482018190526024820152600080516020613a60833981519152604482015290519081900360640190fd5b61102a83836123a2565b60006008826002811115611a4a57fe5b6000611db2612177565b9050611dbd816111b1565b611dfc576040805162461bcd60e51b81526020600482018190526024820152600080516020613a60833981519152604482015290519081900360640190fd5b6002600754600160b01b900460ff166002811115611e1657fe5b1415611e62576040805162461bcd60e51b815260206004820152601660248201527577726f6e672070657270657475616c2073746174757360501b604482015290519081900360640190fd5b6007805460ff60b01b1916600160b01b179055600f8290556040805183815290517fa8c07d4ddb7eb4e7ba9a183be644aad9367c0f05c8bded6d8de71af6e8f66c2c9181900360200190a15050565b611eb96119d5565b611ef8576040805162461bcd60e51b81526020600482018190526024820152600080516020613a60833981519152604482015290519081900360640190fd5b610fc981612ac8565b600f5481565b600754600160a01b900460ff1615611f56576040805162461bcd60e51b815260206004820152600d60248201526c1cde5cdd195b481c185d5cd959609a1b604482015290519081900360640190fd5b6000611f60612177565b9050611f6b816111b1565b611faa576040805162461bcd60e51b81526020600482018190526024820152600080516020613a60833981519152604482015290519081900360640190fd5b6001600754600160b01b900460ff166002811115611fc457fe5b1415612010576040805162461bcd60e51b815260206004820152601660248201527577726f6e672070657270657475616c2073746174757360501b604482015290519081900360640190fd5b8161201a5761213d565b6000821361206f576040805162461bcd60e51b815260206004820152601d60248201527f616d6f756e74206d7573742062652067726561746572207468616e2030000000604482015290519081900360640190fd5b6001600160a01b038416600090815260026020526040902054612098908363ffffffff612b7316565b6001600160a01b0380861660009081526002602052604080822093909355908516815220546120cd908363ffffffff612be516565b6001600160a01b038085166000818152600260209081526040808320869055938916808352848320549284905284518881529182019290925280840194909452915190927f1ac10aeb02067cb92b39c4fafbffea6b5f480eca5028634920adbb8e20d6ae70919081900360600190a35b50505050565b6000806121508484612a19565b12159392505050565b600061216d61216884846129e4565b612c54565b6121508484612a52565b3390565b6001600160a01b03841660009081526002602081905260408220600181015491810154849284929160ff90911690158015906121d457508760028111156121be57fe5b600183015460ff1660028111156121d157fe5b14155b1561220f5760028201546121ee908763ffffffff612ca516565b92506121fb828885612cbc565b5061220c848463ffffffff612dfe16565b93505b83156122215761222182898987612e40565b6001600160a01b0389166000908152600260208190526040909120835481556001808501548183018054879560ff90931693919260ff199091169190849081111561226857fe5b021790555060028201548160020155600382015481600301556004820154816004015560058201548160050155905050886001600160a01b03167fed6e32023de4785adb61a77ae256892b00e3b06204ccb3512fb6f128fccfaea46122cc83611d98565b60408051918252602082018b90528051918290030190a25091979650505050505050565b6000600282600281111561230057fe5b141561230e57506001610ae8565b600182600281111561231c57fe5b141561232a57506002610ae8565b5090565b6010546001600160a01b038316600090815260026020819052604082200154909161180491612363908563ffffffff612fea16565b9063ffffffff612fea16565b6001600160a01b038216600090815260026020819052604082209081015461239a9082908590613023565b949350505050565b600754600160a01b900460ff16156123f1576040805162461bcd60e51b815260206004820152600d60248201526c1cde5cdd195b481c185d5cd959609a1b604482015290519081900360640190fd5b6123f961313c565b612401613195565b6007546001600160a01b031661245e576040805162461bcd60e51b815260206004820181905260248201527f6e6f206175746f6d61746564206d61726b6574206d616b657220697320736574604482015290519081900360640190fd5b600754600160a81b900460ff16156124b1576040805162461bcd60e51b81526020600482015260116024820152701dda5d1a191c985dc8191a5cd8589b1959607a1b604482015290519081900360640190fd5b6000600754600160b01b900460ff1660028111156124cb57fe5b14612516576040805162461bcd60e51b815260206004820152601660248201527577726f6e672070657270657475616c2073746174757360501b604482015290519081900360640190fd5b6000811161256b576040805162461bcd60e51b815260206004820152601d60248201527f616d6f756e74206d7573742062652067726561746572207468616e2030000000604482015290519081900360640190fd5b6001600160a01b0382166125c6576040805162461bcd60e51b815260206004820152601c60248201527f63616e6e6f7420776974686472617720746f2030206164647265737300000000604482015290519081900360640190fd5b6001600160a01b0382166000908152600260205260408120906125e761134d565b90506125f38482612159565b61263d576040805162461bcd60e51b8152602060048201526016602482015275756e73616665206265666f726520776974686472617760501b604482015290519081900360640190fd5b815461264884612c54565b1315612692576040805162461bcd60e51b8152602060048201526014602482015273696e73756666696369656e742062616c616e636560601b604482015290519081900360640190fd5b61269c84826131a1565b6126a682846132a7565b6126b08482612159565b6126f9576040805162461bcd60e51b8152602060048201526015602482015274756e7361666520616674657220776974686472617760581b604482015290519081900360640190fd5b60006127058583612a19565b121561274a576040805162461bcd60e51b815260206004820152600f60248201526e3bb4ba34323930bb9036b0b933b4b760891b604482015290519081900360640190fd5b6006546040805163a9059cbb60e01b81526001600160a01b038781166004830152602482018790529151919092169163a9059cbb9160448083019260209291908290030181600087803b1580156127a057600080fd5b505af11580156127b4573d6000803e3d6000fd5b505050506040513d60208110156127ca57600080fd5b506111ad92506132e5915050565b600754600160a01b900460ff1615612827576040805162461bcd60e51b815260206004820152600d60248201526c1cde5cdd195b481c185d5cd959609a1b604482015290519081900360640190fd5b61282f61313c565b612837613195565b612840816132f4565b60008111612895576040805162461bcd60e51b815260206004820152601d60248201527f616d6f756e74206d7573742062652067726561746572207468616e2030000000604482015290519081900360640190fd5b6001600160a01b0382166128f0576040805162461bcd60e51b815260206004820152601b60248201527f63616e6e6f74206465706f73697420746f203020616464726573730000000000604482015290519081900360640190fd5b6001600160a01b038216600090815260026020526040902061291281836133ac565b6040805183815290516001600160a01b038516917fe1fffcc4923d04b559f4d29a8bfc6cda04eb5b0d3c460751c2402c5c5cc9109c919081900360200190a2600654604080516323b872dd60e01b81526001600160a01b03868116600483015230602483015260448201869052915191909216916323b872dd9160648083019260209291908290030181600087803b1580156129ad57600080fd5b505af11580156129c1573d6000803e3d6000fd5b505050506040513d60208110156129d757600080fd5b506111ad91506132e59050565b6011546001600160a01b038316600090815260026020819052604082200154909161180491612363908563ffffffff612fea16565b600080612a268484612a52565b90506000612a37612168868661232e565b9050612a49828263ffffffff612b7316565b95945050505050565b6000611804612a61848461236f565b6001600160a01b0385166000908152600260205260409020549063ffffffff612be516565b600061180483836040518060400160405280601881526020017f536166654d6174683a206d6f64756c6f206279207a65726f00000000000000008152506133e3565b6001600160a01b038116612b0d5760405162461bcd60e51b81526004018080602001828103825260268152602001806139f66026913960400191505060405180910390fd5b600080546040516001600160a01b038085169361010090930416917f8be0079c531659141344cd1fd0a4f28419497f9722a3daafe3b4186f6b6457e091a3600080546001600160a01b0390921661010002610100600160a81b0319909216919091179055565b6000818303818312801590612b885750838113155b80612b9d5750600083128015612b9d57508381135b611804576040805162461bcd60e51b81526020600482015260146024820152737375627472616374696f6e206f766572666c6f7760601b604482015290519081900360640190fd5b6000828201818312801590612bfa5750838112155b80612c0f5750600083128015612c0f57508381125b611804576040805162461bcd60e51b81526020600482015260116024820152706164646974696f6e206f766572666c6f7760781b604482015290519081900360640190fd5b60006001600160ff1b0382111561232a576040805162461bcd60e51b815260206004820152601060248201526f75696e74323536206f766572666c6f7760801b604482015290519081900360640190fd5b600081831115612cb55781611804565b5090919050565b600080612cca858585613023565b8554909150612cdf908263ffffffff612be516565b85556002850154612d2d90612cf390612c54565b612d21612d10612168878a60020154612dfe90919063ffffffff16565b60048901549063ffffffff61348216565b9063ffffffff6134b716565b60048601556002850154612d7290612d4490612c54565b612d21612d61612168878a60020154612dfe90919063ffffffff16565b60058901549063ffffffff61348216565b60058601556002850154612db090612da4612d93828763ffffffff612dfe16565b60038901549063ffffffff612fea16565b9063ffffffff6134ea16565b60038601556002850154612dca908463ffffffff612dfe16565b60028601556001850154612de19060ff168461350a565b600285015461239a5760018501805460ff19169055949350505050565b600061180483836040518060400160405280601e81526020017f536166654d6174683a207375627472616374696f6e206f766572666c6f770000815250613552565b60008111612e8b576040805162461bcd60e51b81526020600482015260136024820152721bdc195b8e881a5b9d985b1908185b5bdd5b9d606a1b604482015290519081900360640190fd5b6002840154612eb65760018085018054859260ff1990911690836002811115612eb057fe5b02179055505b6002840154612ecb908263ffffffff6135ac16565b6002850155612ef4612ee3838363ffffffff612fea16565b60038601549063ffffffff6135ac16565b6003850155612f2e612f1d612f0883612c54565b612f1186611a3a565b9063ffffffff61348216565b60048601549063ffffffff612be516565b6004850155612fdb612fca612f4283612c54565b600760009054906101000a90046001600160a01b03166001600160a01b03166395af65dd6040518163ffffffff1660e01b8152600401602060405180830381600087803b158015612f9257600080fd5b505af1158015612fa6573d6000803e3d6000fd5b505050506040513d6020811015612fbc57600080fd5b50519063ffffffff61348216565b60058601549063ffffffff612be516565b600585015561213d8382613606565b6000670de0b6b3a76400006130146130028585613630565b6002670de0b6b3a76400005b046135ac565b8161301b57fe5b049392505050565b600083600201546000141561303a57506000611804565b600061304f612168858563ffffffff612fea16565b9050600085600201548414156130735761306c8660030154612c54565b9050613096565b61309361216885886002015489600301546136899092919063ffffffff16565b90505b60006002600188015460ff1660028111156130ad57fe5b146130c7576130c2828463ffffffff612b7316565b6130d7565b6130d7838363ffffffff612b7316565b905080156130f3576130f081600163ffffffff612b7316565b90505b60006130ff88876136a6565b9050600061310d8988613753565b905061312f81613123858563ffffffff612b7316565b9063ffffffff612b7316565b9998505050505050505050565b60005460ff16613193576040805162461bcd60e51b815260206004820152601f60248201527f5265656e7472616e637947756172643a207265656e7472616e742063616c6c00604482015290519081900360640190fd5b565b6000805460ff19169055565b6001600160a01b0382166000908152600260208190526040909120908101546131ca57506111ad565b60006131db82848460020154613023565b82549091506131f0908263ffffffff612be516565b8255600282015461320890849063ffffffff612fea16565b600383015560028201546132309061321f90612c54565b6001840154612f119060ff16611a3a565b6004830155600282015461324790612f4290612c54565b600583015560018201546001600160a01b038516907fed6e32023de4785adb61a77ae256892b00e3b06204ccb3512fb6f128fccfaea49061328a9060ff16611d98565b60408051918252602082018790528051918290030190a250505050565b6132c16132b382612c54565b83549063ffffffff612b7316565b82556132de6132cf82612c54565b6004549063ffffffff612b7316565b6004555050565b6000805460ff19166001179055565b60006132fe61381b565b90503415613346576040805162461bcd60e51b815260206004820152601060248201526f616c6c6f77206572633230206f6e6c7960801b604482015290519081900360640190fd5b808015613351575034155b8061336457508015801561336457508134145b6111ad576040805162461bcd60e51b8152602060048201526014602482015273696e636f72726563742073656e742076616c756560601b604482015290519081900360640190fd5b6133c66133b882612c54565b83549063ffffffff612be516565b82556132de6133d482612c54565b6004549063ffffffff612be516565b6000818361346f5760405162461bcd60e51b81526004018080602001828103825283818151815260200191508051906020019080838360005b8381101561343457818101518382015260200161341c565b50505050905090810190601f1680156134615780820380516001836020036101000a031916815260200191505b509250505060405180910390fd5b5082848161347957fe5b06949350505050565b6000670de0b6b3a76400006134a861349a858561382c565b670de0b6b3a76400006138f7565b816134af57fe5b059392505050565b6000808212156134ce578160000391508260000392505b816134a86134e485670de0b6b3a764000061382c565b846138f7565b60008161301461350285670de0b6b3a7640000613630565b60028561300e565b61353481600884600281111561351c57fe5b6003811061352657fe5b01549063ffffffff612dfe16565b600883600281111561354257fe5b6003811061354c57fe5b01555050565b600081848411156135a45760405162461bcd60e51b815260206004820181815283516024840152835190928392604490910191908501908083836000831561343457818101518382015260200161341c565b505050900390565b600082820183811015611804576040805162461bcd60e51b815260206004820152601b60248201527f536166654d6174683a206164646974696f6e206f766572666c6f770000000000604482015290519081900360640190fd5b61353481600884600281111561361857fe5b6003811061362257fe5b01549063ffffffff6135ac16565b60008261363f57506000610e49565b8282028284828161364c57fe5b04146118045760405162461bcd60e51b8152600401808060200182810382526021815260200180613a3f6021913960400191505060405180910390fd5b6000816136968585613630565b8161369d57fe5b04949350505050565b6000816136b557506000610e49565b60006136d46136c384612c54565b6001860154612f119060ff16611a3a565b905083600201548314156136ff5760048401546136f890829063ffffffff612b7316565b9050611804565b61373a61372d61370e85612c54565b61371b8760020154612c54565b6004880154919063ffffffff61397616565b829063ffffffff612b7316565b905080156118045761239a81600163ffffffff612be516565b60008161376257506000610e49565b6000613770612f4284612c54565b9050836002015483141561379b57600584015461379490829063ffffffff612b7316565b90506137cc565b6137c961372d6137aa85612c54565b6137b78760020154612c54565b6005880154919063ffffffff61397616565b90505b60018085015460ff1660028111156137e057fe5b14156137f2576137ef816139c1565b90505b8015801590613805575083600201548314155b156118045761239a81600163ffffffff612be516565b6006546001600160a01b0316151590565b60008261383b57506000610e49565b8260001914801561384f5750600160ff1b82145b1561389c576040805162461bcd60e51b8152602060048201526018602482015277776d756c7469706c69636174696f6e206f766572666c6f7760401b604482015290519081900360640190fd5b828202828482816138a957fe5b0514611804576040805162461bcd60e51b8152602060048201526018602482015277776d756c7469706c69636174696f6e206f766572666c6f7760401b604482015290519081900360640190fd5b600080821361394d576040805162461bcd60e51b815260206004820152601f60248201527f726f756e6448616c665570206f6e6c7920737570706f7274732079203e203000604482015290519081900360640190fd5b60008312613969576139628360028405612be5565b9050610e49565b6118048360028405612b73565b600080613983858561382c565b905060008312156139a557613997836139c1565b92506139a2816139c1565b90505b826139b082856138f7565b816139b757fe5b0595945050505050565b6000610e49600083612b7356fe76616c69646174657320616e206164647265737320746861742069742069736e2774206e756c6c4f776e61626c653a206e6577206f776e657220697320746865207a65726f2061646472657373616d6f756e74206d75737420626520646976697369626c65206279206c6f7453697a65536166654d6174683a206d756c7469706c69636174696f6e206f766572666c6f774f776e61626c653a2063616c6c6572206973206e6f7420746865206f776e6572a2646970667358221220e3a94ca65bece8560af12ac901b36651ae56d52482789a43fbe3eca5c45bcb0e64736f6c6343000603003376616c69646174657320616e206164647265737320746861742069742069736e2774206e756c6c",
  "source": "pragma solidity ^0.6.0;\n\nimport \"./utility/SafeMath.sol\";\nimport \"./utility/LibMathSigned.sol\";\nimport \"./utility/Address.sol\";\nimport \"./utility/Types.sol\";\nimport \"./PositionManager.sol\";\n\ncontract Perpetual is PositionManager {\n    using SafeMath for uint256;\n    using LibMathSigned for int256;\n    using Address for address;\n\n    constructor(\n        address collateralAddress,\n        address priceFeederAddress\n    )\n        public\n        PositionManager(collateralAddress, priceFeederAddress)\n    {}\n\n    \n\n}\n",
  "sourcePath": "/mnt/d/HARMONY/GRANT-PROPOSAL/TEBS-APP/harmony-hack-main/contracts/contracts/Perpetual.sol",
  "compiler": {
    "name": "solc",
    "version": "0.6.3+commit.8dda9521.Emscripten.clang"
  },
  "schemaVersion": "3.4.1",
  "updatedAt": "2021-12-22T19:06:41.426Z",
  "networkType": "ethereum",
  "devdoc": {
    "methods": {
      "addAddress(address)": {
        "details": "adds a given address to the whitelist ",
        "params": {
          "_address": "address to add"
        }
      },
      "beginGlobalSettlement(uint256)": {
        "details": "Set perpetual status to 'emergency'. It can be called multiple times to set price.     In emergency mode, main function like trading / withdrawing is disabled to prevent unexpected loss.",
        "params": {
          "price": "Price used as mark price in emergency mode."
        }
      },
      "isOwner()": {
        "details": "Returns true if the caller is the current owner."
      },
      "isWhitelisted(address)": {
        "details": "returns true if a given address is whitelisted, false if not ",
        "params": {
          "_address": "address to check "
        },
        "returns": {
          "_0": "true if the address is whitelisted, false if not"
        }
      },
      "owner()": {
        "details": "Returns the address of the current owner."
      },
      "removeAddress(address)": {
        "details": "removes a given address from the whitelist ",
        "params": {
          "_address": "address to remove"
        }
      },
      "renounceOwnership()": {
        "details": "Leaves the contract without owner. It will not be possible to call `onlyOwner` functions anymore. Can only be called by the current owner.     * NOTE: Renouncing ownership will leave the contract without an owner, thereby removing any functionality that is only available to the owner."
      },
      "transferOwnership(address)": {
        "details": "Transfers ownership of the contract to a new account (`newOwner`). Can only be called by the current owner."
      }
    }
  },
  "userdoc": {
    "methods": {}
  }
}