{
  "contractName": "PriceFeeder",
  "abi": [
    {
      "inputs": [
        {
          "internalType": "string",
          "name": "_name",
          "type": "string"
        }
      ],
      "stateMutability": "nonpayable",
      "type": "constructor"
    },
    {
      "anonymous": false,
      "inputs": [
        {
          "indexed": true,
          "internalType": "address",
          "name": "previousOwner",
          "type": "address"
        },
        {
          "indexed": true,
          "internalType": "address",
          "name": "newOwner",
          "type": "address"
        }
      ],
      "name": "OwnershipTransferred",
      "type": "event"
    },
    {
      "inputs": [
        {
          "internalType": "address",
          "name": "_address",
          "type": "address"
        }
      ],
      "name": "addAddress",
      "outputs": [],
      "stateMutability": "nonpayable",
      "type": "function"
    },
    {
      "inputs": [],
      "name": "isOwner",
      "outputs": [
        {
          "internalType": "bool",
          "name": "",
          "type": "bool"
        }
      ],
      "stateMutability": "view",
      "type": "function",
      "constant": true
    },
    {
      "inputs": [
        {
          "internalType": "address",
          "name": "_address",
          "type": "address"
        }
      ],
      "name": "isWhitelisted",
      "outputs": [
        {
          "internalType": "bool",
          "name": "",
          "type": "bool"
        }
      ],
      "stateMutability": "view",
      "type": "function",
      "constant": true
    },
    {
      "inputs": [],
      "name": "name",
      "outputs": [
        {
          "internalType": "string",
          "name": "",
          "type": "string"
        }
      ],
      "stateMutability": "view",
      "type": "function",
      "constant": true
    },
    {
      "inputs": [],
      "name": "newValue",
      "outputs": [
        {
          "internalType": "uint256",
          "name": "",
          "type": "uint256"
        }
      ],
      "stateMutability": "view",
      "type": "function",
      "constant": true
    },
    {
      "inputs": [],
      "name": "owner",
      "outputs": [
        {
          "internalType": "address",
          "name": "",
          "type": "address"
        }
      ],
      "stateMutability": "view",
      "type": "function",
      "constant": true
    },
    {
      "inputs": [
        {
          "internalType": "address",
          "name": "_address",
          "type": "address"
        }
      ],
      "name": "removeAddress",
      "outputs": [],
      "stateMutability": "nonpayable",
      "type": "function"
    },
    {
      "inputs": [],
      "name": "renounceOwnership",
      "outputs": [],
      "stateMutability": "nonpayable",
      "type": "function"
    },
    {
      "inputs": [
        {
          "internalType": "address",
          "name": "newOwner",
          "type": "address"
        }
      ],
      "name": "transferOwnership",
      "outputs": [],
      "stateMutability": "nonpayable",
      "type": "function"
    },
    {
      "inputs": [],
      "name": "value",
      "outputs": [
        {
          "internalType": "uint256",
          "name": "",
          "type": "uint256"
        }
      ],
      "stateMutability": "view",
      "type": "function",
      "constant": true
    },
    {
      "inputs": [
        {
          "internalType": "uint256",
          "name": "_newValue",
          "type": "uint256"
        }
      ],
      "name": "updateValue",
      "outputs": [],
      "stateMutability": "nonpayable",
      "type": "function"
    },
    {
      "inputs": [],
      "name": "confirmValueUpdate",
      "outputs": [],
      "stateMutability": "nonpayable",
      "type": "function"
    },
    {
      "inputs": [],
      "name": "getValue",
      "outputs": [
        {
          "internalType": "uint256",
          "name": "",
          "type": "uint256"
        }
      ],
      "stateMutability": "view",
      "type": "function",
      "constant": true
    },
    {
      "inputs": [],
      "name": "getTimestamp",
      "outputs": [
        {
          "internalType": "uint256",
          "name": "",
          "type": "uint256"
        }
      ],
      "stateMutability": "view",
      "type": "function",
      "constant": true
    }
  ],
  "bytecode": "0x6080604052620186a0600255620186a060035534801561001e57600080fd5b50604051610b61380380610b618339818101604052602081101561004157600080fd5b810190808051604051939291908464010000000082111561006157600080fd5b90830190602082018581111561007657600080fd5b825164010000000081118282018810171561009057600080fd5b82525081516020918201929091019080838360005b838110156100bd5781810151838201526020016100a5565b50505050905090810190601f1680156100ea5780820380516001836020036101000a031916815260200191505b50604052505050600061010161017b60201b60201c565b600080546001600160a01b0319166001600160a01b0383169081178255604051929350917f8be0079c531659141344cd1fd0a4f28419497f9722a3daafe3b4186f6b6457e0908290a350805161015e9060059060208401906102a6565b5042600455610175336001600160e01b0361018016565b5061033e565b335b90565b6101916001600160e01b0361027916565b6101e2576040805162461bcd60e51b815260206004820181905260248201527f4f776e61626c653a2063616c6c6572206973206e6f7420746865206f776e6572604482015290519081900360640190fd5b806001600160a01b0381166102285760405162461bcd60e51b8152600401808060200182810382526027815260200180610b3a6027913960400191505060405180910390fd5b6001600160a01b03821660009081526001602052604090205460ff161561024e57610275565b6001600160a01b0382166000908152600160208190526040909120805460ff191690911790555b5050565b600080546001600160a01b03166102976001600160e01b0361017b16565b6001600160a01b031614905090565b828054600181600116156101000203166002900490600052602060002090601f016020900481019282601f106102e757805160ff1916838001178555610314565b82800160010185558215610314579182015b828111156103145782518255916020019190600101906102f9565b50610320929150610324565b5090565b61017d91905b80821115610320576000815560010161032a565b6107ed8061034d6000396000f3fe608060405234801561001057600080fd5b50600436106100ea5760003560e01c8063573c0bd31161008c5780638da5cb5b116100665780638da5cb5b1461024b5780638f32d59b1461026f578063d1d12ac614610277578063f2fde38b1461027f576100ea565b8063573c0bd31461021e578063715018a61461023b5780637c65452c14610243576100ea565b806338eada1c116100c857806338eada1c1461018e5780633af32abf146101b65780633fa4f245146101f05780634ba79dfe146101f8576100ea565b806306fdde03146100ef578063188ec3561461016c5780632096525514610186575b600080fd5b6100f76102a5565b6040805160208082528351818301528351919283929083019185019080838360005b83811015610131578181015183820152602001610119565b50505050905090810190601f16801561015e5780820380516001836020036101000a031916815260200191505b509250505060405180910390f35b610174610333565b60408051918252519081900360200190f35b610174610339565b6101b4600480360360208110156101a457600080fd5b50356001600160a01b031661033f565b005b6101dc600480360360208110156101cc57600080fd5b50356001600160a01b031661041d565b604080519115158252519081900360200190f35b61017461043b565b6101b46004803603602081101561020e57600080fd5b50356001600160a01b0316610441565b6101b46004803603602081101561023457600080fd5b50356104d1565b6101b461052b565b6101746105bc565b6102536105c2565b604080516001600160a01b039092168252519081900360200190f35b6101dc6105d1565b6101b46105f5565b6101b46004803603602081101561029557600080fd5b50356001600160a01b0316610656565b6005805460408051602060026001851615610100026000190190941693909304601f8101849004840282018401909252818152929183018282801561032b5780601f106103005761010080835404028352916020019161032b565b820191906000526020600020905b81548152906001019060200180831161030e57829003601f168201915b505050505081565b60045490565b60025490565b6103476105d1565b610386576040805162461bcd60e51b81526020600482018190526024820152600080516020610798833981519152604482015290519081900360640190fd5b806001600160a01b0381166103cc5760405162461bcd60e51b815260040180806020018281038252602781526020018061074b6027913960400191505060405180910390fd5b6001600160a01b03821660009081526001602052604090205460ff16156103f257610419565b6001600160a01b0382166000908152600160208190526040909120805460ff191690911790555b5050565b6001600160a01b031660009081526001602052604090205460ff1690565b60025481565b6104496105d1565b610488576040805162461bcd60e51b81526020600482018190526024820152600080516020610798833981519152604482015290519081900360640190fd5b6001600160a01b03811660009081526001602052604090205460ff166104ad576104ce565b6001600160a01b0381166000908152600160205260409020805460ff191690555b50565b60006104db6106a6565b90506104e68161041d565b610525576040805162461bcd60e51b81526020600482018190526024820152600080516020610798833981519152604482015290519081900360640190fd5b50600355565b6105336105d1565b610572576040805162461bcd60e51b81526020600482018190526024820152600080516020610798833981519152604482015290519081900360640190fd5b600080546040516001600160a01b03909116907f8be0079c531659141344cd1fd0a4f28419497f9722a3daafe3b4186f6b6457e0908390a3600080546001600160a01b0319169055565b60035481565b6000546001600160a01b031690565b600080546001600160a01b03166105e66106a6565b6001600160a01b031614905090565b60006105ff6106a6565b905061060a8161041d565b610649576040805162461bcd60e51b81526020600482018190526024820152600080516020610798833981519152604482015290519081900360640190fd5b5060035460025542600455565b61065e6105d1565b61069d576040805162461bcd60e51b81526020600482018190526024820152600080516020610798833981519152604482015290519081900360640190fd5b6104ce816106aa565b3390565b6001600160a01b0381166106ef5760405162461bcd60e51b81526004018080602001828103825260268152602001806107726026913960400191505060405180910390fd5b600080546040516001600160a01b03808516939216917f8be0079c531659141344cd1fd0a4f28419497f9722a3daafe3b4186f6b6457e091a3600080546001600160a01b0319166001600160a01b039290921691909117905556fe76616c69646174657320616e206164647265737320746861742069742069736e2774206e756c6c4f776e61626c653a206e6577206f776e657220697320746865207a65726f20616464726573734f776e61626c653a2063616c6c6572206973206e6f7420746865206f776e6572a2646970667358221220e81b8435895f76e93cbc73028e8e1bbbb20cb29dfcf8a5852a4e33a0b73218ad64736f6c6343000603003376616c69646174657320616e206164647265737320746861742069742069736e2774206e756c6c",
  "source": "pragma solidity ^0.6.0;\n\nimport \"./utility/Ownable.sol\";\nimport \"./utility/Whitelist.sol\";\nimport \"./interfaces/IPriceFeeder.sol\";\n\ncontract PriceFeeder is Whitelist, IPriceFeeder {\n    uint256 public value = 100000; // wad\n    uint256 public newValue = 100000; // wad\n    uint256 private timestamp;\n    \n    string public name;\n\n    constructor(string memory _name) public {\n        name = _name;\n        timestamp = now;\n        addAddress(msg.sender);\n    }\n\n    function updateValue(uint256 _newValue) public onlyWhitelisted() {\n        newValue = _newValue;\n    }\n\n    function confirmValueUpdate() public onlyWhitelisted() {\n        value = newValue;\n        timestamp = now;\n    }\n\n    function getValue() public override view returns (uint256) {\n        return value;\n    }\n\n    function getTimestamp() public override view returns (uint256) {\n        return timestamp;\n    }\n}\n",
  "sourcePath": "/mnt/d/HARMONY/GRANT-PROPOSAL/TEBS-APP/harmony-hack-main/contracts/contracts/PriceFeeder.sol",
  "compiler": {
    "name": "solc",
    "version": "0.6.3+commit.8dda9521.Emscripten.clang"
  },
  "schemaVersion": "3.4.1",
  "updatedAt": "2021-12-22T19:06:41.393Z",
  "networkType": "ethereum",
  "devdoc": {
    "methods": {
      "addAddress(address)": {
        "details": "adds a given address to the whitelist ",
        "params": {
          "_address": "address to add"
        }
      },
      "isOwner()": {
        "details": "Returns true if the caller is the current owner."
      },
      "isWhitelisted(address)": {
        "details": "returns true if a given address is whitelisted, false if not ",
        "params": {
          "_address": "address to check "
        },
        "returns": {
          "_0": "true if the address is whitelisted, false if not"
        }
      },
      "owner()": {
        "details": "Returns the address of the current owner."
      },
      "removeAddress(address)": {
        "details": "removes a given address from the whitelist ",
        "params": {
          "_address": "address to remove"
        }
      },
      "renounceOwnership()": {
        "details": "Leaves the contract without owner. It will not be possible to call `onlyOwner` functions anymore. Can only be called by the current owner.     * NOTE: Renouncing ownership will leave the contract without an owner, thereby removing any functionality that is only available to the owner."
      },
      "transferOwnership(address)": {
        "details": "Transfers ownership of the contract to a new account (`newOwner`). Can only be called by the current owner."
      }
    }
  },
  "userdoc": {
    "methods": {}
  }
}