{
  "contractName": "TokenFactory",
  "abi": [
    {
      "anonymous": false,
      "inputs": [
        {
          "indexed": true,
          "internalType": "address",
          "name": "tokenAddress",
          "type": "address"
        }
      ],
      "name": "TokenCreated",
      "type": "event"
    },
    {
      "inputs": [
        {
          "internalType": "string",
          "name": "tokenName",
          "type": "string"
        },
        {
          "internalType": "string",
          "name": "tokenSymbol",
          "type": "string"
        },
        {
          "internalType": "uint8",
          "name": "tokenDecimals",
          "type": "uint8"
        }
      ],
      "name": "createToken",
      "outputs": [
        {
          "internalType": "contract IExpandedIERC20",
          "name": "newToken",
          "type": "address"
        }
      ],
      "stateMutability": "nonpayable",
      "type": "function"
    }
  ],
  "bytecode": "0x60806040526000805460ff19166001179055612512806100206000396000f3fe608060405234801561001057600080fd5b506004361061002b5760003560e01c8063e8a0aed314610030575b600080fd5b6100f56004803603606081101561004657600080fd5b81019060208101813564010000000081111561006157600080fd5b82018360208201111561007357600080fd5b8035906020019184600183028401116401000000008311171561009557600080fd5b9193909290916020810190356401000000008111156100b357600080fd5b8201836020820111156100c557600080fd5b803590602001918460018302840111640100000000831117156100e757600080fd5b91935091503560ff16610111565b604080516001600160a01b039092168252519081900360200190f35b600061011b610322565b61012361037b565b6000868686868660405161013690610396565b60ff8216604082015260608082528101859052806020810160808201888880828437600083820152601f01601f1916909101848103835286815260200190508686808284376000838201819052604051601f909201601f19169093018190039a509850909650505050505050f0801580156101b5573d6000803e3d6000fd5b5060408051634c1d96ab60e11b815233600482015290519192506001600160a01b0383169163983b2d569160248082019260009290919082900301818387803b15801561020157600080fd5b505af1158015610215573d6000803e3d6000fd5b505060408051637a231bdd60e11b815233600482015290516001600160a01b038516935063f44637ba9250602480830192600092919082900301818387803b15801561026057600080fd5b505af1158015610274573d6000803e3d6000fd5b5050604080516339e6401560e11b815233600482015290516001600160a01b03851693506373cc802a9250602480830192600092919082900301818387803b1580156102bf57600080fd5b505af11580156102d3573d6000803e3d6000fd5b50505050809150816001600160a01b03167f2e2b3f61b70d2d131b2a807371103cc98d51adcaa5e9a8f9c32658ad8426e74e60405160405180910390a250610319610387565b95945050505050565b60005460ff16610379576040805162461bcd60e51b815260206004820152601f60248201527f5265656e7472616e637947756172643a207265656e7472616e742063616c6c00604482015290519081900360640190fd5b565b6000805460ff19169055565b6000805460ff19166001179055565b612139806103a48339019056fe60806040523480156200001157600080fd5b506040516200213938038062002139833981810160405260608110156200003757600080fd5b81019080805160405193929190846401000000008211156200005857600080fd5b9083019060208201858111156200006e57600080fd5b82516401000000008111828201881017156200008957600080fd5b82525081516020918201929091019080838360005b83811015620000b85781810151838201526020016200009e565b50505050905090810190601f168015620000e65780820380516001836020036101000a031916815260200191505b50604052602001805160405193929190846401000000008211156200010a57600080fd5b9083019060208201858111156200012057600080fd5b82516401000000008111828201881017156200013b57600080fd5b82525081516020918201929091019080838360005b838110156200016a57818101518382015260200162000150565b50505050905090810190601f168015620001985780820380516001836020036101000a031916815260200191505b5060405260209081015185519093508592508491849184918491620001c491600391908501906200068a565b508051620001da9060049060208401906200068a565b50506005805460ff1916601217905550620001fe816001600160e01b036200029016565b62000215600080336001600160e01b03620002a616565b6200023260015b60408051600080825260208201909252620003c1565b6200023e60026200021c565b50506007805460ff1916600117905550620002616001600160e01b03620004d616565b620002746001600160e01b036200053016565b620002876001600160e01b036200053c16565b5050506200072f565b6005805460ff191660ff92909216919091179055565b826000808281526006602052604090206001015460ff166002811115620002c957fe5b146200031c576040805162461bcd60e51b815260206004820152601e60248201527f43616e6e6f74207573652061207072652d6578697374696e6720726f6c650000604482015290519081900360640190fd5b60008481526006602052604090206001808201805460ff1916828002179055508381556200035a60028201846200054b602090811b620016e617901c565b60008481526006602052604081206001015460ff1660028111156200037b57fe5b1415620003ba5760405162461bcd60e51b815260040180806020018281038252603c815260200180620020a2603c913960400191505060405180910390fd5b5050505050565b826000808281526006602052604090206001015460ff166002811115620003e457fe5b1462000437576040805162461bcd60e51b815260206004820152601e60248201527f43616e6e6f74207573652061207072652d6578697374696e6720726f6c650000604482015290519081900360640190fd5b600084815260066020908152604090912060018101805460ff1916600217905584815590620004769060038301908590620016f462000564821b17901c565b60008481526006602052604081206001015460ff1660028111156200049757fe5b1415620003ba5760405162461bcd60e51b8152600401808060200182810382526038815260200180620021016038913960400191505060405180910390fd5b60075460ff166200052e576040805162461bcd60e51b815260206004820152601f60248201527f5265656e7472616e637947756172643a207265656e7472616e742063616c6c00604482015290519081900360640190fd5b565b6007805460ff19169055565b6007805460ff19166001179055565b6200056082826001600160e01b03620005a516565b5050565b60005b8151811015620005a05762000597838383815181106200058357fe5b60200260200101516200060960201b60201c565b60010162000567565b505050565b6001600160a01b038116620005ec5760405162461bcd60e51b8152600401808060200182810382526023815260200180620020de6023913960400191505060405180910390fd5b81546001600160a01b0319166001600160a01b0391909116179055565b6001600160a01b03811662000665576040805162461bcd60e51b815260206004820152601f60248201527f43616e6e6f74206164642030783020746f20612073686172656420726f6c6500604482015290519081900360640190fd5b6001600160a01b0316600090815260209190915260409020805460ff19166001179055565b828054600181600116156101000203166002900490600052602060002090601f016020900481019282601f10620006cd57805160ff1916838001178555620006fd565b82800160010185558215620006fd579182015b82811115620006fd578251825591602001919060010190620006e0565b506200070b9291506200070f565b5090565b6200072c91905b808211156200070b576000815560010162000716565b90565b611963806200073f6000396000f3fe608060405234801561001057600080fd5b506004361061018e5760003560e01c806374d0a676116100de578063a9059cbb11610097578063ab3545e511610071578063ab3545e51461054f578063d97c05be14610588578063dd62ed3e146105b4578063f44637ba146105e25761018e565b8063a9059cbb146104e0578063aa271e1a1461050c578063aaa14ca3146105325761018e565b806374d0a676146104025780637cdc1cb91461042e57806395d89b411461045a578063983b2d56146104625780639dc29fac14610488578063a457c2d7146104b45761018e565b8063313ce5671161014b5780634334614a116101255780634334614a146103645780636be7658b1461038a57806370a08231146103b657806373cc802a146103dc5761018e565b8063313ce567146102ee578063395093511461030c57806340c10f19146103385761018e565b8063028468581461019357806306fdde03146101bb578063095ea7b31461023857806318160ddd1461027857806323b872dd146102925780633092afd5146102c8575b600080fd5b6101b9600480360360208110156101a957600080fd5b50356001600160a01b0316610608565b005b6101c361062f565b6040805160208082528351818301528351919283929083019185019080838360005b838110156101fd5781810151838201526020016101e5565b50505050905090810190601f16801561022a5780820380516001836020036101000a031916815260200191505b509250505060405180910390f35b6102646004803603604081101561024e57600080fd5b506001600160a01b0381351690602001356106c5565b604080519115158252519081900360200190f35b6102806106e3565b60408051918252519081900360200190f35b610264600480360360608110156102a857600080fd5b506001600160a01b038135811691602081013590911690604001356106e9565b6101b9600480360360208110156102de57600080fd5b50356001600160a01b0316610776565b6102f6610790565b6040805160ff9092168252519081900360200190f35b6102646004803603604081101561032257600080fd5b506001600160a01b038135169060200135610799565b6102646004803603604081101561034e57600080fd5b506001600160a01b0381351690602001356107ed565b6102646004803603602081101561037a57600080fd5b50356001600160a01b0316610840565b6101b9600480360360408110156103a057600080fd5b50803590602001356001600160a01b0316610856565b610280600480360360208110156103cc57600080fd5b50356001600160a01b031661096a565b6101b9600480360360208110156103f257600080fd5b50356001600160a01b0316610985565b6101b96004803603604081101561041857600080fd5b50803590602001356001600160a01b03166109a0565b6102646004803603604081101561044457600080fd5b50803590602001356001600160a01b0316610ab4565b6101c3610b63565b6101b96004803603602081101561047857600080fd5b50356001600160a01b0316610bc4565b6101b96004803603604081101561049e57600080fd5b506001600160a01b038135169060200135610be0565b610264600480360360408110156104ca57600080fd5b506001600160a01b038135169060200135610c36565b610264600480360360408110156104f657600080fd5b506001600160a01b038135169060200135610ca4565b6102646004803603602081101561052257600080fd5b50356001600160a01b0316610cb8565b6101b96004803603602081101561054857600080fd5b5035610ccc565b61056c6004803603602081101561056557600080fd5b5035610dc6565b604080516001600160a01b039092168252519081900360200190f35b6101b96004803603604081101561059e57600080fd5b50803590602001356001600160a01b0316610e48565b610280600480360360408110156105ca57600080fd5b506001600160a01b0381358116916020013516610f5c565b6101b9600480360360208110156105f857600080fd5b50356001600160a01b0316610f87565b610610610fa1565b610618610ffa565b61062460025b82610856565b61062c611006565b50565b60038054604080516020601f60026000196101006001881615020190951694909404938401819004810282018101909252828152606093909290918301828280156106bb5780601f10610690576101008083540402835291602001916106bb565b820191906000526020600020905b81548152906001019060200180831161069e57829003601f168201915b5050505050905090565b60006106d96106d2611015565b8484611019565b5060015b92915050565b60025490565b60006106f6848484611105565b61076c84610702611015565b61076785604051806060016040528060288152602001611830602891396001600160a01b038a16600090815260016020526040812090610740611015565b6001600160a01b03168152602081019190915260400160002054919063ffffffff61126c16565b611019565b5060019392505050565b61077e610fa1565b610786610ffa565b610624600161061e565b60055460ff1690565b60006106d96107a6611015565b8461076785600160006107b7611015565b6001600160a01b03908116825260208083019390935260409182016000908120918c16815292529020549063ffffffff61130316565b600060016107fb8133610ab4565b6108365760405162461bcd60e51b815260040180806020018281038252602281526020018061180e6022913960400191505060405180910390fd5b61076c848461135d565b600061084a610fa1565b6106dd60025b83610ab4565b81600260008281526006602052604090206001015460ff16600281111561087957fe5b146108b55760405162461bcd60e51b815260040180806020018281038252602c8152602001806117e2602c913960400191505060405180910390fd5b60008381526006602052604090205483906108d09033610ab4565b61090b5760405162461bcd60e51b81526004018080602001828103825260248152602001806118e56024913960400191505060405180910390fd5b600084815260066020526040902061092c906003018463ffffffff61145916565b60405133906001600160a01b0385169086907feb3e33034c392e69263b04ec0fa376dc12784a41b6676c7f31b936cbc0fbb5af90600090a450505050565b6001600160a01b031660009081526020819052604090205490565b61098d610fa1565b610995610ffa565b610624600082610e48565b81600260008281526006602052604090206001015460ff1660028111156109c357fe5b146109ff5760405162461bcd60e51b815260040180806020018281038252602c8152602001806117e2602c913960400191505060405180910390fd5b6000838152600660205260409020548390610a1a9033610ab4565b610a555760405162461bcd60e51b81526004018080602001828103825260248152602001806118e56024913960400191505060405180910390fd5b6000848152600660205260409020610a76906003018463ffffffff61147b16565b60405133906001600160a01b0385169086907f63502af7324ff6db91ab38f8236a648727d9385ea6c782073dd4882d8a61a48f90600090a450505050565b600082815260066020526040812060018082015460ff166002811115610ad657fe5b1415610af757610aef600282018463ffffffff6114fb16565b9150506106dd565b6002600182015460ff166002811115610b0c57fe5b1415610b2557610aef600382018463ffffffff61150e16565b6040805162461bcd60e51b815260206004820152600e60248201526d125b9d985b1a59081c9bdb19525960921b604482015290519081900360640190fd5b60048054604080516020601f60026000196101006001881615020190951694909404938401819004810282018101909252828152606093909290918301828280156106bb5780601f10610690576101008083540402835291602001916106bb565b610bcc610fa1565b610bd4610ffa565b61062460015b826109a0565b6002610bec8133610ab4565b610c275760405162461bcd60e51b815260040180806020018281038252602281526020018061180e6022913960400191505060405180910390fd5b610c31838361152d565b505050565b60006106d9610c43611015565b84610767856040518060600160405280602581526020016119096025913960016000610c6d611015565b6001600160a01b03908116825260208083019390935260409182016000908120918d1681529252902054919063ffffffff61126c16565b60006106d9610cb1611015565b8484611105565b6000610cc2610fa1565b6106dd6001610850565b80600260008281526006602052604090206001015460ff166002811115610cef57fe5b14610d2b5760405162461bcd60e51b815260040180806020018281038252602c8152602001806117e2602c913960400191505060405180910390fd5b81610d368133610ab4565b610d715760405162461bcd60e51b815260040180806020018281038252602281526020018061180e6022913960400191505060405180910390fd5b6000838152600660205260409020610d92906003013363ffffffff61145916565b6040513390819085907feb3e33034c392e69263b04ec0fa376dc12784a41b6676c7f31b936cbc0fbb5af90600090a4505050565b600081600160008281526006602052604090206001015460ff166002811115610deb57fe5b14610e275760405162461bcd60e51b815260040180806020018281038252602f8152602001806117b3602f913960400191505060405180910390fd5b6000838152600660205260409020610e4190600201611635565b9392505050565b81600160008281526006602052604090206001015460ff166002811115610e6b57fe5b14610ea75760405162461bcd60e51b815260040180806020018281038252602f8152602001806117b3602f913960400191505060405180910390fd5b6000838152600660205260409020548390610ec29033610ab4565b610efd5760405162461bcd60e51b81526004018080602001828103825260248152602001806118e56024913960400191505060405180910390fd5b6000848152600660205260409020610f1e906002018463ffffffff61164216565b60405133906001600160a01b0385169086907f3b855c56b409b671c7112789d022675eb639d0bcb8896f1b6197c132f799e74690600090a450505050565b6001600160a01b03918216600090815260016020908152604080832093909416825291909152205490565b610f8f610fa1565b610f97610ffa565b6106246002610bda565b60075460ff16610ff8576040805162461bcd60e51b815260206004820152601f60248201527f5265656e7472616e637947756172643a207265656e7472616e742063616c6c00604482015290519081900360640190fd5b565b6007805460ff19169055565b6007805460ff19166001179055565b3390565b6001600160a01b03831661105e5760405162461bcd60e51b81526004018080602001828103825260248152602001806118c16024913960400191505060405180910390fd5b6001600160a01b0382166110a35760405162461bcd60e51b815260040180806020018281038252602281526020018061176b6022913960400191505060405180910390fd5b6001600160a01b03808416600081815260016020908152604080832094871680845294825291829020859055815185815291517f8c5be1e5ebec7d5bd14f71427d1e84f3dd0314c0f7b2291e5b200ac8c7c3b9259281900390910190a3505050565b6001600160a01b03831661114a5760405162461bcd60e51b815260040180806020018281038252602581526020018061189c6025913960400191505060405180910390fd5b6001600160a01b03821661118f5760405162461bcd60e51b81526004018080602001828103825260238152602001806117266023913960400191505060405180910390fd5b61119a838383610c31565b6111dd8160405180606001604052806026815260200161178d602691396001600160a01b038616600090815260208190526040902054919063ffffffff61126c16565b6001600160a01b038085166000908152602081905260408082209390935590841681522054611212908263ffffffff61130316565b6001600160a01b038084166000818152602081815260409182902094909455805185815290519193928716927fddf252ad1be2c89b69c2b068fc378daa952ba7f163c4a11628f55a4df523b3ef92918290030190a3505050565b600081848411156112fb5760405162461bcd60e51b81526004018080602001828103825283818151815260200191508051906020019080838360005b838110156112c05781810151838201526020016112a8565b50505050905090810190601f1680156112ed5780820380516001836020036101000a031916815260200191505b509250505060405180910390fd5b505050900390565b600082820183811015610e41576040805162461bcd60e51b815260206004820152601b60248201527f536166654d6174683a206164646974696f6e206f766572666c6f770000000000604482015290519081900360640190fd5b6001600160a01b0382166113b8576040805162461bcd60e51b815260206004820152601f60248201527f45524332303a206d696e7420746f20746865207a65726f206164647265737300604482015290519081900360640190fd5b6113c460008383610c31565b6002546113d7908263ffffffff61130316565b6002556001600160a01b038216600090815260208190526040902054611403908263ffffffff61130316565b6001600160a01b0383166000818152602081815260408083209490945583518581529351929391927fddf252ad1be2c89b69c2b068fc378daa952ba7f163c4a11628f55a4df523b3ef9281900390910190a35050565b6001600160a01b0316600090815260209190915260409020805460ff19169055565b6001600160a01b0381166114d6576040805162461bcd60e51b815260206004820152601f60248201527f43616e6e6f74206164642030783020746f20612073686172656420726f6c6500604482015290519081900360640190fd5b6001600160a01b0316600090815260209190915260409020805460ff19166001179055565b90546001600160a01b0391821691161490565b6001600160a01b03166000908152602091909152604090205460ff1690565b6001600160a01b0382166115725760405162461bcd60e51b81526004018080602001828103825260218152602001806118586021913960400191505060405180910390fd5b61157e82600083610c31565b6115c181604051806060016040528060228152602001611749602291396001600160a01b038516600090815260208190526040902054919063ffffffff61126c16565b6001600160a01b0383166000908152602081905260409020556002546115ed908263ffffffff6116a416565b6002556040805182815290516000916001600160a01b038516917fddf252ad1be2c89b69c2b068fc378daa952ba7f163c4a11628f55a4df523b3ef9181900360200190a35050565b546001600160a01b031690565b6001600160a01b0381166116875760405162461bcd60e51b81526004018080602001828103825260238152602001806118796023913960400191505060405180910390fd5b81546001600160a01b0319166001600160a01b0391909116179055565b6000610e4183836040518060400160405280601e81526020017f536166654d6174683a207375627472616374696f6e206f766572666c6f77000081525061126c565b6116f08282611642565b5050565b60005b8151811015610c315761171d8383838151811061171057fe5b602002602001015161147b565b6001016116f756fe45524332303a207472616e7366657220746f20746865207a65726f206164647265737345524332303a206275726e20616d6f756e7420657863656564732062616c616e636545524332303a20617070726f766520746f20746865207a65726f206164647265737345524332303a207472616e7366657220616d6f756e7420657863656564732062616c616e63654d7573742062652063616c6c6564206f6e20616e20696e697469616c697a6564204578636c757369766520726f6c654d7573742062652063616c6c6564206f6e20616e20696e697469616c697a65642053686172656420726f6c6553656e64657220646f6573206e6f7420686f6c6420726571756972656420726f6c6545524332303a207472616e7366657220616d6f756e74206578636565647320616c6c6f77616e636545524332303a206275726e2066726f6d20746865207a65726f206164647265737343616e6e6f742073657420616e206578636c757369766520726f6c6520746f2030783045524332303a207472616e736665722066726f6d20746865207a65726f206164647265737345524332303a20617070726f76652066726f6d20746865207a65726f206164647265737343616e206f6e6c792062652063616c6c6564206279206120726f6c65206d616e6167657245524332303a2064656372656173656420616c6c6f77616e63652062656c6f77207a65726fa2646970667358221220c010d506e100b066b9cf63c2d04ffcdea274e08f042afc70c1099ae4d38b293b64736f6c63430006030033417474656d7074656420746f2075736520616e20696e76616c696420726f6c6520746f206d616e61676520616e206578636c757369766520726f6c6543616e6e6f742073657420616e206578636c757369766520726f6c6520746f20307830417474656d7074656420746f2075736520616e20696e76616c696420726f6c6520746f206d616e61676520612073686172656420726f6c65a26469706673582212201e591e2f97cd74797454acbdb958485802c80a74973c4dcd134dd7add375d6c864736f6c63430006030033",
  "source": "pragma solidity ^0.6.0;\n\nimport \"./utility/SyntheticToken.sol\";\nimport \"./interfaces/IExpandedIERC20.sol\";\nimport \"./utility/Lockable.sol\";\n\n\n/**\n * @title Factory for creating new mintable and burnable tokens.\n */\n\ncontract TokenFactory is Lockable {\n\n    event TokenCreated(address indexed tokenAddress);\n\n    /**\n     * @notice Create a new token and return it to the caller.\n     * @dev The caller will become the only minter and burner and the new owner capable of assigning the roles.\n     * @param tokenName used to describe the new token.\n     * @param tokenSymbol short ticker abbreviation of the name. Ideally < 5 chars.\n     * @param tokenDecimals used to define the precision used in the token's numerical representation.\n     * @return newToken an instance of the newly created token interface.\n     */\n    function createToken(\n        string calldata tokenName,\n        string calldata tokenSymbol,\n        uint8 tokenDecimals\n    ) external nonReentrant() returns (IExpandedIERC20 newToken) {\n        SyntheticToken mintableToken = new SyntheticToken(tokenName, tokenSymbol, tokenDecimals);\n        mintableToken.addMinter(msg.sender);\n        mintableToken.addBurner(msg.sender);\n        mintableToken.resetOwner(msg.sender);\n        newToken = IExpandedIERC20(address(mintableToken));\n\n        emit TokenCreated(address(newToken));\n\n    }\n\n}\n",
  "sourcePath": "/mnt/d/HARMONY/GRANT-PROPOSAL/TEBS-APP/harmony-hack-main/contracts/contracts/TokenFactory.sol",
  "compiler": {
    "name": "solc",
    "version": "0.6.3+commit.8dda9521.Emscripten.clang"
  },
  "schemaVersion": "3.4.1",
  "updatedAt": "2021-12-22T19:05:45.350Z",
  "networkType": "ethereum",
  "devdoc": {
    "methods": {
      "createToken(string,string,uint8)": {
        "details": "The caller will become the only minter and burner and the new owner capable of assigning the roles.",
        "params": {
          "tokenDecimals": "used to define the precision used in the token's numerical representation.",
          "tokenName": "used to describe the new token.",
          "tokenSymbol": "short ticker abbreviation of the name. Ideally < 5 chars."
        },
        "returns": {
          "newToken": "an instance of the newly created token interface."
        }
      }
    },
    "title": "Factory for creating new mintable and burnable tokens."
  },
  "userdoc": {
    "methods": {
      "createToken(string,string,uint8)": {
        "notice": "Create a new token and return it to the caller."
      }
    }
  }
}