{
  "contractName": "Whitelist",
  "abi": [
    {
      "anonymous": false,
      "inputs": [
        {
          "indexed": true,
          "internalType": "address",
          "name": "previousOwner",
          "type": "address"
        },
        {
          "indexed": true,
          "internalType": "address",
          "name": "newOwner",
          "type": "address"
        }
      ],
      "name": "OwnershipTransferred",
      "type": "event"
    },
    {
      "inputs": [],
      "name": "isOwner",
      "outputs": [
        {
          "internalType": "bool",
          "name": "",
          "type": "bool"
        }
      ],
      "stateMutability": "view",
      "type": "function"
    },
    {
      "inputs": [],
      "name": "owner",
      "outputs": [
        {
          "internalType": "address",
          "name": "",
          "type": "address"
        }
      ],
      "stateMutability": "view",
      "type": "function"
    },
    {
      "inputs": [],
      "name": "renounceOwnership",
      "outputs": [],
      "stateMutability": "nonpayable",
      "type": "function"
    },
    {
      "inputs": [
        {
          "internalType": "address",
          "name": "newOwner",
          "type": "address"
        }
      ],
      "name": "transferOwnership",
      "outputs": [],
      "stateMutability": "nonpayable",
      "type": "function"
    },
    {
      "inputs": [
        {
          "internalType": "address",
          "name": "_address",
          "type": "address"
        }
      ],
      "name": "isWhitelisted",
      "outputs": [
        {
          "internalType": "bool",
          "name": "",
          "type": "bool"
        }
      ],
      "stateMutability": "view",
      "type": "function"
    },
    {
      "inputs": [
        {
          "internalType": "address",
          "name": "_address",
          "type": "address"
        }
      ],
      "name": "addAddress",
      "outputs": [],
      "stateMutability": "nonpayable",
      "type": "function"
    },
    {
      "inputs": [
        {
          "internalType": "address",
          "name": "_address",
          "type": "address"
        }
      ],
      "name": "removeAddress",
      "outputs": [],
      "stateMutability": "nonpayable",
      "type": "function"
    }
  ],
  "bytecode": "0x608060405260006100176001600160e01b0361006616565b600080546001600160a01b0319166001600160a01b0383169081178255604051929350917f8be0079c531659141344cd1fd0a4f28419497f9722a3daafe3b4186f6b6457e0908290a35061006a565b3390565b61054b806100796000396000f3fe608060405234801561001057600080fd5b506004361061007d5760003560e01c8063715018a61161005b578063715018a61461010a5780638da5cb5b146101125780638f32d59b14610136578063f2fde38b1461013e5761007d565b806338eada1c146100825780633af32abf146100aa5780634ba79dfe146100e4575b600080fd5b6100a86004803603602081101561009857600080fd5b50356001600160a01b0316610164565b005b6100d0600480360360208110156100c057600080fd5b50356001600160a01b0316610242565b604080519115158252519081900360200190f35b6100a8600480360360208110156100fa57600080fd5b50356001600160a01b0316610260565b6100a86102f0565b61011a610381565b604080516001600160a01b039092168252519081900360200190f35b6100d0610390565b6100a86004803603602081101561015457600080fd5b50356001600160a01b03166103b4565b61016c610390565b6101ab576040805162461bcd60e51b815260206004820181905260248201526000805160206104f6833981519152604482015290519081900360640190fd5b806001600160a01b0381166101f15760405162461bcd60e51b81526004018080602001828103825260278152602001806104a96027913960400191505060405180910390fd5b6001600160a01b03821660009081526001602052604090205460ff16156102175761023e565b6001600160a01b0382166000908152600160208190526040909120805460ff191690911790555b5050565b6001600160a01b031660009081526001602052604090205460ff1690565b610268610390565b6102a7576040805162461bcd60e51b815260206004820181905260248201526000805160206104f6833981519152604482015290519081900360640190fd5b6001600160a01b03811660009081526001602052604090205460ff166102cc576102ed565b6001600160a01b0381166000908152600160205260409020805460ff191690555b50565b6102f8610390565b610337576040805162461bcd60e51b815260206004820181905260248201526000805160206104f6833981519152604482015290519081900360640190fd5b600080546040516001600160a01b03909116907f8be0079c531659141344cd1fd0a4f28419497f9722a3daafe3b4186f6b6457e0908390a3600080546001600160a01b0319169055565b6000546001600160a01b031690565b600080546001600160a01b03166103a5610404565b6001600160a01b031614905090565b6103bc610390565b6103fb576040805162461bcd60e51b815260206004820181905260248201526000805160206104f6833981519152604482015290519081900360640190fd5b6102ed81610408565b3390565b6001600160a01b03811661044d5760405162461bcd60e51b81526004018080602001828103825260268152602001806104d06026913960400191505060405180910390fd5b600080546040516001600160a01b03808516939216917f8be0079c531659141344cd1fd0a4f28419497f9722a3daafe3b4186f6b6457e091a3600080546001600160a01b0319166001600160a01b039290921691909117905556fe76616c69646174657320616e206164647265737320746861742069742069736e2774206e756c6c4f776e61626c653a206e6577206f776e657220697320746865207a65726f20616464726573734f776e61626c653a2063616c6c6572206973206e6f7420746865206f776e6572a2646970667358221220333cda17f1a2f2414a9518a604f8c0dbee56c1c883465ef11d8896041c1fe3ef64736f6c63430006030033",
  "source": "pragma solidity ^0.6.0;\n\nimport \"./Ownable.sol\";\nimport \"./Utils.sol\";\n\n\n/**\n  * @dev The contract manages a list of whitelisted addresses\n*/\ncontract Whitelist is Ownable, Utils {\n\n    mapping (address => bool) private whitelist;\n\n    /**\n      * @dev returns true if a given address is whitelisted, false if not\n      * \n      * @param _address address to check\n      * \n      * @return true if the address is whitelisted, false if not\n    */\n    function isWhitelisted(address _address) public view returns (bool) {\n        return whitelist[_address];\n    }\n\n    modifier onlyWhitelisted() {\n        address sender = _msgSender();\n        require(isWhitelisted(sender), \"Ownable: caller is not the owner\");\n        _;\n    }\n\n    /**\n      * @dev adds a given address to the whitelist\n      * \n      * @param _address address to add\n    */\n    function addAddress(address _address)\n        public\n        onlyOwner\n        validAddress(_address)\n    {\n        if (whitelist[_address]) // checks if the address is already whitelisted\n            return;\n\n        whitelist[_address] = true;\n    }\n\n    /**\n      * @dev removes a given address from the whitelist\n      * \n      * @param _address address to remove\n    */\n    function removeAddress(address _address) public onlyOwner {\n        if (!whitelist[_address]) // checks if the address is actually whitelisted\n            return;\n\n        whitelist[_address] = false;\n    }\n\n\n\n}",
  "sourcePath": "/mnt/d/HARMONY/GRANT-PROPOSAL/TEBS-APP/harmony-hack-main/contracts/contracts/utility/Whitelist.sol",
  "compiler": {
    "name": "solc",
    "version": "0.6.3+commit.8dda9521.Emscripten.clang"
  },
  "schemaVersion": "3.4.1",
  "updatedAt": "2021-12-22T18:59:35.980Z",
  "devdoc": {
    "details": "The contract manages a list of whitelisted addresses",
    "methods": {
      "addAddress(address)": {
        "details": "adds a given address to the whitelist ",
        "params": {
          "_address": "address to add"
        }
      },
      "isOwner()": {
        "details": "Returns true if the caller is the current owner."
      },
      "isWhitelisted(address)": {
        "details": "returns true if a given address is whitelisted, false if not ",
        "params": {
          "_address": "address to check "
        },
        "returns": {
          "_0": "true if the address is whitelisted, false if not"
        }
      },
      "owner()": {
        "details": "Returns the address of the current owner."
      },
      "removeAddress(address)": {
        "details": "removes a given address from the whitelist ",
        "params": {
          "_address": "address to remove"
        }
      },
      "renounceOwnership()": {
        "details": "Leaves the contract without owner. It will not be possible to call `onlyOwner` functions anymore. Can only be called by the current owner.     * NOTE: Renouncing ownership will leave the contract without an owner, thereby removing any functionality that is only available to the owner."
      },
      "transferOwnership(address)": {
        "details": "Transfers ownership of the contract to a new account (`newOwner`). Can only be called by the current owner."
      }
    }
  },
  "userdoc": {
    "methods": {}
  }
}